{
  "_format": "hh-sol-artifact-1",
  "contractName": "ERC1363StakingTrackerV1",
  "sourceName": "contracts/protocol/ERC1363StakingTrackerV1.sol",
  "abi": [
    {
      "anonymous": false,
      "inputs": [
        {
          "indexed": false,
          "internalType": "address",
          "name": "previousAdmin",
          "type": "address"
        },
        {
          "indexed": false,
          "internalType": "address",
          "name": "newAdmin",
          "type": "address"
        }
      ],
      "name": "AdminChanged",
      "type": "event"
    },
    {
      "anonymous": false,
      "inputs": [
        {
          "indexed": true,
          "internalType": "address",
          "name": "beacon",
          "type": "address"
        }
      ],
      "name": "BeaconUpgraded",
      "type": "event"
    },
    {
      "anonymous": false,
      "inputs": [
        {
          "indexed": true,
          "internalType": "address",
          "name": "depositToken",
          "type": "address"
        }
      ],
      "name": "DepositSettingsDeleted",
      "type": "event"
    },
    {
      "anonymous": false,
      "inputs": [
        {
          "indexed": true,
          "internalType": "address",
          "name": "depositToken",
          "type": "address"
        },
        {
          "indexed": false,
          "internalType": "uint32",
          "name": "duration",
          "type": "uint32"
        }
      ],
      "name": "DepositSettingsUpdated",
      "type": "event"
    },
    {
      "anonymous": false,
      "inputs": [
        {
          "indexed": true,
          "internalType": "address",
          "name": "operator",
          "type": "address"
        },
        {
          "indexed": false,
          "internalType": "uint256",
          "name": "requested",
          "type": "uint256"
        },
        {
          "indexed": false,
          "internalType": "uint256",
          "name": "assigned",
          "type": "uint256"
        }
      ],
      "name": "RoleUpdated",
      "type": "event"
    },
    {
      "anonymous": false,
      "inputs": [
        {
          "indexed": true,
          "internalType": "address",
          "name": "depositToken",
          "type": "address"
        },
        {
          "indexed": true,
          "internalType": "address",
          "name": "depositOwner",
          "type": "address"
        },
        {
          "indexed": false,
          "internalType": "uint160",
          "name": "depositAmount",
          "type": "uint160"
        },
        {
          "indexed": false,
          "internalType": "uint32",
          "name": "depositDuration",
          "type": "uint32"
        },
        {
          "components": [
            {
              "internalType": "uint160",
              "name": "amountLocked",
              "type": "uint160"
            },
            {
              "internalType": "uint32",
              "name": "maturesOn",
              "type": "uint32"
            },
            {
              "internalType": "uint32",
              "name": "lastUpdatedOn",
              "type": "uint32"
            },
            {
              "internalType": "uint32",
              "name": "createdOn",
              "type": "uint32"
            }
          ],
          "indexed": false,
          "internalType": "struct ERC1363StakingTrackerV1.UserAccount",
          "name": "account",
          "type": "tuple"
        }
      ],
      "name": "TokenDeposited",
      "type": "event"
    },
    {
      "anonymous": false,
      "inputs": [
        {
          "indexed": true,
          "internalType": "address",
          "name": "depositToken",
          "type": "address"
        },
        {
          "indexed": true,
          "internalType": "address",
          "name": "depositOwner",
          "type": "address"
        },
        {
          "indexed": true,
          "internalType": "address",
          "name": "to",
          "type": "address"
        },
        {
          "components": [
            {
              "internalType": "uint160",
              "name": "amountLocked",
              "type": "uint160"
            },
            {
              "internalType": "uint32",
              "name": "maturesOn",
              "type": "uint32"
            },
            {
              "internalType": "uint32",
              "name": "lastUpdatedOn",
              "type": "uint32"
            },
            {
              "internalType": "uint32",
              "name": "createdOn",
              "type": "uint32"
            }
          ],
          "indexed": false,
          "internalType": "struct ERC1363StakingTrackerV1.UserAccount",
          "name": "account",
          "type": "tuple"
        }
      ],
      "name": "TokenWithdrawn",
      "type": "event"
    },
    {
      "anonymous": false,
      "inputs": [
        {
          "indexed": true,
          "internalType": "address",
          "name": "implementation",
          "type": "address"
        }
      ],
      "name": "Upgraded",
      "type": "event"
    },
    {
      "inputs": [],
      "name": "FEATURE_LOCKING_DISABLED",
      "outputs": [
        {
          "internalType": "uint32",
          "name": "",
          "type": "uint32"
        }
      ],
      "stateMutability": "view",
      "type": "function"
    },
    {
      "inputs": [],
      "name": "ROLE_ACCESS_MANAGER",
      "outputs": [
        {
          "internalType": "uint256",
          "name": "",
          "type": "uint256"
        }
      ],
      "stateMutability": "view",
      "type": "function"
    },
    {
      "inputs": [],
      "name": "ROLE_DEPOSIT_SETTINGS_MANAGER",
      "outputs": [
        {
          "internalType": "uint32",
          "name": "",
          "type": "uint32"
        }
      ],
      "stateMutability": "view",
      "type": "function"
    },
    {
      "inputs": [],
      "name": "ROLE_RESCUE_MANAGER",
      "outputs": [
        {
          "internalType": "uint32",
          "name": "",
          "type": "uint32"
        }
      ],
      "stateMutability": "view",
      "type": "function"
    },
    {
      "inputs": [],
      "name": "ROLE_UPGRADE_MANAGER",
      "outputs": [
        {
          "internalType": "uint256",
          "name": "",
          "type": "uint256"
        }
      ],
      "stateMutability": "view",
      "type": "function"
    },
    {
      "inputs": [
        {
          "internalType": "address",
          "name": "depositToken",
          "type": "address"
        }
      ],
      "name": "deleteDepositSettings",
      "outputs": [],
      "stateMutability": "nonpayable",
      "type": "function"
    },
    {
      "inputs": [
        {
          "internalType": "address",
          "name": "depositToken",
          "type": "address"
        },
        {
          "internalType": "uint160",
          "name": "depositAmount",
          "type": "uint160"
        }
      ],
      "name": "deposit",
      "outputs": [],
      "stateMutability": "nonpayable",
      "type": "function"
    },
    {
      "inputs": [],
      "name": "features",
      "outputs": [
        {
          "internalType": "uint256",
          "name": "",
          "type": "uint256"
        }
      ],
      "stateMutability": "view",
      "type": "function"
    },
    {
      "inputs": [
        {
          "internalType": "address",
          "name": "depositToken",
          "type": "address"
        }
      ],
      "name": "getDepositSettings",
      "outputs": [
        {
          "internalType": "uint32",
          "name": "duration",
          "type": "uint32"
        }
      ],
      "stateMutability": "view",
      "type": "function"
    },
    {
      "inputs": [],
      "name": "getImplementation",
      "outputs": [
        {
          "internalType": "address",
          "name": "",
          "type": "address"
        }
      ],
      "stateMutability": "view",
      "type": "function"
    },
    {
      "inputs": [
        {
          "internalType": "address",
          "name": "operator",
          "type": "address"
        }
      ],
      "name": "getRole",
      "outputs": [
        {
          "internalType": "uint256",
          "name": "",
          "type": "uint256"
        }
      ],
      "stateMutability": "view",
      "type": "function"
    },
    {
      "inputs": [
        {
          "internalType": "address",
          "name": "depositToken",
          "type": "address"
        },
        {
          "internalType": "address",
          "name": "accountAddress",
          "type": "address"
        }
      ],
      "name": "getUserAccount",
      "outputs": [
        {
          "components": [
            {
              "internalType": "uint160",
              "name": "amountLocked",
              "type": "uint160"
            },
            {
              "internalType": "uint32",
              "name": "maturesOn",
              "type": "uint32"
            },
            {
              "internalType": "uint32",
              "name": "lastUpdatedOn",
              "type": "uint32"
            },
            {
              "internalType": "uint32",
              "name": "createdOn",
              "type": "uint32"
            }
          ],
          "internalType": "struct ERC1363StakingTrackerV1.UserAccount",
          "name": "account",
          "type": "tuple"
        }
      ],
      "stateMutability": "view",
      "type": "function"
    },
    {
      "inputs": [
        {
          "internalType": "uint256",
          "name": "required",
          "type": "uint256"
        }
      ],
      "name": "isFeatureEnabled",
      "outputs": [
        {
          "internalType": "bool",
          "name": "",
          "type": "bool"
        }
      ],
      "stateMutability": "view",
      "type": "function"
    },
    {
      "inputs": [
        {
          "internalType": "address",
          "name": "operator",
          "type": "address"
        },
        {
          "internalType": "uint256",
          "name": "required",
          "type": "uint256"
        }
      ],
      "name": "isOperatorInRole",
      "outputs": [
        {
          "internalType": "bool",
          "name": "",
          "type": "bool"
        }
      ],
      "stateMutability": "view",
      "type": "function"
    },
    {
      "inputs": [
        {
          "internalType": "uint256",
          "name": "required",
          "type": "uint256"
        }
      ],
      "name": "isSenderInRole",
      "outputs": [
        {
          "internalType": "bool",
          "name": "",
          "type": "bool"
        }
      ],
      "stateMutability": "view",
      "type": "function"
    },
    {
      "inputs": [],
      "name": "now32",
      "outputs": [
        {
          "internalType": "uint32",
          "name": "",
          "type": "uint32"
        }
      ],
      "stateMutability": "view",
      "type": "function"
    },
    {
      "inputs": [
        {
          "internalType": "address",
          "name": "",
          "type": "address"
        },
        {
          "internalType": "address",
          "name": "from",
          "type": "address"
        },
        {
          "internalType": "uint256",
          "name": "value",
          "type": "uint256"
        },
        {
          "internalType": "bytes",
          "name": "data",
          "type": "bytes"
        }
      ],
      "name": "onTransferReceived",
      "outputs": [
        {
          "internalType": "bytes4",
          "name": "",
          "type": "bytes4"
        }
      ],
      "stateMutability": "nonpayable",
      "type": "function"
    },
    {
      "inputs": [
        {
          "internalType": "address",
          "name": "tokenAddress",
          "type": "address"
        },
        {
          "internalType": "uint32",
          "name": "depositDuration",
          "type": "uint32"
        }
      ],
      "name": "postConstruct",
      "outputs": [],
      "stateMutability": "nonpayable",
      "type": "function"
    },
    {
      "inputs": [
        {
          "internalType": "address",
          "name": "token",
          "type": "address"
        },
        {
          "internalType": "address",
          "name": "to",
          "type": "address"
        },
        {
          "internalType": "uint256",
          "name": "value",
          "type": "uint256"
        }
      ],
      "name": "rescueErc20",
      "outputs": [],
      "stateMutability": "nonpayable",
      "type": "function"
    },
    {
      "inputs": [
        {
          "internalType": "address",
          "name": "token",
          "type": "address"
        },
        {
          "internalType": "address",
          "name": "to",
          "type": "address"
        },
        {
          "internalType": "uint256",
          "name": "tokenId",
          "type": "uint256"
        }
      ],
      "name": "rescueErc721",
      "outputs": [],
      "stateMutability": "nonpayable",
      "type": "function"
    },
    {
      "inputs": [
        {
          "internalType": "address",
          "name": "depositToken",
          "type": "address"
        },
        {
          "internalType": "uint32",
          "name": "depositDuration",
          "type": "uint32"
        }
      ],
      "name": "updateDepositSettings",
      "outputs": [],
      "stateMutability": "nonpayable",
      "type": "function"
    },
    {
      "inputs": [
        {
          "internalType": "uint256",
          "name": "_mask",
          "type": "uint256"
        }
      ],
      "name": "updateFeatures",
      "outputs": [],
      "stateMutability": "nonpayable",
      "type": "function"
    },
    {
      "inputs": [
        {
          "internalType": "address",
          "name": "operator",
          "type": "address"
        },
        {
          "internalType": "uint256",
          "name": "role",
          "type": "uint256"
        }
      ],
      "name": "updateRole",
      "outputs": [],
      "stateMutability": "nonpayable",
      "type": "function"
    },
    {
      "inputs": [
        {
          "internalType": "address",
          "name": "newImplementation",
          "type": "address"
        }
      ],
      "name": "upgradeTo",
      "outputs": [],
      "stateMutability": "nonpayable",
      "type": "function"
    },
    {
      "inputs": [
        {
          "internalType": "address",
          "name": "newImplementation",
          "type": "address"
        },
        {
          "internalType": "bytes",
          "name": "data",
          "type": "bytes"
        }
      ],
      "name": "upgradeToAndCall",
      "outputs": [],
      "stateMutability": "payable",
      "type": "function"
    },
    {
      "inputs": [
        {
          "internalType": "address",
          "name": "depositToken",
          "type": "address"
        }
      ],
      "name": "withdraw",
      "outputs": [],
      "stateMutability": "nonpayable",
      "type": "function"
    },
    {
      "inputs": [
        {
          "internalType": "address",
          "name": "to",
          "type": "address"
        },
        {
          "internalType": "address",
          "name": "depositToken",
          "type": "address"
        }
      ],
      "name": "withdrawTo",
      "outputs": [],
      "stateMutability": "nonpayable",
      "type": "function"
    }
  ],
  "bytecode": "0x60a06040523060805234801561001457600080fd5b50600054610100900460ff166100305760005460ff1615610034565b303b155b61009b5760405162461bcd60e51b815260206004820152602e60248201527f496e697469616c697a61626c653a20636f6e747261637420697320616c72656160448201526d191e481a5b9a5d1a585b1a5e995960921b606482015260840160405180910390fd5b600054610100900460ff161580156100bd576000805461ffff19166101011790555b80156100cf576000805461ff00191690555b50608051612026610100600039600081816107c50152818161080501528181610901015261094101526120266000f3fe60806040526004361061019c5760003560e01c806388a7ca5c116100ec578063c688d6931161008a578063d64da20311610064578063d64da203146104dc578063e60999ab146104f3578063f405b0cc14610506578063fcc2c0781461051b57600080fd5b8063c688d6931461046f578063ccf1a4b21461048f578063d5bb7f67146104bc57600080fd5b8063aaf10f42116100c6578063aaf10f42146103f2578063ae5b102e1461041f578063ae60bda41461043f578063ae682e2e1461045757600080fd5b806388a7ca5c146103795780639bc2b970146103b2578063a3611af8146103d257600080fd5b8063442767331161015957806351cff8d91161013357806351cff8d9146102e95780636dce4ab014610309578063725f36261461032957806374e27fa31461035957600080fd5b806344276733146102805780634b2afb7d146102b65780634f1ef286146102d657600080fd5b806303fde255146101a157806316ce9f0c146101c3578063243feb99146101e35780632b521416146102035780632d17f8bc146102345780633659cfe614610260575b600080fd5b3480156101ad57600080fd5b506101c16101bc366004611ad3565b61053b565b005b3480156101cf57600080fd5b506101c16101de366004611b0c565b610564565b3480156101ef57600080fd5b506101c16101fe366004611b0c565b610658565b34801561020f57600080fd5b50306000908152600160205260409020545b6040519081526020015b60405180910390f35b34801561024057600080fd5b5061024b6201000081565b60405163ffffffff909116815260200161022b565b34801561026c57600080fd5b506101c161027b366004611b4d565b6107bb565b34801561028c57600080fd5b5061022161029b366004611b4d565b6001600160a01b031660009081526001602052604090205490565b3480156102c257600080fd5b506101c16102d1366004611b4d565b610883565b6101c16102e4366004611c0d565b6108f7565b3480156102f557600080fd5b506101c1610304366004611b4d565b6109ac565b34801561031557600080fd5b506101c1610324366004611ad3565b6109b2565b34801561033557600080fd5b50610349610344366004611c5d565b610bb4565b604051901515815260200161022b565b34801561036557600080fd5b506101c1610374366004611c76565b610bd6565b34801561038557600080fd5b50610399610394366004611cad565b610c08565b6040516001600160e01b0319909116815260200161022b565b3480156103be57600080fd5b5061024b6103cd366004611b4d565b610d2b565b3480156103de57600080fd5b506101c16103ed366004611c76565b610d97565b3480156103fe57600080fd5b50610407610ed1565b6040516001600160a01b03909116815260200161022b565b34801561042b57600080fd5b506101c161043a366004611d19565b610edb565b34801561044b57600080fd5b50610221600160fe1b81565b34801561046357600080fd5b50610221600160ff1b81565b34801561047b57600080fd5b5061034961048a366004611d19565b610f5d565b34801561049b57600080fd5b506104af6104aa366004611ad3565b610f86565b60405161022b9190611d7f565b3480156104c857600080fd5b506101c16104d7366004611c5d565b611063565b3480156104e857600080fd5b5061024b6202000081565b3480156104ff57600080fd5b504261024b565b34801561051257600080fd5b5061024b600181565b34801561052757600080fd5b50610349610536366004611c5d565b61106d565b6105556001600160a01b0383811690339030908516611079565b6105608233836110e4565b5050565b6105706201000061106d565b6105955760405162461bcd60e51b815260040161058c90611d8d565b60405180910390fd5b6001600160a01b038316600090815260996020526040902054156105eb5760405162461bcd60e51b815260206004820152600d60248201526c34b73b30b634b2103a37b5b2b760991b604482015260640161058c565b6040516323b872dd60e01b81523060048201526001600160a01b038381166024830152604482018390528416906323b872dd90606401600060405180830381600087803b15801561063b57600080fd5b505af115801561064f573d6000803e3d6000fd5b50505050505050565b6106646201000061106d565b6106805760405162461bcd60e51b815260040161058c90611d8d565b6001600160a01b038316600081815260996020526040908190205490516370a0823160e01b81523060048201528392906370a0823190602401602060405180830381865afa1580156106d6573d6000803e3d6000fd5b505050506040513d601f19601f820116820180604052508101906106fa9190611db4565b6107049190611de3565b101561073d5760405162461bcd60e51b81526020600482015260086024820152670e8dede40daeac6d60c31b604482015260640161058c565b60405163a9059cbb60e01b81526001600160a01b0383811660048301526024820183905284169063a9059cbb906044016020604051808303816000875af115801561078c573d6000803e3d6000fd5b505050506040513d601f19601f820116820180604052508101906107b09190611df6565b50505050565b905090565b6001600160a01b037f00000000000000000000000000000000000000000000000000000000000000001630036108035760405162461bcd60e51b815260040161058c90611e18565b7f00000000000000000000000000000000000000000000000000000000000000006001600160a01b031661083561135c565b6001600160a01b03161461085b5760405162461bcd60e51b815260040161058c90611e64565b6108648161138a565b60408051600080825260208201909252610880918391906113b3565b50565b61088f6202000061106d565b6108ab5760405162461bcd60e51b815260040161058c90611d8d565b6001600160a01b038116600081815260986020526040808220805463ffffffff19169055517ff35b6543585c8a12f7082e0fc01e9f3eae4322064c7547b9bd97201486fec03f9190a250565b6001600160a01b037f000000000000000000000000000000000000000000000000000000000000000016300361093f5760405162461bcd60e51b815260040161058c90611e18565b7f00000000000000000000000000000000000000000000000000000000000000006001600160a01b031661097161135c565b6001600160a01b0316146109975760405162461bcd60e51b815260040161058c90611e64565b6109a08261138a565b610560828260016113b3565b61088033825b6001600160a01b0382166109d85760405162461bcd60e51b815260040161058c90611eb0565b60006109e482336114fe565b6000818152609760209081526040808320815160808101835290546001600160a01b038116825263ffffffff600160a01b8204811694830194909452600160c01b8104841692820192909252600160e01b90910490911660608201819052929350919003610a8c5760405162461bcd60e51b81526020600482015260156024820152741858d8dbdd5b9d08191bd95cdb89dd08195e1a5cdd605a1b604482015260640161058c565b4263ffffffff16816020015163ffffffff16111580610ab05750610ab06001610bb4565b610afc5760405162461bcd60e51b815260206004820181905260248201527f6c6f636b2d757020706572696f64206469646e27742079657420657870697265604482015260640161058c565b600082815260976020908152604080832083905583516001600160a01b03878116855260999093529083208054919092169290610b3a908490611de3565b90915550508051610b59906001600160a01b0385811691879116611548565b836001600160a01b0316336001600160a01b0316846001600160a01b03167f43f48baced8c8f1d748cc1ac8ed7ed56105c833eec2b7ddef9aec537d9593d1284604051610ba69190611d7f565b60405180910390a450505050565b30600090815260016020526040812054610bd0905b8316831490565b92915050565b610be26202000061106d565b610bfe5760405162461bcd60e51b815260040161058c90611d8d565b6105608282611578565b60008151600414610c515760405162461bcd60e51b81526020600482015260136024820152720d2dcecc2d8d2c840c8c2e8c240d8cadccee8d606b1b604482015260640161058c565b6001600160a01b03831115610c9b5760405162461bcd60e51b815260206004820152601060248201526f75696e74313630206f766572666c6f7760801b604482015260640161058c565b60208201516001600160e01b03198116630d0e30db60e41b14610cf35760405162461bcd60e51b815260206004820152601060248201526f3ab735b737bbb710333ab731ba34b7b760811b604482015260640161058c565b610cfe3386866110e4565b7f88a7ca5c75456956db1e96e88ee87aca8bdad85895835c2dc76fcc96396569cf9150505b949350505050565b6001600160a01b03811660009081526098602052604081205463ffffffff1690819003610d925760405162461bcd60e51b81526020600482015260156024820152743ab735b737bbb7103232b837b9b4ba103a37b5b2b760591b604482015260640161058c565b919050565b600054610100900460ff16610db25760005460ff1615610db6565b303b155b610e195760405162461bcd60e51b815260206004820152602e60248201527f496e697469616c697a61626c653a20636f6e747261637420697320616c72656160448201526d191e481a5b9a5d1a585b1a5e995960921b606482015260840161058c565b600054610100900460ff16158015610e3b576000805461ffff19166101011790555b6001600160a01b038316610e615760405162461bcd60e51b815260040161058c90611eb0565b8163ffffffff16600003610ea75760405162461bcd60e51b815260206004820152600d60248201526c3d32b93790323ab930ba34b7b760991b604482015260640161058c565b610eb18383611578565b610eba336115de565b8015610ecc576000805461ff00191690555b505050565b60006107b661135c565b610ee8600160ff1b61106d565b610f045760405162461bcd60e51b815260040161058c90611d8d565b6105608282610f5833610f2c876001600160a01b031660009081526001602052604090205490565b866001600160a01b03929092166000908152600160205260409020546000198084188216189216171690565b611652565b6001600160a01b038216600090815260016020526040812054610f7f90610bc9565b9392505050565b60408051608081018252600080825260208201819052918101829052606081019190915260976000610fb885856114fe565b815260208082019290925260409081016000908120825160808101845290546001600160a01b038116825263ffffffff600160a01b8204811695830195909552600160c01b8104851693820193909352600160e01b909204909216606082018190529092509003610bd05760405162461bcd60e51b81526020600482015260156024820152741858d8dbdd5b9d08191bd95cdb89dd08195e1a5cdd605a1b604482015260640161058c565b6108803082610edb565b6000610bd03383610f5d565b6040516001600160a01b03808516602483015283166044820152606481018290526107b09085906323b872dd60e01b906084015b60408051601f198184030181529190526020810180516001600160e01b03166001600160e01b0319909316929092179091526116ac565b6001600160a01b03821661110a5760405162461bcd60e51b815260040161058c90611eb0565b6000816001600160a01b0316116111515760405162461bcd60e51b815260206004820152600b60248201526a1e995c9bc8185b5bdd5b9d60aa1b604482015260640161058c565b600061115c84610d2b565b9050600061116a85856114fe565b6000818152609760209081526040808320815160808101835290546001600160a01b038116825263ffffffff600160a01b8204811694830194909452600160c01b8104841692820192909252600160e01b90910490911660608201819052929350919003611225576040518060800160405280856001600160a01b03168152602001846111f44290565b6111fe9190611ed6565b63ffffffff1681526020014263ffffffff1681526020014263ffffffff1690529050611266565b4263ffffffff166040820152824261123d9190611ed6565b63ffffffff166020820152805184908290611259908390611efa565b6001600160a01b03169052505b600082815260976020908152604080832084518154868501518785015160608901516001600160a01b039485166001600160c01b031990941693909317600160a01b63ffffffff93841602176001600160c01b0316600160c01b918316919091026001600160e01b031617600160e01b91909216021790915589811684526099909252822080549187169290916112fe908490611f1a565b92505081905550846001600160a01b0316866001600160a01b03167ff223d9f62a25e1cc7de0f82802962e811a982b702699cc85222bf17c0422163b86868560405161134c93929190611f2d565b60405180910390a3505050505050565b7f360894a13ba1a3210667c828492db98dca3e2076cc3735a920a3ca505d382bbc546001600160a01b031690565b611397600160fe1b61106d565b6108805760405162461bcd60e51b815260040161058c90611d8d565b60006113bd61135c565b90506113c88461177e565b6000835111806113d55750815b156113e6576113e48484611823565b505b7f4910fdfa16fed3260ed0e7147f7cc6da11a60208b5b9406d12a635614ffd9143805460ff166114f757805460ff191660011781556040516001600160a01b038316602482015261146590869060440160408051601f198184030181529190526020810180516001600160e01b0316631b2ce7f360e11b179052611823565b50805460ff1916815561147661135c565b6001600160a01b0316826001600160a01b0316146114ee5760405162461bcd60e51b815260206004820152602f60248201527f45524331393637557067726164653a207570677261646520627265616b73206660448201526e75727468657220757067726164657360881b606482015260840161058c565b6114f78561190e565b5050505050565b6040516bffffffffffffffffffffffff19606084811b8216602084015283901b16603482015260009060480160405160208183030381529060405280519060200120905092915050565b6040516001600160a01b038316602482015260448101829052610ecc90849063a9059cbb60e01b906064016110ad565b6001600160a01b038216600081815260986020908152604091829020805463ffffffff191663ffffffff861690811790915591519182527fff1c363a5a4ac499b76e21859a5ec6e48ea0b64b39acff822ee5d0ecaa6c3662910160405180910390a25050565b600054610100900460ff166116495760405162461bcd60e51b815260206004820152602b60248201527f496e697469616c697a61626c653a20636f6e7472616374206973206e6f74206960448201526a6e697469616c697a696e6760a81b606482015260840161058c565b61088081600019805b6001600160a01b03831660008181526001602090815260409182902084905581518581529081018490527fe9be537308880e0f56b7d7cfd7abf85f14c4934486d138f848b92a0cbaf659b4910160405180910390a2505050565b6000611701826040518060400160405280602081526020017f5361666545524332303a206c6f772d6c6576656c2063616c6c206661696c6564815250856001600160a01b031661194e9092919063ffffffff16565b805190915015610ecc578080602001905181019061171f9190611df6565b610ecc5760405162461bcd60e51b815260206004820152602a60248201527f5361666545524332303a204552433230206f7065726174696f6e20646964206e6044820152691bdd081cdd58d8d9595960b21b606482015260840161058c565b803b6117e25760405162461bcd60e51b815260206004820152602d60248201527f455243313936373a206e657720696d706c656d656e746174696f6e206973206e60448201526c1bdd08184818dbdb9d1c9858dd609a1b606482015260840161058c565b7f360894a13ba1a3210667c828492db98dca3e2076cc3735a920a3ca505d382bbc80546001600160a01b0319166001600160a01b0392909216919091179055565b6060823b6118825760405162461bcd60e51b815260206004820152602660248201527f416464726573733a2064656c65676174652063616c6c20746f206e6f6e2d636f6044820152651b9d1c9858dd60d21b606482015260840161058c565b600080846001600160a01b03168460405161189d9190611f7a565b600060405180830381855af49150503d80600081146118d8576040519150601f19603f3d011682016040523d82523d6000602084013e6118dd565b606091505b50915091506119058282604051806060016040528060278152602001611fca6027913961195d565b95945050505050565b6119178161177e565b6040516001600160a01b038216907fbc7cd75a20ee27fd9adebab32041f755214dbc6bffa90cc0225b39da2e5c2d3b90600090a250565b6060610d238484600085611996565b6060831561196c575081610f7f565b82511561197c5782518084602001fd5b8160405162461bcd60e51b815260040161058c9190611f96565b6060824710156119f75760405162461bcd60e51b815260206004820152602660248201527f416464726573733a20696e73756666696369656e742062616c616e636520666f6044820152651c8818d85b1b60d21b606482015260840161058c565b843b611a455760405162461bcd60e51b815260206004820152601d60248201527f416464726573733a2063616c6c20746f206e6f6e2d636f6e7472616374000000604482015260640161058c565b600080866001600160a01b03168587604051611a619190611f7a565b60006040518083038185875af1925050503d8060008114611a9e576040519150601f19603f3d011682016040523d82523d6000602084013e611aa3565b606091505b5091509150611ab382828661195d565b979650505050505050565b6001600160a01b038116811461088057600080fd5b60008060408385031215611ae657600080fd5b8235611af181611abe565b91506020830135611b0181611abe565b809150509250929050565b600080600060608486031215611b2157600080fd5b8335611b2c81611abe565b92506020840135611b3c81611abe565b929592945050506040919091013590565b600060208284031215611b5f57600080fd5b8135610f7f81611abe565b634e487b7160e01b600052604160045260246000fd5b600082601f830112611b9157600080fd5b813567ffffffffffffffff80821115611bac57611bac611b6a565b604051601f8301601f19908116603f01168101908282118183101715611bd457611bd4611b6a565b81604052838152866020858801011115611bed57600080fd5b836020870160208301376000602085830101528094505050505092915050565b60008060408385031215611c2057600080fd5b8235611c2b81611abe565b9150602083013567ffffffffffffffff811115611c4757600080fd5b611c5385828601611b80565b9150509250929050565b600060208284031215611c6f57600080fd5b5035919050565b60008060408385031215611c8957600080fd5b8235611c9481611abe565b9150602083013563ffffffff81168114611b0157600080fd5b60008060008060808587031215611cc357600080fd5b8435611cce81611abe565b93506020850135611cde81611abe565b925060408501359150606085013567ffffffffffffffff811115611d0157600080fd5b611d0d87828801611b80565b91505092959194509250565b60008060408385031215611d2c57600080fd5b8235611d3781611abe565b946020939093013593505050565b80516001600160a01b0316825260208082015163ffffffff9081169184019190915260408083015182169084015260609182015116910152565b60808101610bd08284611d45565b6020808252600d908201526c1858d8d95cdcc819195b9a5959609a1b604082015260600190565b600060208284031215611dc657600080fd5b5051919050565b634e487b7160e01b600052601160045260246000fd5b81810381811115610bd057610bd0611dcd565b600060208284031215611e0857600080fd5b81518015158114610f7f57600080fd5b6020808252602c908201527f46756e6374696f6e206d7573742062652063616c6c6564207468726f7567682060408201526b19195b1959d85d1958d85b1b60a21b606082015260800190565b6020808252602c908201527f46756e6374696f6e206d7573742062652063616c6c6564207468726f7567682060408201526b6163746976652070726f787960a01b606082015260800190565b6020808252600c908201526b7a65726f206164647265737360a01b604082015260600190565b63ffffffff818116838216019080821115611ef357611ef3611dcd565b5092915050565b6001600160a01b03818116838216019080821115611ef357611ef3611dcd565b80820180821115610bd057610bd0611dcd565b6001600160a01b038416815263ffffffff8316602082015260c08101610d236040830184611d45565b60005b83811015611f71578181015183820152602001611f59565b50506000910152565b60008251611f8c818460208701611f56565b9190910192915050565b6020815260008251806020840152611fb5816040850160208701611f56565b601f01601f1916919091016040019291505056fe416464726573733a206c6f772d6c6576656c2064656c65676174652063616c6c206661696c6564a26469706673582212207eaff84ce2ae818cdc7c555972010921bb918cd320f4e2d9c1c2d9fe2f757c3164736f6c63430008140033",
  "linkReferences": {},
  "deployedLinkReferences": {}
}