{
  "_format": "hh-sol-artifact-1",
  "contractName": "StakingImplV2",
  "sourceName": "contracts/v2/StakingImplV2.sol",
  "abi": [
    {
      "inputs": [],
      "stateMutability": "nonpayable",
      "type": "constructor"
    },
    {
      "anonymous": false,
      "inputs": [
        {
          "indexed": false,
          "internalType": "address",
          "name": "previousAdmin",
          "type": "address"
        },
        {
          "indexed": false,
          "internalType": "address",
          "name": "newAdmin",
          "type": "address"
        }
      ],
      "name": "AdminChanged",
      "type": "event"
    },
    {
      "anonymous": false,
      "inputs": [
        {
          "indexed": true,
          "internalType": "address",
          "name": "beacon",
          "type": "address"
        }
      ],
      "name": "BeaconUpgraded",
      "type": "event"
    },
    {
      "anonymous": false,
      "inputs": [
        {
          "indexed": true,
          "internalType": "address",
          "name": "previousOwner",
          "type": "address"
        },
        {
          "indexed": true,
          "internalType": "address",
          "name": "newOwner",
          "type": "address"
        }
      ],
      "name": "OwnershipTransferred",
      "type": "event"
    },
    {
      "anonymous": false,
      "inputs": [
        {
          "indexed": false,
          "internalType": "address",
          "name": "account",
          "type": "address"
        }
      ],
      "name": "Paused",
      "type": "event"
    },
    {
      "anonymous": false,
      "inputs": [
        {
          "indexed": true,
          "internalType": "address",
          "name": "sender",
          "type": "address"
        },
        {
          "indexed": false,
          "internalType": "address",
          "name": "token",
          "type": "address"
        },
        {
          "indexed": false,
          "internalType": "uint256",
          "name": "amount",
          "type": "uint256"
        }
      ],
      "name": "Recovered",
      "type": "event"
    },
    {
      "anonymous": false,
      "inputs": [
        {
          "indexed": true,
          "internalType": "address",
          "name": "user",
          "type": "address"
        },
        {
          "indexed": false,
          "internalType": "uint256",
          "name": "amount",
          "type": "uint256"
        },
        {
          "indexed": false,
          "internalType": "uint256",
          "name": "time",
          "type": "uint256"
        }
      ],
      "name": "Staked",
      "type": "event"
    },
    {
      "anonymous": false,
      "inputs": [
        {
          "indexed": true,
          "internalType": "address",
          "name": "sender",
          "type": "address"
        },
        {
          "indexed": false,
          "internalType": "uint256",
          "name": "unlockTime",
          "type": "uint256"
        }
      ],
      "name": "UnlockTimeUpdated",
      "type": "event"
    },
    {
      "anonymous": false,
      "inputs": [
        {
          "indexed": false,
          "internalType": "address",
          "name": "account",
          "type": "address"
        }
      ],
      "name": "Unpaused",
      "type": "event"
    },
    {
      "anonymous": false,
      "inputs": [
        {
          "indexed": true,
          "internalType": "address",
          "name": "implementation",
          "type": "address"
        }
      ],
      "name": "Upgraded",
      "type": "event"
    },
    {
      "anonymous": false,
      "inputs": [
        {
          "indexed": true,
          "internalType": "address",
          "name": "user",
          "type": "address"
        },
        {
          "indexed": false,
          "internalType": "uint256",
          "name": "amount",
          "type": "uint256"
        },
        {
          "indexed": false,
          "internalType": "uint256",
          "name": "time",
          "type": "uint256"
        }
      ],
      "name": "Withdrawn",
      "type": "event"
    },
    {
      "inputs": [
        {
          "internalType": "address",
          "name": "account",
          "type": "address"
        }
      ],
      "name": "balanceOf",
      "outputs": [
        {
          "internalType": "uint256",
          "name": "",
          "type": "uint256"
        }
      ],
      "stateMutability": "view",
      "type": "function"
    },
    {
      "inputs": [],
      "name": "getUnlockTime",
      "outputs": [
        {
          "internalType": "uint256",
          "name": "",
          "type": "uint256"
        }
      ],
      "stateMutability": "view",
      "type": "function"
    },
    {
      "inputs": [],
      "name": "owner",
      "outputs": [
        {
          "internalType": "address",
          "name": "",
          "type": "address"
        }
      ],
      "stateMutability": "view",
      "type": "function"
    },
    {
      "inputs": [],
      "name": "pause",
      "outputs": [],
      "stateMutability": "nonpayable",
      "type": "function"
    },
    {
      "inputs": [],
      "name": "paused",
      "outputs": [
        {
          "internalType": "bool",
          "name": "",
          "type": "bool"
        }
      ],
      "stateMutability": "view",
      "type": "function"
    },
    {
      "inputs": [
        {
          "internalType": "contract IERC20Upgradeable",
          "name": "_token",
          "type": "address"
        },
        {
          "internalType": "uint256",
          "name": "_lockupDays",
          "type": "uint256"
        }
      ],
      "name": "postConstruct",
      "outputs": [],
      "stateMutability": "nonpayable",
      "type": "function"
    },
    {
      "inputs": [
        {
          "internalType": "contract IERC20Upgradeable",
          "name": "_token",
          "type": "address"
        },
        {
          "internalType": "uint256",
          "name": "tokenAmount",
          "type": "uint256"
        }
      ],
      "name": "recoverERC20",
      "outputs": [],
      "stateMutability": "nonpayable",
      "type": "function"
    },
    {
      "inputs": [],
      "name": "renounceOwnership",
      "outputs": [],
      "stateMutability": "nonpayable",
      "type": "function"
    },
    {
      "inputs": [
        {
          "internalType": "uint256",
          "name": "amount",
          "type": "uint256"
        }
      ],
      "name": "stake",
      "outputs": [],
      "stateMutability": "nonpayable",
      "type": "function"
    },
    {
      "inputs": [],
      "name": "token",
      "outputs": [
        {
          "internalType": "contract IERC20Upgradeable",
          "name": "",
          "type": "address"
        }
      ],
      "stateMutability": "view",
      "type": "function"
    },
    {
      "inputs": [],
      "name": "totalNoOfStakers",
      "outputs": [
        {
          "internalType": "uint256",
          "name": "",
          "type": "uint256"
        }
      ],
      "stateMutability": "view",
      "type": "function"
    },
    {
      "inputs": [],
      "name": "totalSupply",
      "outputs": [
        {
          "internalType": "uint256",
          "name": "",
          "type": "uint256"
        }
      ],
      "stateMutability": "view",
      "type": "function"
    },
    {
      "inputs": [
        {
          "internalType": "address",
          "name": "newOwner",
          "type": "address"
        }
      ],
      "name": "transferOwnership",
      "outputs": [],
      "stateMutability": "nonpayable",
      "type": "function"
    },
    {
      "inputs": [],
      "name": "unlockTime",
      "outputs": [
        {
          "internalType": "uint256",
          "name": "",
          "type": "uint256"
        }
      ],
      "stateMutability": "view",
      "type": "function"
    },
    {
      "inputs": [],
      "name": "unpause",
      "outputs": [],
      "stateMutability": "nonpayable",
      "type": "function"
    },
    {
      "inputs": [
        {
          "internalType": "uint256",
          "name": "_unlockTime",
          "type": "uint256"
        }
      ],
      "name": "updateUnlockTime",
      "outputs": [],
      "stateMutability": "nonpayable",
      "type": "function"
    },
    {
      "inputs": [
        {
          "internalType": "address",
          "name": "newImplementation",
          "type": "address"
        }
      ],
      "name": "upgradeTo",
      "outputs": [],
      "stateMutability": "nonpayable",
      "type": "function"
    },
    {
      "inputs": [
        {
          "internalType": "address",
          "name": "newImplementation",
          "type": "address"
        },
        {
          "internalType": "bytes",
          "name": "data",
          "type": "bytes"
        }
      ],
      "name": "upgradeToAndCall",
      "outputs": [],
      "stateMutability": "payable",
      "type": "function"
    },
    {
      "inputs": [
        {
          "internalType": "uint256",
          "name": "amount",
          "type": "uint256"
        }
      ],
      "name": "withdraw",
      "outputs": [],
      "stateMutability": "nonpayable",
      "type": "function"
    }
  ],
  "bytecode": "0x60a06040523060601b6080523480156200001857600080fd5b50600054610100900460ff16620000365760005460ff161562000040565b62000040620000e5565b620000a85760405162461bcd60e51b815260206004820152602e60248201527f496e697469616c697a61626c653a20636f6e747261637420697320616c72656160448201526d191e481a5b9a5d1a585b1a5e995960921b606482015260840160405180910390fd5b600054610100900460ff16158015620000cb576000805461ffff19166101011790555b8015620000de576000805461ff00191690555b5062000109565b6000620000fd306200010360201b62000c421760201c565b15905090565b3b151590565b60805160601c6118b66200013d600039600081816105040152818161054401528181610601015261064101526118b66000f3fe6080604052600436106101145760003560e01c8063715018a6116100a05780638f5dd49b116100645780638f5dd49b146102cc578063a694fc3a146102ec578063bb0353d81461030c578063f2fde38b14610322578063fc0c546a1461034257600080fd5b8063715018a6146102305780637a07a0bd146102455780638456cb59146102655780638980f11f1461027a5780638da5cb5b1461029a57600080fd5b80633f4ba83a116100e75780633f4ba83a1461019a5780634f1ef286146101af5780635c975abb146101c2578063602bc62b146101e557806370a08231146101fa57600080fd5b806318160ddd14610119578063251c1aa3146101425780632e1a7d4d146101585780633659cfe61461017a575b600080fd5b34801561012557600080fd5b5061012f60fc5481565b6040519081526020015b60405180910390f35b34801561014e57600080fd5b5061012f60fb5481565b34801561016457600080fd5b5061017861017336600461160c565b610362565b005b34801561018657600080fd5b506101786101953660046114e6565b6104f9565b3480156101a657600080fd5b506101786105c2565b6101786101bd366004611502565b6105f6565b3480156101ce57600080fd5b5060c95460ff166040519015158152602001610139565b3480156101f157600080fd5b5060fb5461012f565b34801561020657600080fd5b5061012f6102153660046114e6565b6001600160a01b0316600090815260ff602052604090205490565b34801561023c57600080fd5b506101786106b0565b34801561025157600080fd5b506101786102603660046115e1565b6106e4565b34801561027157600080fd5b50610178610881565b34801561028657600080fd5b506101786102953660046115e1565b6108b3565b3480156102a657600080fd5b506097546001600160a01b03165b6040516001600160a01b039091168152602001610139565b3480156102d857600080fd5b506101786102e736600461160c565b6109b3565b3480156102f857600080fd5b5061017861030736600461160c565b610a70565b34801561031857600080fd5b5061012f60fd5481565b34801561032e57600080fd5b5061017861033d3660046114e6565b610baa565b34801561034e57600080fd5b5060fe546102b4906001600160a01b031681565b600081116103ab5760405162461bcd60e51b8152602060048201526011602482015270063616e6e6f74207769746864726177203607c1b60448201526064015b60405180910390fd5b33600090815260ff60205260409020548111156103f95760405162461bcd60e51b815260206004820152600c60248201526b62616420776974686472617760a01b60448201526064016103a2565b60fb544210156104405760405162461bcd60e51b81526020600482015260126024820152711dda5d1a191c985dc81a5cc81b1bd8dad95960721b60448201526064016103a2565b33600090815260ff602052604090205461045a9082610c48565b33600090815260ff602052604090205560fc546104779082610c48565b60fc5533600090815260ff60205260409020546104a45760fd805490600061049e836117e6565b91905055505b60fe546104bb906001600160a01b03163383610c5b565b6040805182815242602082015233917f92ccf450a286a957af52509bc1c9939d1a6a481783e142e41e2499f0bb66ebc691015b60405180910390a250565b306001600160a01b037f00000000000000000000000000000000000000000000000000000000000000001614156105425760405162461bcd60e51b81526004016103a290611673565b7f00000000000000000000000000000000000000000000000000000000000000006001600160a01b0316610574610cbe565b6001600160a01b03161461059a5760405162461bcd60e51b81526004016103a2906116bf565b6105a381610cec565b604080516000808252602082019092526105bf91839190610d16565b50565b6097546001600160a01b031633146105ec5760405162461bcd60e51b81526004016103a29061170b565b6105f4610e61565b565b306001600160a01b037f000000000000000000000000000000000000000000000000000000000000000016141561063f5760405162461bcd60e51b81526004016103a290611673565b7f00000000000000000000000000000000000000000000000000000000000000006001600160a01b0316610671610cbe565b6001600160a01b0316146106975760405162461bcd60e51b81526004016103a2906116bf565b6106a082610cec565b6106ac82826001610d16565b5050565b6097546001600160a01b031633146106da5760405162461bcd60e51b81526004016103a29061170b565b6105f46000610ef4565b600054610100900460ff166106ff5760005460ff1615610703565b303b155b6107665760405162461bcd60e51b815260206004820152602e60248201527f496e697469616c697a61626c653a20636f6e747261637420697320616c72656160448201526d191e481a5b9a5d1a585b1a5e995960921b60648201526084016103a2565b600054610100900460ff16158015610788576000805461ffff19166101011790555b6001600160a01b0383166107de5760405162461bcd60e51b815260206004820152601860248201527f7374616b696e6720746f6b656e20697320696e76616c6964000000000000000060448201526064016103a2565b81158015906107f1575063014c3a008211155b6108325760405162461bcd60e51b8152602060048201526012602482015271696e76616c6964206c6f636b75704461797360701b60448201526064016103a2565b60fe80546001600160a01b0319166001600160a01b038516179055610857824261178b565b60fb55610862610f46565b61086a610f7d565b801561087c576000805461ff00191690555b505050565b6097546001600160a01b031633146108ab5760405162461bcd60e51b81526004016103a29061170b565b6105f4610fb0565b6097546001600160a01b031633146108dd5760405162461bcd60e51b81526004016103a29061170b565b60fe546001600160a01b03838116911614156109455760405162461bcd60e51b815260206004820152602160248201527f63616e6e6f7420776974686472617720746865207374616b696e6720746f6b656044820152603760f91b60648201526084016103a2565b61096b61095a6097546001600160a01b031690565b6001600160a01b0384169083610c5b565b604080516001600160a01b03841681526020810183905233917ffff3b3844276f57024e0b42afec1a37f75db36511e43819a4f2a63ab7862b648910160405180910390a25050565b6097546001600160a01b031633146109dd5760405162461bcd60e51b81526004016103a29061170b565b42811180156109f857506109f54263014c3a0061178b565b81105b610a395760405162461bcd60e51b8152602060048201526012602482015271696e76616c696420756e6c6f636b54696d6560701b60448201526064016103a2565b60fb81905560405181815233907f38b12ffde2c4d350300047190dfb23d4cb22f8934d49b4dede7b10775abebf5f906020016104ee565b60c95460ff1615610ab65760405162461bcd60e51b815260206004820152601060248201526f14185d5cd8589b194e881c185d5cd95960821b60448201526064016103a2565b60008111610af75760405162461bcd60e51b815260206004820152600e60248201526d063616e6e6f74207374616b6520360941b60448201526064016103a2565b60fe54610b0f906001600160a01b031633308461102b565b33600090815260ff6020526040902054610b395760fd8054906000610b33836117fd565b91905055505b33600090815260ff6020526040902054610b539082611069565b33600090815260ff602052604090205560fc54610b709082611069565b60fc556040805182815242602082015233917f1449c6dd7851abc30abf37f57715f492010519147cc2652fbc38202c18a6ee9091016104ee565b6097546001600160a01b03163314610bd45760405162461bcd60e51b81526004016103a29061170b565b6001600160a01b038116610c395760405162461bcd60e51b815260206004820152602660248201527f4f776e61626c653a206e6577206f776e657220697320746865207a65726f206160448201526564647265737360d01b60648201526084016103a2565b6105bf81610ef4565b3b151590565b6000610c5482846117a3565b9392505050565b6040516001600160a01b03831660248201526044810182905261087c90849063a9059cbb60e01b906064015b60408051601f198184030181529190526020810180516001600160e01b03166001600160e01b031990931692909217909152611075565b7f360894a13ba1a3210667c828492db98dca3e2076cc3735a920a3ca505d382bbc546001600160a01b031690565b6097546001600160a01b031633146105bf5760405162461bcd60e51b81526004016103a29061170b565b6000610d20610cbe565b9050610d2b84611147565b600083511180610d385750815b15610d4957610d4784846111ec565b505b7f4910fdfa16fed3260ed0e7147f7cc6da11a60208b5b9406d12a635614ffd9143805460ff16610e5a57805460ff191660011781556040516001600160a01b0383166024820152610dc890869060440160408051601f198184030181529190526020810180516001600160e01b0316631b2ce7f360e11b1790526111ec565b50805460ff19168155610dd9610cbe565b6001600160a01b0316826001600160a01b031614610e515760405162461bcd60e51b815260206004820152602f60248201527f45524331393637557067726164653a207570677261646520627265616b73206660448201526e75727468657220757067726164657360881b60648201526084016103a2565b610e5a856112d7565b5050505050565b60c95460ff16610eaa5760405162461bcd60e51b815260206004820152601460248201527314185d5cd8589b194e881b9bdd081c185d5cd95960621b60448201526064016103a2565b60c9805460ff191690557f5db9ee0a495bf2e6ff9c91a7834c1ba4fdd244a5e8aa4e537bd38aeae4b073aa335b6040516001600160a01b03909116815260200160405180910390a1565b609780546001600160a01b038381166001600160a01b0319831681179093556040519116919082907f8be0079c531659141344cd1fd0a4f28419497f9722a3daafe3b4186f6b6457e090600090a35050565b600054610100900460ff16610f6d5760405162461bcd60e51b81526004016103a290611740565b610f75611317565b6105f461133e565b600054610100900460ff16610fa45760405162461bcd60e51b81526004016103a290611740565b60c9805460ff19169055565b60c95460ff1615610ff65760405162461bcd60e51b815260206004820152601060248201526f14185d5cd8589b194e881c185d5cd95960821b60448201526064016103a2565b60c9805460ff191660011790557f62e78cea01bee320cd4e420270b5ea74000d11b0c9f74754ebdbfc544b05a258610ed73390565b6040516001600160a01b03808516602483015283166044820152606481018290526110639085906323b872dd60e01b90608401610c87565b50505050565b6000610c54828461178b565b60006110ca826040518060400160405280602081526020017f5361666545524332303a206c6f772d6c6576656c2063616c6c206661696c6564815250856001600160a01b031661136e9092919063ffffffff16565b80519091501561087c57808060200190518101906110e891906115c1565b61087c5760405162461bcd60e51b815260206004820152602a60248201527f5361666545524332303a204552433230206f7065726174696f6e20646964206e6044820152691bdd081cdd58d8d9595960b21b60648201526084016103a2565b803b6111ab5760405162461bcd60e51b815260206004820152602d60248201527f455243313936373a206e657720696d706c656d656e746174696f6e206973206e60448201526c1bdd08184818dbdb9d1c9858dd609a1b60648201526084016103a2565b7f360894a13ba1a3210667c828492db98dca3e2076cc3735a920a3ca505d382bbc80546001600160a01b0319166001600160a01b0392909216919091179055565b6060823b61124b5760405162461bcd60e51b815260206004820152602660248201527f416464726573733a2064656c65676174652063616c6c20746f206e6f6e2d636f6044820152651b9d1c9858dd60d21b60648201526084016103a2565b600080846001600160a01b0316846040516112669190611624565b600060405180830381855af49150503d80600081146112a1576040519150601f19603f3d011682016040523d82523d6000602084013e6112a6565b606091505b50915091506112ce828260405180606001604052806027815260200161185a60279139611385565b95945050505050565b6112e081611147565b6040516001600160a01b038216907fbc7cd75a20ee27fd9adebab32041f755214dbc6bffa90cc0225b39da2e5c2d3b90600090a250565b600054610100900460ff166105f45760405162461bcd60e51b81526004016103a290611740565b600054610100900460ff166113655760405162461bcd60e51b81526004016103a290611740565b6105f433610ef4565b606061137d84846000856113be565b949350505050565b60608315611394575081610c54565b8251156113a45782518084602001fd5b8160405162461bcd60e51b81526004016103a29190611640565b60608247101561141f5760405162461bcd60e51b815260206004820152602660248201527f416464726573733a20696e73756666696369656e742062616c616e636520666f6044820152651c8818d85b1b60d21b60648201526084016103a2565b843b61146d5760405162461bcd60e51b815260206004820152601d60248201527f416464726573733a2063616c6c20746f206e6f6e2d636f6e747261637400000060448201526064016103a2565b600080866001600160a01b031685876040516114899190611624565b60006040518083038185875af1925050503d80600081146114c6576040519150601f19603f3d011682016040523d82523d6000602084013e6114cb565b606091505b50915091506114db828286611385565b979650505050505050565b6000602082840312156114f7578081fd5b8135610c5481611844565b60008060408385031215611514578081fd5b823561151f81611844565b9150602083013567ffffffffffffffff8082111561153b578283fd5b818501915085601f83011261154e578283fd5b8135818111156115605761156061182e565b604051601f8201601f19908116603f011681019083821181831017156115885761158861182e565b816040528281528860208487010111156115a0578586fd5b82602086016020830137856020848301015280955050505050509250929050565b6000602082840312156115d2578081fd5b81518015158114610c54578182fd5b600080604083850312156115f3578182fd5b82356115fe81611844565b946020939093013593505050565b60006020828403121561161d578081fd5b5035919050565b600082516116368184602087016117ba565b9190910192915050565b602081526000825180602084015261165f8160408501602087016117ba565b601f01601f19169190910160400192915050565b6020808252602c908201527f46756e6374696f6e206d7573742062652063616c6c6564207468726f7567682060408201526b19195b1959d85d1958d85b1b60a21b606082015260800190565b6020808252602c908201527f46756e6374696f6e206d7573742062652063616c6c6564207468726f7567682060408201526b6163746976652070726f787960a01b606082015260800190565b6020808252818101527f4f776e61626c653a2063616c6c6572206973206e6f7420746865206f776e6572604082015260600190565b6020808252602b908201527f496e697469616c697a61626c653a20636f6e7472616374206973206e6f74206960408201526a6e697469616c697a696e6760a81b606082015260800190565b6000821982111561179e5761179e611818565b500190565b6000828210156117b5576117b5611818565b500390565b60005b838110156117d55781810151838201526020016117bd565b838111156110635750506000910152565b6000816117f5576117f5611818565b506000190190565b600060001982141561181157611811611818565b5060010190565b634e487b7160e01b600052601160045260246000fd5b634e487b7160e01b600052604160045260246000fd5b6001600160a01b03811681146105bf57600080fdfe416464726573733a206c6f772d6c6576656c2064656c65676174652063616c6c206661696c6564a2646970667358221220a4bfbff17f5d788f41315316fecb9b2c738e9cd6a5c8b9dcf705b3e4592e172664736f6c63430008040033",
  "linkReferences": {},
  "deployedLinkReferences": {}
}