{
  "_format": "hh-sol-artifact-1",
  "contractName": "HiveRegistryV1",
  "sourceName": "contracts/bonding_curves/HiveRegistryV1.sol",
  "abi": [
    {
      "anonymous": false,
      "inputs": [
        {
          "indexed": false,
          "internalType": "address",
          "name": "previousAdmin",
          "type": "address"
        },
        {
          "indexed": false,
          "internalType": "address",
          "name": "newAdmin",
          "type": "address"
        }
      ],
      "name": "AdminChanged",
      "type": "event"
    },
    {
      "anonymous": false,
      "inputs": [
        {
          "indexed": false,
          "internalType": "address",
          "name": "by",
          "type": "address"
        },
        {
          "indexed": true,
          "internalType": "address",
          "name": "tokenAddress",
          "type": "address"
        },
        {
          "indexed": true,
          "internalType": "uint256",
          "name": "tokenId",
          "type": "uint256"
        },
        {
          "indexed": true,
          "internalType": "uint16",
          "name": "hiveId",
          "type": "uint16"
        },
        {
          "indexed": false,
          "internalType": "uint16",
          "name": "category",
          "type": "uint16"
        },
        {
          "indexed": false,
          "internalType": "uint256",
          "name": "timestamp",
          "type": "uint256"
        }
      ],
      "name": "AssetLinked",
      "type": "event"
    },
    {
      "anonymous": false,
      "inputs": [
        {
          "indexed": false,
          "internalType": "address",
          "name": "by",
          "type": "address"
        },
        {
          "indexed": true,
          "internalType": "address",
          "name": "tokenAddress",
          "type": "address"
        },
        {
          "indexed": true,
          "internalType": "uint256",
          "name": "tokenId",
          "type": "uint256"
        },
        {
          "indexed": true,
          "internalType": "uint16",
          "name": "hiveId",
          "type": "uint16"
        },
        {
          "indexed": false,
          "internalType": "uint16",
          "name": "category",
          "type": "uint16"
        },
        {
          "indexed": false,
          "internalType": "uint256",
          "name": "timestamp",
          "type": "uint256"
        }
      ],
      "name": "AssetUnlinked",
      "type": "event"
    },
    {
      "anonymous": false,
      "inputs": [
        {
          "indexed": true,
          "internalType": "address",
          "name": "beacon",
          "type": "address"
        }
      ],
      "name": "BeaconUpgraded",
      "type": "event"
    },
    {
      "anonymous": false,
      "inputs": [
        {
          "indexed": true,
          "internalType": "address",
          "name": "by",
          "type": "address"
        },
        {
          "indexed": true,
          "internalType": "uint256",
          "name": "categoryIndex",
          "type": "uint256"
        },
        {
          "indexed": false,
          "internalType": "string",
          "name": "category",
          "type": "string"
        },
        {
          "indexed": false,
          "internalType": "address",
          "name": "allowedCollection",
          "type": "address"
        }
      ],
      "name": "CategoryAdded",
      "type": "event"
    },
    {
      "anonymous": false,
      "inputs": [
        {
          "indexed": true,
          "internalType": "address",
          "name": "by",
          "type": "address"
        },
        {
          "indexed": true,
          "internalType": "address",
          "name": "dptAddress",
          "type": "address"
        },
        {
          "indexed": true,
          "internalType": "uint256",
          "name": "dptId",
          "type": "uint256"
        },
        {
          "indexed": false,
          "internalType": "uint256",
          "name": "timestamp",
          "type": "uint256"
        }
      ],
      "name": "DPTRegistered",
      "type": "event"
    },
    {
      "anonymous": false,
      "inputs": [
        {
          "indexed": true,
          "internalType": "address",
          "name": "by",
          "type": "address"
        },
        {
          "indexed": true,
          "internalType": "uint256",
          "name": "hiveId",
          "type": "uint256"
        },
        {
          "indexed": false,
          "internalType": "address",
          "name": "tokenAddress",
          "type": "address"
        },
        {
          "indexed": true,
          "internalType": "uint256",
          "name": "tokenId",
          "type": "uint256"
        },
        {
          "indexed": false,
          "internalType": "uint256",
          "name": "timestamp",
          "type": "uint256"
        }
      ],
      "name": "HiveCreated",
      "type": "event"
    },
    {
      "anonymous": false,
      "inputs": [
        {
          "indexed": true,
          "internalType": "address",
          "name": "by",
          "type": "address"
        },
        {
          "indexed": true,
          "internalType": "uint256",
          "name": "hiveId",
          "type": "uint256"
        },
        {
          "indexed": true,
          "internalType": "address",
          "name": "tokenAddress",
          "type": "address"
        }
      ],
      "name": "HiveTokenUpdated",
      "type": "event"
    },
    {
      "anonymous": false,
      "inputs": [
        {
          "indexed": true,
          "internalType": "address",
          "name": "by",
          "type": "address"
        },
        {
          "indexed": true,
          "internalType": "uint256",
          "name": "hiveId",
          "type": "uint256"
        },
        {
          "indexed": false,
          "internalType": "string",
          "name": "hiveURI",
          "type": "string"
        }
      ],
      "name": "HiveUriUpdated",
      "type": "event"
    },
    {
      "anonymous": false,
      "inputs": [
        {
          "indexed": true,
          "internalType": "address",
          "name": "issuer",
          "type": "address"
        },
        {
          "indexed": false,
          "internalType": "uint256",
          "name": "nonce",
          "type": "uint256"
        }
      ],
      "name": "NonceUsed",
      "type": "event"
    },
    {
      "anonymous": false,
      "inputs": [
        {
          "indexed": true,
          "internalType": "address",
          "name": "by",
          "type": "address"
        },
        {
          "indexed": false,
          "internalType": "uint256",
          "name": "podId",
          "type": "uint256"
        }
      ],
      "name": "PodDelisted",
      "type": "event"
    },
    {
      "anonymous": false,
      "inputs": [
        {
          "indexed": true,
          "internalType": "address",
          "name": "by",
          "type": "address"
        },
        {
          "indexed": false,
          "internalType": "uint256",
          "name": "podId",
          "type": "uint256"
        }
      ],
      "name": "PodWhitelisted",
      "type": "event"
    },
    {
      "anonymous": false,
      "inputs": [
        {
          "indexed": true,
          "internalType": "address",
          "name": "operator",
          "type": "address"
        },
        {
          "indexed": false,
          "internalType": "uint256",
          "name": "requested",
          "type": "uint256"
        },
        {
          "indexed": false,
          "internalType": "uint256",
          "name": "assigned",
          "type": "uint256"
        }
      ],
      "name": "RoleUpdated",
      "type": "event"
    },
    {
      "anonymous": false,
      "inputs": [
        {
          "indexed": true,
          "internalType": "address",
          "name": "implementation",
          "type": "address"
        }
      ],
      "name": "Upgraded",
      "type": "event"
    },
    {
      "inputs": [],
      "name": "FEATURE_ALLOW_ASSET_LINKING",
      "outputs": [
        {
          "internalType": "uint32",
          "name": "",
          "type": "uint32"
        }
      ],
      "stateMutability": "view",
      "type": "function"
    },
    {
      "inputs": [],
      "name": "FEATURE_ALLOW_ASSET_UNLINKING",
      "outputs": [
        {
          "internalType": "uint32",
          "name": "",
          "type": "uint32"
        }
      ],
      "stateMutability": "view",
      "type": "function"
    },
    {
      "inputs": [],
      "name": "FEATURE_ALLOW_HIVE_CREATION",
      "outputs": [
        {
          "internalType": "uint32",
          "name": "",
          "type": "uint32"
        }
      ],
      "stateMutability": "view",
      "type": "function"
    },
    {
      "inputs": [],
      "name": "ROLE_ACCESS_MANAGER",
      "outputs": [
        {
          "internalType": "uint256",
          "name": "",
          "type": "uint256"
        }
      ],
      "stateMutability": "view",
      "type": "function"
    },
    {
      "inputs": [],
      "name": "ROLE_CATEGORY_MANAGER",
      "outputs": [
        {
          "internalType": "uint32",
          "name": "",
          "type": "uint32"
        }
      ],
      "stateMutability": "view",
      "type": "function"
    },
    {
      "inputs": [],
      "name": "ROLE_DPT_REGISTRAR",
      "outputs": [
        {
          "internalType": "uint32",
          "name": "",
          "type": "uint32"
        }
      ],
      "stateMutability": "view",
      "type": "function"
    },
    {
      "inputs": [],
      "name": "ROLE_HIVE_TOKEN_MANAGER",
      "outputs": [
        {
          "internalType": "uint32",
          "name": "",
          "type": "uint32"
        }
      ],
      "stateMutability": "view",
      "type": "function"
    },
    {
      "inputs": [],
      "name": "ROLE_POD_WHITELIST_MANAGER",
      "outputs": [
        {
          "internalType": "uint32",
          "name": "",
          "type": "uint32"
        }
      ],
      "stateMutability": "view",
      "type": "function"
    },
    {
      "inputs": [],
      "name": "ROLE_UPGRADE_MANAGER",
      "outputs": [
        {
          "internalType": "uint256",
          "name": "",
          "type": "uint256"
        }
      ],
      "stateMutability": "view",
      "type": "function"
    },
    {
      "inputs": [
        {
          "internalType": "string",
          "name": "categoryName",
          "type": "string"
        },
        {
          "internalType": "address",
          "name": "allowedCollection",
          "type": "address"
        }
      ],
      "name": "addCategory",
      "outputs": [],
      "stateMutability": "nonpayable",
      "type": "function"
    },
    {
      "inputs": [
        {
          "internalType": "uint256",
          "name": "",
          "type": "uint256"
        },
        {
          "internalType": "uint16",
          "name": "",
          "type": "uint16"
        },
        {
          "internalType": "uint256",
          "name": "",
          "type": "uint256"
        }
      ],
      "name": "assetCatalogue",
      "outputs": [
        {
          "internalType": "address",
          "name": "tokenAddress",
          "type": "address"
        },
        {
          "internalType": "uint256",
          "name": "tokenId",
          "type": "uint256"
        }
      ],
      "stateMutability": "view",
      "type": "function"
    },
    {
      "inputs": [
        {
          "internalType": "uint256",
          "name": "_podId",
          "type": "uint256"
        },
        {
          "internalType": "string",
          "name": "_hiveURI",
          "type": "string"
        }
      ],
      "name": "createHive",
      "outputs": [],
      "stateMutability": "nonpayable",
      "type": "function"
    },
    {
      "inputs": [
        {
          "internalType": "uint256[]",
          "name": "_pods",
          "type": "uint256[]"
        }
      ],
      "name": "delistPods",
      "outputs": [],
      "stateMutability": "nonpayable",
      "type": "function"
    },
    {
      "inputs": [
        {
          "components": [
            {
              "components": [
                {
                  "internalType": "address",
                  "name": "tokenAddress",
                  "type": "address"
                },
                {
                  "internalType": "uint256",
                  "name": "tokenId",
                  "type": "uint256"
                }
              ],
              "internalType": "struct TradeableShares.SharesSubject",
              "name": "asset",
              "type": "tuple"
            },
            {
              "internalType": "address",
              "name": "dptOwner",
              "type": "address"
            },
            {
              "internalType": "uint256",
              "name": "validFromTimestamp",
              "type": "uint256"
            },
            {
              "internalType": "uint256",
              "name": "expiresAtTimestamp",
              "type": "uint256"
            },
            {
              "internalType": "uint256",
              "name": "nonce",
              "type": "uint256"
            }
          ],
          "internalType": "struct HiveRegistry.RegisterAsDPTRequest",
          "name": "_req",
          "type": "tuple"
        },
        {
          "internalType": "bytes",
          "name": "_signature",
          "type": "bytes"
        }
      ],
      "name": "eip712RegisterAsDPT",
      "outputs": [],
      "stateMutability": "nonpayable",
      "type": "function"
    },
    {
      "inputs": [
        {
          "internalType": "address",
          "name": "_issuer",
          "type": "address"
        },
        {
          "internalType": "uint256",
          "name": "_nonce",
          "type": "uint256"
        }
      ],
      "name": "fastForwardTheNonce",
      "outputs": [],
      "stateMutability": "nonpayable",
      "type": "function"
    },
    {
      "inputs": [],
      "name": "features",
      "outputs": [
        {
          "internalType": "uint256",
          "name": "",
          "type": "uint256"
        }
      ],
      "stateMutability": "view",
      "type": "function"
    },
    {
      "inputs": [
        {
          "internalType": "string",
          "name": "_category",
          "type": "string"
        }
      ],
      "name": "getCategoryIndex",
      "outputs": [
        {
          "internalType": "uint16",
          "name": "categoryId",
          "type": "uint16"
        }
      ],
      "stateMutability": "view",
      "type": "function"
    },
    {
      "inputs": [
        {
          "internalType": "uint256",
          "name": "_hiveId",
          "type": "uint256"
        }
      ],
      "name": "getHiveCreatorPod",
      "outputs": [
        {
          "components": [
            {
              "internalType": "address",
              "name": "tokenAddress",
              "type": "address"
            },
            {
              "internalType": "uint256",
              "name": "tokenId",
              "type": "uint256"
            }
          ],
          "internalType": "struct TradeableShares.SharesSubject",
          "name": "pod",
          "type": "tuple"
        }
      ],
      "stateMutability": "view",
      "type": "function"
    },
    {
      "inputs": [
        {
          "internalType": "uint16",
          "name": "_hiveId",
          "type": "uint16"
        }
      ],
      "name": "getHiveDetails",
      "outputs": [
        {
          "components": [
            {
              "internalType": "address",
              "name": "tokenAddress",
              "type": "address"
            },
            {
              "internalType": "uint256",
              "name": "tokenId",
              "type": "uint256"
            }
          ],
          "internalType": "struct TradeableShares.SharesSubject",
          "name": "pod",
          "type": "tuple"
        },
        {
          "internalType": "address",
          "name": "hiveOwner",
          "type": "address"
        },
        {
          "internalType": "address",
          "name": "hiveTokenAddr",
          "type": "address"
        },
        {
          "internalType": "string",
          "name": "hiveUri",
          "type": "string"
        }
      ],
      "stateMutability": "view",
      "type": "function"
    },
    {
      "inputs": [
        {
          "internalType": "uint256",
          "name": "_podId",
          "type": "uint256"
        }
      ],
      "name": "getHiveId",
      "outputs": [
        {
          "internalType": "uint256",
          "name": "hiveId",
          "type": "uint256"
        }
      ],
      "stateMutability": "view",
      "type": "function"
    },
    {
      "inputs": [
        {
          "internalType": "uint256",
          "name": "_hiveId",
          "type": "uint256"
        }
      ],
      "name": "getHiveToken",
      "outputs": [
        {
          "internalType": "address",
          "name": "tokenAddr",
          "type": "address"
        }
      ],
      "stateMutability": "view",
      "type": "function"
    },
    {
      "inputs": [
        {
          "internalType": "uint16",
          "name": "_hiveId",
          "type": "uint16"
        }
      ],
      "name": "getHiveURI",
      "outputs": [
        {
          "internalType": "string",
          "name": "hiveUri",
          "type": "string"
        }
      ],
      "stateMutability": "view",
      "type": "function"
    },
    {
      "inputs": [],
      "name": "getImplementation",
      "outputs": [
        {
          "internalType": "address",
          "name": "",
          "type": "address"
        }
      ],
      "stateMutability": "view",
      "type": "function"
    },
    {
      "inputs": [
        {
          "components": [
            {
              "internalType": "address",
              "name": "tokenAddress",
              "type": "address"
            },
            {
              "internalType": "uint256",
              "name": "tokenId",
              "type": "uint256"
            }
          ],
          "internalType": "struct TradeableShares.SharesSubject",
          "name": "_asset",
          "type": "tuple"
        }
      ],
      "name": "getLinkedAssetDetails",
      "outputs": [
        {
          "internalType": "uint256",
          "name": "hiveId",
          "type": "uint256"
        },
        {
          "internalType": "uint256",
          "name": "categoryId",
          "type": "uint256"
        },
        {
          "internalType": "string",
          "name": "category",
          "type": "string"
        }
      ],
      "stateMutability": "view",
      "type": "function"
    },
    {
      "inputs": [
        {
          "internalType": "address",
          "name": "clientAddress",
          "type": "address"
        }
      ],
      "name": "getNonce",
      "outputs": [
        {
          "internalType": "uint256",
          "name": "nonce",
          "type": "uint256"
        }
      ],
      "stateMutability": "view",
      "type": "function"
    },
    {
      "inputs": [
        {
          "internalType": "uint16",
          "name": "_hiveId",
          "type": "uint16"
        }
      ],
      "name": "getNumOfAssetsLinkedWithHive",
      "outputs": [
        {
          "internalType": "uint256",
          "name": "numOfAssets",
          "type": "uint256"
        }
      ],
      "stateMutability": "view",
      "type": "function"
    },
    {
      "inputs": [
        {
          "internalType": "uint16",
          "name": "_hiveId",
          "type": "uint16"
        },
        {
          "internalType": "uint16",
          "name": "_category",
          "type": "uint16"
        }
      ],
      "name": "getNumOfAssetsLinkedWithHive",
      "outputs": [
        {
          "internalType": "uint256",
          "name": "numOfAssets",
          "type": "uint256"
        }
      ],
      "stateMutability": "view",
      "type": "function"
    },
    {
      "inputs": [],
      "name": "getNumOfGlobalCategories",
      "outputs": [
        {
          "internalType": "uint256",
          "name": "noOfCategories",
          "type": "uint256"
        }
      ],
      "stateMutability": "view",
      "type": "function"
    },
    {
      "inputs": [],
      "name": "getNumOfHives",
      "outputs": [
        {
          "internalType": "uint256",
          "name": "noOfHives",
          "type": "uint256"
        }
      ],
      "stateMutability": "view",
      "type": "function"
    },
    {
      "inputs": [
        {
          "internalType": "address",
          "name": "operator",
          "type": "address"
        }
      ],
      "name": "getRole",
      "outputs": [
        {
          "internalType": "uint256",
          "name": "",
          "type": "uint256"
        }
      ],
      "stateMutability": "view",
      "type": "function"
    },
    {
      "inputs": [
        {
          "internalType": "uint256",
          "name": "",
          "type": "uint256"
        }
      ],
      "name": "globalCategories",
      "outputs": [
        {
          "internalType": "string",
          "name": "category",
          "type": "string"
        },
        {
          "internalType": "address",
          "name": "allowedCollection",
          "type": "address"
        }
      ],
      "stateMutability": "view",
      "type": "function"
    },
    {
      "inputs": [],
      "name": "iNftContract",
      "outputs": [
        {
          "internalType": "address",
          "name": "",
          "type": "address"
        }
      ],
      "stateMutability": "view",
      "type": "function"
    },
    {
      "inputs": [
        {
          "components": [
            {
              "internalType": "address",
              "name": "tokenAddress",
              "type": "address"
            },
            {
              "internalType": "uint256",
              "name": "tokenId",
              "type": "uint256"
            }
          ],
          "internalType": "struct TradeableShares.SharesSubject",
          "name": "_asset",
          "type": "tuple"
        }
      ],
      "name": "isAssetLinked",
      "outputs": [
        {
          "internalType": "bool",
          "name": "status",
          "type": "bool"
        }
      ],
      "stateMutability": "view",
      "type": "function"
    },
    {
      "inputs": [
        {
          "components": [
            {
              "internalType": "address",
              "name": "tokenAddress",
              "type": "address"
            },
            {
              "internalType": "uint256",
              "name": "tokenId",
              "type": "uint256"
            }
          ],
          "internalType": "struct TradeableShares.SharesSubject",
          "name": "_dpt",
          "type": "tuple"
        }
      ],
      "name": "isDPTRegistered",
      "outputs": [
        {
          "internalType": "bool",
          "name": "status",
          "type": "bool"
        }
      ],
      "stateMutability": "view",
      "type": "function"
    },
    {
      "inputs": [
        {
          "internalType": "uint256",
          "name": "required",
          "type": "uint256"
        }
      ],
      "name": "isFeatureEnabled",
      "outputs": [
        {
          "internalType": "bool",
          "name": "",
          "type": "bool"
        }
      ],
      "stateMutability": "view",
      "type": "function"
    },
    {
      "inputs": [
        {
          "internalType": "address",
          "name": "operator",
          "type": "address"
        },
        {
          "internalType": "uint256",
          "name": "required",
          "type": "uint256"
        }
      ],
      "name": "isOperatorInRole",
      "outputs": [
        {
          "internalType": "bool",
          "name": "",
          "type": "bool"
        }
      ],
      "stateMutability": "view",
      "type": "function"
    },
    {
      "inputs": [
        {
          "internalType": "uint256",
          "name": "_podId",
          "type": "uint256"
        }
      ],
      "name": "isPodWhitelisted",
      "outputs": [
        {
          "internalType": "bool",
          "name": "status",
          "type": "bool"
        }
      ],
      "stateMutability": "view",
      "type": "function"
    },
    {
      "inputs": [
        {
          "internalType": "uint256",
          "name": "required",
          "type": "uint256"
        }
      ],
      "name": "isSenderInRole",
      "outputs": [
        {
          "internalType": "bool",
          "name": "",
          "type": "bool"
        }
      ],
      "stateMutability": "view",
      "type": "function"
    },
    {
      "inputs": [
        {
          "components": [
            {
              "internalType": "address",
              "name": "tokenAddress",
              "type": "address"
            },
            {
              "internalType": "uint256",
              "name": "tokenId",
              "type": "uint256"
            }
          ],
          "internalType": "struct TradeableShares.SharesSubject",
          "name": "asset",
          "type": "tuple"
        },
        {
          "internalType": "uint16",
          "name": "hiveId",
          "type": "uint16"
        },
        {
          "internalType": "string",
          "name": "categoryName",
          "type": "string"
        }
      ],
      "name": "linkAsset",
      "outputs": [],
      "stateMutability": "nonpayable",
      "type": "function"
    },
    {
      "inputs": [
        {
          "components": [
            {
              "internalType": "address",
              "name": "tokenAddress",
              "type": "address"
            },
            {
              "internalType": "uint256",
              "name": "tokenId",
              "type": "uint256"
            }
          ],
          "internalType": "struct TradeableShares.SharesSubject",
          "name": "asset",
          "type": "tuple"
        },
        {
          "internalType": "uint16",
          "name": "hiveId",
          "type": "uint16"
        },
        {
          "internalType": "uint16",
          "name": "categoryId",
          "type": "uint16"
        }
      ],
      "name": "linkAsset",
      "outputs": [],
      "stateMutability": "nonpayable",
      "type": "function"
    },
    {
      "inputs": [],
      "name": "personalityContract",
      "outputs": [
        {
          "internalType": "address",
          "name": "",
          "type": "address"
        }
      ],
      "stateMutability": "view",
      "type": "function"
    },
    {
      "inputs": [],
      "name": "podStakingContract",
      "outputs": [
        {
          "internalType": "address",
          "name": "",
          "type": "address"
        }
      ],
      "stateMutability": "view",
      "type": "function"
    },
    {
      "inputs": [
        {
          "internalType": "address",
          "name": "_personalityContract",
          "type": "address"
        },
        {
          "internalType": "address",
          "name": "_iNftContract",
          "type": "address"
        },
        {
          "internalType": "address",
          "name": "_podStakingContract",
          "type": "address"
        }
      ],
      "name": "postConstruct",
      "outputs": [],
      "stateMutability": "nonpayable",
      "type": "function"
    },
    {
      "inputs": [
        {
          "components": [
            {
              "internalType": "address",
              "name": "tokenAddress",
              "type": "address"
            },
            {
              "internalType": "uint256",
              "name": "tokenId",
              "type": "uint256"
            }
          ],
          "internalType": "struct TradeableShares.SharesSubject",
          "name": "_dpt",
          "type": "tuple"
        }
      ],
      "name": "registerAsDPT",
      "outputs": [],
      "stateMutability": "nonpayable",
      "type": "function"
    },
    {
      "inputs": [
        {
          "internalType": "uint256",
          "name": "_hiveId",
          "type": "uint256"
        },
        {
          "internalType": "address",
          "name": "_tokenAddress",
          "type": "address"
        }
      ],
      "name": "setHiveTokenAddress",
      "outputs": [],
      "stateMutability": "nonpayable",
      "type": "function"
    },
    {
      "inputs": [],
      "name": "totalNumOfAssetsLinked",
      "outputs": [
        {
          "internalType": "uint256",
          "name": "",
          "type": "uint256"
        }
      ],
      "stateMutability": "view",
      "type": "function"
    },
    {
      "inputs": [
        {
          "components": [
            {
              "internalType": "address",
              "name": "tokenAddress",
              "type": "address"
            },
            {
              "internalType": "uint256",
              "name": "tokenId",
              "type": "uint256"
            }
          ],
          "internalType": "struct TradeableShares.SharesSubject",
          "name": "_asset",
          "type": "tuple"
        }
      ],
      "name": "unlinkAsset",
      "outputs": [],
      "stateMutability": "nonpayable",
      "type": "function"
    },
    {
      "inputs": [
        {
          "internalType": "uint256",
          "name": "_mask",
          "type": "uint256"
        }
      ],
      "name": "updateFeatures",
      "outputs": [],
      "stateMutability": "nonpayable",
      "type": "function"
    },
    {
      "inputs": [
        {
          "internalType": "uint256",
          "name": "_hiveId",
          "type": "uint256"
        },
        {
          "internalType": "string",
          "name": "_hiveURI",
          "type": "string"
        }
      ],
      "name": "updateHiveURI",
      "outputs": [],
      "stateMutability": "nonpayable",
      "type": "function"
    },
    {
      "inputs": [
        {
          "internalType": "address",
          "name": "operator",
          "type": "address"
        },
        {
          "internalType": "uint256",
          "name": "role",
          "type": "uint256"
        }
      ],
      "name": "updateRole",
      "outputs": [],
      "stateMutability": "nonpayable",
      "type": "function"
    },
    {
      "inputs": [
        {
          "internalType": "address",
          "name": "newImplementation",
          "type": "address"
        }
      ],
      "name": "upgradeTo",
      "outputs": [],
      "stateMutability": "nonpayable",
      "type": "function"
    },
    {
      "inputs": [
        {
          "internalType": "address",
          "name": "newImplementation",
          "type": "address"
        },
        {
          "internalType": "bytes",
          "name": "data",
          "type": "bytes"
        }
      ],
      "name": "upgradeToAndCall",
      "outputs": [],
      "stateMutability": "payable",
      "type": "function"
    },
    {
      "inputs": [
        {
          "internalType": "uint256[]",
          "name": "_pods",
          "type": "uint256[]"
        }
      ],
      "name": "whitelistPods",
      "outputs": [],
      "stateMutability": "nonpayable",
      "type": "function"
    }
  ],
  "bytecode": "0x60a0604052306080523480156200001557600080fd5b50600054610100900460ff16620000335760005460ff16156200003d565b6200003d620000e2565b620000a55760405162461bcd60e51b815260206004820152602e60248201527f496e697469616c697a61626c653a20636f6e747261637420697320616c72656160448201526d191e481a5b9a5d1a585b1a5e995960921b606482015260840160405180910390fd5b600054610100900460ff16158015620000c8576000805461ffff19166101011790555b8015620000db576000805461ff00191690555b5062000106565b6000620000fa306200010060201b62002b431760201c565b15905090565b3b151590565b6080516146156200013760003960008181610c3e01528181610c7e015281816116c7015261170701526146156000f3fe60806040526004361061031a5760003560e01c8063a472d0b6116101ab578063c688d693116100f7578063e068c12711610095578063f9bf90171161006f578063f9bf9017146109d8578063fa4c9ab414610a19578063fc999d0414610a2e578063fcc2c07814610a4e57600080fd5b8063e068c12714610978578063e480d61214610998578063f5a5ad11146109b857600080fd5b8063cd7e176d116100d1578063cd7e176d146108d9578063d26ef1ca14610908578063d5bb7f6714610938578063e023fd421461095857600080fd5b8063c688d69314610884578063c69f89fa146108a4578063caa4d8fe146108c457600080fd5b8063ae682e2e11610164578063bbd509241161013e578063bbd50924146107f7578063bea55b0414610817578063beb1aec01461084d578063c6179e581461086457600080fd5b8063ae682e2e146107aa578063af830362146107c2578063b00e97a0146107e257600080fd5b8063a472d0b6146106fa578063a580a7951461071a578063aa6699f214610748578063aaf10f421461075d578063ae5b102e14610772578063ae60bda41461079257600080fd5b8063442767331161026a578063725f36261161022357806380c6ddfa116101fd57806380c6ddfa1461066057806385335d191461068d5780639367b400146106ba5780639a1d7ce4146106da57600080fd5b8063725f36261461061457806375853002146106345780637efbf5b11461064957600080fd5b8063442767331461055e5780634db04542146105945780634e1aee8c146105b45780634f1ef286146105d457806359549dbb146105e7578063612f5cbb146105fe57600080fd5b80631c94a774116102d75780632d0335ab116102b15780632d0335ab146104c85780633659cfe6146104fe578063396ab56f1461051e5780633f562fcc1461053e57600080fd5b80631c94a774146104505780632176b89e146104705780632b5214161461049c57600080fd5b806308f7e9dc1461031f5780630dc3d2841461035c5780630e3163bc1461037c578063114247b8146103bc5780631604b2c6146103fb57806319a756271461042e575b600080fd5b34801561032b57600080fd5b5060cd5461033f906001600160a01b031681565b6040516001600160a01b0390911681526020015b60405180910390f35b34801561036857600080fd5b5060cc5461033f906001600160a01b031681565b34801561038857600080fd5b506103ac61039736600461397e565b600090815260d0602052604090205460ff1690565b6040519015158152602001610353565b3480156103c857600080fd5b506103dc6103d73660046139ae565b610a6e565b604080516001600160a01b039093168352602083019190915201610353565b34801561040757600080fd5b5061041b610416366004613a6f565b610ac2565b60405161ffff9091168152602001610353565b34801561043a57600080fd5b5061044e610449366004613b1a565b610aee565b005b34801561045c57600080fd5b5061044e61046b366004613b91565b610b24565b34801561047c57600080fd5b506104876208000081565b60405163ffffffff9091168152602001610353565b3480156104a857600080fd5b50306000908152600160205260409020545b604051908152602001610353565b3480156104d457600080fd5b506104ba6104e3366004613bbd565b6001600160a01b0316600090815260cf602052604090205490565b34801561050a57600080fd5b5061044e610519366004613bbd565b610c34565b34801561052a57600080fd5b5061044e610539366004613bda565b610cfc565b34801561054a57600080fd5b506103ac610559366004613bda565b610d06565b34801561056a57600080fd5b506104ba610579366004613bbd565b6001600160a01b031660009081526001602052604090205490565b3480156105a057600080fd5b5061044e6105af366004613bda565b610d3f565b3480156105c057600080fd5b5061044e6105cf366004613bf6565b6111c8565b61044e6105e2366004613c3a565b6116bd565b3480156105f357600080fd5b506104876202000081565b34801561060a57600080fd5b506104ba60d95481565b34801561062057600080fd5b506103ac61062f36600461397e565b611776565b34801561064057600080fd5b50610487600181565b34801561065557600080fd5b506104876204000081565b34801561066c57600080fd5b5061068061067b366004613c9e565b611798565b6040516103539190613d11565b34801561069957600080fd5b506106ad6106a836600461397e565b61183f565b6040516103539190613d24565b3480156106c657600080fd5b5061044e6106d5366004613d44565b61189f565b3480156106e657600080fd5b5061044e6106f5366004613d90565b611a23565b34801561070657600080fd5b5061044e610715366004613dd2565b611b22565b34801561072657600080fd5b5061073a61073536600461397e565b611c37565b604051610353929190613e47565b34801561075457600080fd5b50610487600481565b34801561076957600080fd5b5061033f611cfc565b34801561077e57600080fd5b5061044e61078d366004613b91565b611d06565b34801561079e57600080fd5b506104ba600160fe1b81565b3480156107b657600080fd5b506104ba600160ff1b81565b3480156107ce57600080fd5b5061044e6107dd366004613dd2565b611d88565b3480156107ee57600080fd5b506104ba611e9e565b34801561080357600080fd5b5061044e610812366004613e71565b611eb0565b34801561082357600080fd5b5061033f61083236600461397e565b600090815260d260205260409020546001600160a01b031690565b34801561085957600080fd5b506104876201000081565b34801561087057600080fd5b5060cb5461033f906001600160a01b031681565b34801561089057600080fd5b506103ac61089f366004613b91565b611fc4565b3480156108b057600080fd5b5061044e6108bf366004613ea1565b611fed565b3480156108d057600080fd5b506104ba6121b1565b3480156108e557600080fd5b506108f96108f4366004613bda565b6121c3565b60405161035393929190613ef8565b34801561091457600080fd5b50610928610923366004613c9e565b6122d2565b6040516103539493929190613f17565b34801561094457600080fd5b5061044e61095336600461397e565b6124b9565b34801561096457600080fd5b5061044e610973366004613f67565b6124c3565b34801561098457600080fd5b506103ac610993366004613bda565b61270b565b3480156109a457600080fd5b5061044e6109b3366004613d44565b61273a565b3480156109c457600080fd5b506104ba6109d3366004613c9e565b612aa8565b3480156109e457600080fd5b506104ba6109f3366004613fa7565b61ffff918216600090815260d76020908152604080832093909416825291909152205490565b348015610a2557600080fd5b50610487600281565b348015610a3a57600080fd5b506104ba610a4936600461397e565b612b03565b348015610a5a57600080fd5b506103ac610a6936600461397e565b612b37565b60d76020528260005260406000206020528160005260406000208181548110610a9657600080fd5b6000918252602090912060029091020180546001909101546001600160a01b0390911693509150839050565b600060d682604051610ad49190613fda565b9081526040519081900360200190205461ffff1692915050565b610b1e848460d68585604051610b05929190613ff6565b9081526040519081900360200190205461ffff166111c8565b50505050565b610b3062010000612b37565b610b555760405162461bcd60e51b8152600401610b4c90614006565b60405180910390fd5b6001600160a01b038216600090815260cf60205260409020548111610bd25760405162461bcd60e51b815260206004820152602d60248201527f6e6577206e6f6e6365206d75737420626520626967676572207468616e20746860448201526c652063757272656e74206f6e6560981b6064820152608401610b4c565b6001600160a01b038216600081815260cf602052604090208290557f2af71f10069c28afc67c3752e87e0e4616a97948d33c8f404a856c0c334b3e01610c19600184614043565b6040519081526020015b60405180910390a25050565b905090565b6001600160a01b037f0000000000000000000000000000000000000000000000000000000000000000163003610c7c5760405162461bcd60e51b8152600401610b4c9061405a565b7f00000000000000000000000000000000000000000000000000000000000000006001600160a01b0316610cae612b49565b6001600160a01b031614610cd45760405162461bcd60e51b8152600401610b4c906140a6565b610cdd81612b77565b60408051600080825260208201909252610cf991839190612ba0565b50565b610cf98133612ceb565b600080610d23610d196020850185613bbd565b8460200135612e16565b600090815260d8602052604090205461ffff1615159392505050565b610d496004611776565b610d955760405162461bcd60e51b815260206004820152601b60248201527f617373657420756e6c696e6b696e672069732064697361626c656400000000006044820152606401610b4c565b6000610db1610da76020840184613bbd565b8360200135612e16565b600081815260d8602052604081205491925061ffff9091169003610e085760405162461bcd60e51b815260206004820152600e60248201526d1d5b9b1a5b9ad95908185cdcd95d60921b6044820152606401610b4c565b33610e166020840184613bbd565b6040516331a9108f60e11b8152602085013560048201526001600160a01b039190911690636352211e90602401602060405180830381865afa158015610e60573d6000803e3d6000fd5b505050506040513d601f19601f82011682018060405250810190610e8491906140f2565b6001600160a01b03161480610ef2575060cb546001600160a01b0316610ead6020840184613bbd565b6001600160a01b0316148015610ef25750610ed5610ed03684900384018461410f565b612e54565b80610ef25750610ef2610eed3684900384018461410f565b612fbc565b610f0e5760405162461bcd60e51b8152600401610b4c90614167565b600081815260d8602090815260408083208151606081018352905461ffff80821680845262010000830482168487019081526401000000009093046001600160e01b031684860152865260d7855283862091511685529092529091205460018111156110bf57815161ffff908116600090815260d760209081526040808320828701519094168352929052908120610fa7600184614043565b81548110610fb757610fb761418f565b600091825260208083206040805180820190915260029093020180546001600160a01b0316808452600190910154918301829052919350610ff89190612e16565b90508160d76000866000015161ffff1681526020019081526020016000206000866020015161ffff1661ffff16815260200190815260200160002085604001516001600160e01b0316815481106110515761105161418f565b60009182526020808320845160029093020180546001600160a01b039093166001600160a01b03199093169290921782559283015160019091015560408087015193825260d89092522080546001600160e01b039092166401000000000263ffffffff909216919091179055505b815161ffff908116600090815260d760209081526040808320828701519094168352929052208054806110f4576110f46141a5565b6000828152602080822060026000199094019384020180546001600160a01b03191681556001018290559190925584825260d890526040812081905560d980549161113e836141bb565b9091555050815161ffff166020850180359061115a9087613bbd565b6001600160a01b03167ff85cbeffd83133831e57542e44c43d60c6afb97812c8775480ed300f62e369ec338660200151426040516111ba939291906001600160a01b0393909316835261ffff919091166020830152604082015260600190565b60405180910390a450505050565b6111d26002611776565b61121e5760405162461bcd60e51b815260206004820152601960248201527f6173736574206c696e6b696e672069732064697361626c6564000000000000006044820152606401610b4c565b3361122c6020850185613bbd565b6040516331a9108f60e11b8152602086013560048201526001600160a01b039190911690636352211e90602401602060405180830381865afa158015611276573d6000803e3d6000fd5b505050506040513d601f19601f8201168201806040525081019061129a91906140f2565b6001600160a01b031614806112fe575060cb546001600160a01b03166112c36020850185613bbd565b6001600160a01b03161480156112fe57506112e6610ed03685900385018561410f565b806112fe57506112fe610eed3685900385018561410f565b61131a5760405162461bcd60e51b8152600401610b4c90614167565b60008261ffff161161133e5760405162461bcd60e51b8152600401610b4c906141d2565b60008161ffff16118015611357575060d55461ffff8216105b6113965760405162461bcd60e51b815260206004820152601060248201526f696e76616c69642063617465676f727960801b6044820152606401610b4c565b60006001600160a01b031660d58261ffff16815481106113b8576113b861418f565b60009182526020909120600160029092020101546001600160a01b0316148061142857506113e96020840184613bbd565b6001600160a01b031660d58261ffff16815481106114095761140961418f565b60009182526020909120600160029092020101546001600160a01b0316145b61148b5760405162461bcd60e51b815260206004820152602e60248201527f6173736574206c696e6b696e67207265737472696374656420666f722073757060448201526d706c6965642063617465676f727960901b6064820152608401610b4c565b60006114a761149d6020860186613bbd565b8560200135612e16565b600081815260d8602052604090205490915061ffff16156115015760405162461bcd60e51b8152602060048201526014602482015273185cdcd95d08185b1c9958591e481b1a5b9ad95960621b6044820152606401610b4c565b600081815260d360205260409020541561155d5760405162461bcd60e51b815260206004820152601d60248201527f6173736574206973206173736f636961746564207769746820686976650000006044820152606401610b4c565b60d9805490600061156d836141fa565b909155505061ffff808416600090815260d760209081526040808320938616835292815291812080546001810182559082529190208591600202016115b28282614213565b50506040805160608101825261ffff8086168083529085166020808401829052600092835260d78152848320918352528290205490918201906115f790600190614043565b61ffff908116909152600083815260d86020908152604091829020845181548684015196909401516001600160e01b03166401000000000263ffffffff968616620100000263ffffffff1990951691861691909117939093179490941691909117909255841690850180359061166d9087613bbd565b6040805133815261ffff8716602082015242918101919091526001600160a01b0391909116907f5cd1a97d0d6373d1385940f3fa8fdbc61a4904736046f736bdd405d95309549b906060016111ba565b6001600160a01b037f00000000000000000000000000000000000000000000000000000000000000001630036117055760405162461bcd60e51b8152600401610b4c9061405a565b7f00000000000000000000000000000000000000000000000000000000000000006001600160a01b0316611737612b49565b6001600160a01b03161461175d5760405162461bcd60e51b8152600401610b4c906140a6565b61176682612b77565b61177282826001612ba0565b5050565b30600090815260016020526040812054611792905b8316831490565b92915050565b61ffff8116600090815260d4602052604090208054606091906117ba90614249565b80601f01602080910402602001604051908101604052809291908181526020018280546117e690614249565b80156118335780601f1061180857610100808354040283529160200191611833565b820191906000526020600020905b81548152906001019060200180831161181657829003601f168201915b50505050509050919050565b604080518082019091526000808252602082015260d182815481106118665761186661418f565b60009182526020918290206040805180820190915260029092020180546001600160a01b03168252600101549181019190915292915050565b6000831180156118b0575060d15483105b6118cc5760405162461bcd60e51b8152600401610b4c906141d2565b600060d184815481106118e1576118e161418f565b600091825260209182902060408051808201825260029390930290910180546001600160a01b031680845260019091015493830184905290516331a9108f60e11b815260048101939093529092503391636352211e90602401602060405180830381865afa158015611957573d6000803e3d6000fd5b505050506040513d601f19601f8201168201806040525081019061197b91906140f2565b6001600160a01b03161480611994575061199481612e54565b806119a357506119a381612fbc565b6119bf5760405162461bcd60e51b8152600401610b4c90614167565b600084815260d4602052604090206119d88385836142cc565b5083336001600160a01b03167f1562a4ab7dcb478e782dcea2771f85cd6ec0b70a342cf27b9bf9b1f9f37c7a478585604051611a159291906143b5565b60405180910390a350505050565b4283606001351115611a675760405162461bcd60e51b815260206004820152600d60248201526c1b9bdd081e595d081d985b1a59609a1b6044820152606401610b4c565b42836080013511611aa45760405162461bcd60e51b8152602060048201526007602482015266195e1c1a5c995960ca1b6044820152606401610b4c565b611ac1611ab76060850160408601613bbd565b8460a001356130ec565b6000611b1683838080601f016020809104026020016040519081016040528093929190818152602001838380828437600092019190915250611b109250611b0b9150889050613190565b613239565b9061324c565b9050610b1e8482612ceb565b611b2e62020000612b37565b611b4a5760405162461bcd60e51b8152600401610b4c90614006565b8060005b81811015610b1e5760d06000858584818110611b6c57611b6c61418f565b602090810292909201358352508101919091526040016000205460ff161515600103611c2557600060d06000868685818110611baa57611baa61418f565b60209081029290920135835250810191909152604001600020805460ff1916911515919091179055337fa1f2829f3a396e903b6cc2fc4fe84307770e49acb1b78d70e2ae3c798d0faaa8858584818110611c0657611c0661418f565b90506020020135604051611c1c91815260200190565b60405180910390a25b80611c2f816141fa565b915050611b4e565b60d58181548110611c4757600080fd5b9060005260206000209060020201600091509050806000018054611c6a90614249565b80601f0160208091040260200160405190810160405280929190818152602001828054611c9690614249565b8015611ce35780601f10611cb857610100808354040283529160200191611ce3565b820191906000526020600020905b815481529060010190602001808311611cc657829003601f168201915b505050600190930154919250506001600160a01b031682565b6000610c2f612b49565b611d13600160ff1b612b37565b611d2f5760405162461bcd60e51b8152600401610b4c90614006565b6117728282611d8333611d57876001600160a01b031660009081526001602052604090205490565b866001600160a01b03929092166000908152600160205260409020546000198084188216189216171690565b613270565b611d9462020000612b37565b611db05760405162461bcd60e51b8152600401610b4c90614006565b8060005b81811015610b1e5760d06000858584818110611dd257611dd261418f565b6020908102929092013583525081019190915260400160009081205460ff1615159003611e8c57600160d06000868685818110611e1157611e1161418f565b60209081029290920135835250810191909152604001600020805460ff1916911515919091179055337fed8f87b92acaa1c71b4bb41b245ded24f3d91c6b5e8981b8f433c1227aaf271c858584818110611e6d57611e6d61418f565b90506020020135604051611e8391815260200190565b60405180910390a25b80611e96816141fa565b915050611db4565b60d154600090610c2f90600190614043565b611ebc62080000612b37565b611ed85760405162461bcd60e51b8152600401610b4c90614006565b600082118015611ee9575060d15482105b611f055760405162461bcd60e51b8152600401610b4c906141d2565b600082815260d260205260409020546001600160a01b031615611f6a5760405162461bcd60e51b815260206004820152601c60248201527f746f6b656e206164647265737320697320616c726561647920736574000000006044820152606401610b4c565b600082815260d2602052604080822080546001600160a01b0319166001600160a01b03851690811790915590519091849133917f1a71eb38149f118f9bf5c8a230e584f239a0871b967426bfe661075157ac582f91a45050565b6001600160a01b038216600090815260016020526040812054611fe69061178b565b9392505050565b611ff962040000612b37565b6120155760405162461bcd60e51b8152600401610b4c90614006565b60d68383604051612027929190613ff6565b9081526040519081900360200190205461ffff161561207b5760405162461bcd60e51b815260206004820152601060248201526f63617465676f7279206578697374732160801b6044820152606401610b4c565b6040805160606020601f86018190040282018101835291810184815260d592829190879087908190850183828082843760009201829052509385525050506001600160a01b03851660209283015283546001810185559381522081519192600202019081906120ea90826143c9565b5060209190910151600191820180546001600160a01b0319166001600160a01b0390921691909117905560d5546121219190614043565b60d68484604051612133929190613ff6565b908152604051908190036020019020805461ffff9290921661ffff1990921691909117905560d55461216790600190614043565b336001600160a01b03167f8cc81f63b754cb6c484a79c331df3d99927fa4b7c2bdd2b1737bd9e606fd58218585856040516121a493929190614489565b60405180910390a3505050565b60d554600090610c2f90600190614043565b6000806060816121e36121d96020870187613bbd565b8660200135612e16565b600081815260d8602052604090205460d5805492935061ffff80831693620100009093041691829081106122195761221961418f565b90600052602060002090600202016000018261ffff1692508161ffff16915080805461224490614249565b80601f016020809104026020016040519081016040528092919081815260200182805461227090614249565b80156122bd5780601f10612292576101008083540402835291602001916122bd565b820191906000526020600020905b8154815290600101906020018083116122a057829003601f168201915b50505050509050935093509350509193909250565b6040805180820190915260008082526020820152600080606060d18561ffff16815481106123025761230261418f565b906000526020600020906002020160d18661ffff16815481106123275761232761418f565b600091825260209091206002909102015460d180546001600160a01b0390921691636352211e919061ffff8a169081106123635761236361418f565b9060005260206000209060020201600101546040518263ffffffff1660e01b815260040161239391815260200190565b602060405180830381865afa1580156123b0573d6000803e3d6000fd5b505050506040513d601f19601f820116820180604052508101906123d491906140f2565b61ffff8716600090815260d2602090815260408083205460d4835292819020815180830190925285546001600160a01b039081168352600190960154928201929092528154909490921691819061242a90614249565b80601f016020809104026020016040519081016040528092919081815260200182805461245690614249565b80156124a35780601f10612478576101008083540402835291602001916124a3565b820191906000526020600020905b81548152906001019060200180831161248657829003601f168201915b5050505050905093509350935093509193509193565b610cf93082611d06565b600054610100900460ff166124de5760005460ff16156124e2565b303b155b6125455760405162461bcd60e51b815260206004820152602e60248201527f496e697469616c697a61626c653a20636f6e747261637420697320616c72656160448201526d191e481a5b9a5d1a585b1a5e995960921b6064820152608401610b4c565b600054610100900460ff16158015612567576000805461ffff19166101011790555b6125ae6040518060400160405280600c81526020016b48697665526567697374727960a01b815250604051806040016040528060018152602001603160f81b8152506132ca565b6125b73361330b565b60cc80546001600160a01b038086166001600160a01b03199283161790925560cd805485841690831617905560cb8054928716929091168217905560d18054600190810190915560d580546040805160808101825260109181019182526f125b9d195b1b1a59d95b98d957d413d160821b606082015290815260208101949094526002818101835560009290925283519201027f51858de9989bf7441865ebdadbf7382c8838edbf830f5d86a9a51ac773676dd60190819061267990826143c9565b5060209190910151600191820180546001600160a01b0319166001600160a01b0390921691909117905560d5546126b09190614043565b6040516f125b9d195b1b1a59d95b98d957d413d160821b815260d690601001908152604051908190036020019020805461ffff9290921661ffff199092169190911790558015610b1e576000805461ff001916905550505050565b600060ce8161272061149d6020860186613bbd565b815260208101919091526040016000205460ff1692915050565b6127446001611776565b6127895760405162461bcd60e51b81526020600482015260166024820152751a1a5d994818dc99585d1a5bdb88191a5cd8589b195960521b6044820152606401610b4c565b60cb546001600160a01b0316158015906127b15750600083815260d0602052604090205460ff165b6127eb5760405162461bcd60e51b815260206004820152600b60248201526a1b9bdd08185b1b1bddd95960aa1b6044820152606401610b4c565b60408051808201825260cb546001600160a01b03168082526020820186905291516331a9108f60e11b81526004810186905290913391636352211e90602401602060405180830381865afa158015612847573d6000803e3d6000fd5b505050506040513d601f19601f8201168201806040525081019061286b91906140f2565b6001600160a01b03161480612884575061288481612e54565b80612893575061289381612fbc565b6128af5760405162461bcd60e51b8152600401610b4c90614167565b60cb546000906128c8906001600160a01b031686612e16565b600081815260d36020526040902054909150156129185760405162461bcd60e51b815260206004820152600e60248201526d616c72656164792065786973747360901b6044820152606401610b4c565b600081815260d8602052604090205461ffff16156129715760405162461bcd60e51b81526020600482015260166024820152751c1bd9081b1a5b9ad95908185cc8185b88185cdcd95d60521b6044820152606401610b4c565b60d1805460018082018355600083905284517f695fb3134ad82c3b8022bc5464edd0bcc9424ef672b52245dcb6ab2374327ce3600290930292830180546001600160a01b0319166001600160a01b0390921691909117905560208501517f695fb3134ad82c3b8022bc5464edd0bcc9424ef672b52245dcb6ab2374327ce4909201919091559054612a029190614043565b600082815260d3602052604081209190915560d1548591859160d49190612a2b90600190614043565b81526020019081526020016000209182612a469291906142cc565b50602082015160d154612a5b90600190614043565b8351604080516001600160a01b03909216825242602083015233917fa225649255552ba8a1655788ccea23e48356815f70ad3815e71146239528328b910160405180910390a45050505050565b60d55460009060015b818161ffff161015612afc5761ffff808516600090815260d76020908152604080832093851683529290522054612ae890846144b5565b925080612af4816144cd565b915050612ab1565b5050919050565b60cb5460009060d3908290612b21906001600160a01b031685612e16565b8152602001908152602001600020549050919050565b60006117923383611fc4565b3b151590565b7f360894a13ba1a3210667c828492db98dca3e2076cc3735a920a3ca505d382bbc546001600160a01b031690565b612b84600160fe1b612b37565b610cf95760405162461bcd60e51b8152600401610b4c90614006565b6000612baa612b49565b9050612bb58461333f565b600083511180612bc25750815b15612bd357612bd184846133e4565b505b7f4910fdfa16fed3260ed0e7147f7cc6da11a60208b5b9406d12a635614ffd9143805460ff16612ce457805460ff191660011781556040516001600160a01b0383166024820152612c5290869060440160408051601f198184030181529190526020810180516001600160e01b0316631b2ce7f360e11b1790526133e4565b50805460ff19168155612c63612b49565b6001600160a01b0316826001600160a01b031614612cdb5760405162461bcd60e51b815260206004820152602f60248201527f45524331393637557067726164653a207570677261646520627265616b73206660448201526e75727468657220757067726164657360881b6064820152608401610b4c565b612ce4856134c6565b5050505050565b612cf762010000612b37565b80612d0a5750612d0a8162010000611fc4565b612d265760405162461bcd60e51b8152600401610b4c90614167565b6000612d38610d196020850185613bbd565b600081815260ce602052604090205490915060ff1615612d9a5760405162461bcd60e51b815260206004820152601a60248201527f44505420697320616c72656164792072656769737465726564210000000000006044820152606401610b4c565b600081815260ce60209081526040909120805460ff191660011790558301803590612dc59085613bbd565b6001600160a01b0316836001600160a01b03167f84264386e44281cb64e14cb2be504e981e7d28709c283c4bc37cb4589cdf685d42604051612e0991815260200190565b60405180910390a4505050565b604080516001600160a01b03841660208201529081018290526000906060015b60405160208183030381529060405280519060200120905092915050565b60cd546000906001600160a01b0316612e6f57506000919050565b60cd546020830151604051633a90b56960e01b815263ffffffff90911660048201526000916001600160a01b031690633a90b56990602401602060405180830381865afa158015612ec4573d6000803e3d6000fd5b505050506040513d601f19601f82011682018060405250810190612ee891906144ee565b905080600003612efb5750600092915050565b60cd54602084015160009182916001600160a01b039091169063db6d98df90612f25600187614043565b6040516001600160e01b031960e085901b16815263ffffffff9290921660048301526024820152604401606060405180830381865afa158015612f6c573d6000803e3d6000fd5b505050506040513d601f19601f82011682018060405250810190612f90919061451b565b92505091508063ffffffff166000148015612fb357506001600160a01b03821633145b95945050505050565b60cc546000906001600160a01b0316612fd757506000919050565b60cc5482516020840151604051637aa87ad160e01b81526000936001600160a01b031692637aa87ad192613021926004016001600160a01b03929092168252602082015260400190565b602060405180830381865afa15801561303e573d6000803e3d6000fd5b505050506040513d601f19601f8201168201806040525081019061306291906144ee565b90508015801590611fe6575060cc546040516331a9108f60e11b81526004810183905233916001600160a01b031690636352211e90602401602060405180830381865afa1580156130b7573d6000803e3d6000fd5b505050506040513d601f19601f820116820180604052508101906130db91906140f2565b6001600160a01b0316149392505050565b6001600160a01b038216600090815260cf6020526040812080548392909190613114836141fa565b91905055146131555760405162461bcd60e51b815260206004820152600d60248201526c696e76616c6964206e6f6e636560981b6044820152606401610b4c565b816001600160a01b03167f2af71f10069c28afc67c3752e87e0e4616a97948d33c8f404a856c0c334b3e0182604051610c2391815260200190565b60007f5e5980812e14d500287e9b3d75ae309eac0fb0d30f0d40d19ea443de698eef006131bc83613506565b6131cc6060850160408601613bbd565b846060013585608001358660a0013560405160200161321c9695949392919095865260208601949094526001600160a01b039290921660408501526060840152608083015260a082015260c00190565b604051602081830303815290604052805190602001209050919050565b6000611792613246613563565b836135de565b600080600061325b8585613605565b9150915061326881613673565b509392505050565b6001600160a01b03831660008181526001602090815260409182902084905581518581529081018490527fe9be537308880e0f56b7d7cfd7abf85f14c4934486d138f848b92a0cbaf659b4910160405180910390a2505050565b600054610100900460ff166132f15760405162461bcd60e51b8152600401610b4c90614557565b815160209283012081519190920120609791909155609855565b600054610100900460ff166133325760405162461bcd60e51b8152600401610b4c90614557565b610cf98160001980613270565b803b6133a35760405162461bcd60e51b815260206004820152602d60248201527f455243313936373a206e657720696d706c656d656e746174696f6e206973206e60448201526c1bdd08184818dbdb9d1c9858dd609a1b6064820152608401610b4c565b7f360894a13ba1a3210667c828492db98dca3e2076cc3735a920a3ca505d382bbc80546001600160a01b0319166001600160a01b0392909216919091179055565b6060823b6134435760405162461bcd60e51b815260206004820152602660248201527f416464726573733a2064656c65676174652063616c6c20746f206e6f6e2d636f6044820152651b9d1c9858dd60d21b6064820152608401610b4c565b600080846001600160a01b03168460405161345e9190613fda565b600060405180830381855af49150503d8060008114613499576040519150601f19603f3d011682016040523d82523d6000602084013e61349e565b606091505b5091509150612fb382826040518060600160405280602781526020016145b960279139613829565b6134cf8161333f565b6040516001600160a01b038216907fbc7cd75a20ee27fd9adebab32041f755214dbc6bffa90cc0225b39da2e5c2d3b90600090a250565b60007f685dd8e2693cf377e50b3e95f06b61dff4c1705fa19df1071074d64f4e1469eb6135366020840184613bbd565b604080516020818101949094526001600160a01b039092169082015290830135606082015260800161321c565b6000610c2f7f8b73c3c69bb8fe3d512ecc4cf759cc79239f7b179b0ffacaa9a75d522b39400f61359260975490565b6098546040805160208101859052908101839052606081018290524660808201523060a082015260009060c0016040516020818303038152906040528051906020012090509392505050565b60405161190160f01b60208201526022810183905260428101829052600090606201612e36565b600080825160410361363b5760208301516040840151606085015160001a61362f87828585613862565b9450945050505061366c565b8251604003613664576020830151604084015161365986838361394f565b93509350505061366c565b506000905060025b9250929050565b6000816004811115613687576136876145a2565b0361368f5750565b60018160048111156136a3576136a36145a2565b036136f05760405162461bcd60e51b815260206004820152601860248201527f45434453413a20696e76616c6964207369676e617475726500000000000000006044820152606401610b4c565b6002816004811115613704576137046145a2565b036137515760405162461bcd60e51b815260206004820152601f60248201527f45434453413a20696e76616c6964207369676e6174757265206c656e677468006044820152606401610b4c565b6003816004811115613765576137656145a2565b036137bd5760405162461bcd60e51b815260206004820152602260248201527f45434453413a20696e76616c6964207369676e6174757265202773272076616c604482015261756560f01b6064820152608401610b4c565b60048160048111156137d1576137d16145a2565b03610cf95760405162461bcd60e51b815260206004820152602260248201527f45434453413a20696e76616c6964207369676e6174757265202776272076616c604482015261756560f01b6064820152608401610b4c565b60608315613838575081611fe6565b8251156138485782518084602001fd5b8160405162461bcd60e51b8152600401610b4c9190613d11565b6000807f7fffffffffffffffffffffffffffffff5d576e7357a4501ddfe92f46681b20a08311156138995750600090506003613946565b8460ff16601b141580156138b157508460ff16601c14155b156138c25750600090506004613946565b6040805160008082526020820180845289905260ff881692820192909252606081018690526080810185905260019060a0016020604051602081039080840390855afa158015613916573d6000803e3d6000fd5b5050604051601f1901519150506001600160a01b03811661393f57600060019250925050613946565b9150600090505b94509492505050565b6000806001600160ff1b03831660ff84901c601b0161397087828885613862565b935093505050935093915050565b60006020828403121561399057600080fd5b5035919050565b803561ffff811681146139a957600080fd5b919050565b6000806000606084860312156139c357600080fd5b833592506139d360208501613997565b9150604084013590509250925092565b634e487b7160e01b600052604160045260246000fd5b600067ffffffffffffffff80841115613a1457613a146139e3565b604051601f8501601f19908116603f01168101908282118183101715613a3c57613a3c6139e3565b81604052809350858152868686011115613a5557600080fd5b858560208301376000602087830101525050509392505050565b600060208284031215613a8157600080fd5b813567ffffffffffffffff811115613a9857600080fd5b8201601f81018413613aa957600080fd5b613ab8848235602084016139f9565b949350505050565b600060408284031215613ad257600080fd5b50919050565b60008083601f840112613aea57600080fd5b50813567ffffffffffffffff811115613b0257600080fd5b60208301915083602082850101111561366c57600080fd5b60008060008060808587031215613b3057600080fd5b613b3a8686613ac0565b9350613b4860408601613997565b9250606085013567ffffffffffffffff811115613b6457600080fd5b613b7087828801613ad8565b95989497509550505050565b6001600160a01b0381168114610cf957600080fd5b60008060408385031215613ba457600080fd5b8235613baf81613b7c565b946020939093013593505050565b600060208284031215613bcf57600080fd5b8135611fe681613b7c565b600060408284031215613bec57600080fd5b611fe68383613ac0565b600080600060808486031215613c0b57600080fd5b613c158585613ac0565b9250613c2360408501613997565b9150613c3160608501613997565b90509250925092565b60008060408385031215613c4d57600080fd5b8235613c5881613b7c565b9150602083013567ffffffffffffffff811115613c7457600080fd5b8301601f81018513613c8557600080fd5b613c94858235602084016139f9565b9150509250929050565b600060208284031215613cb057600080fd5b611fe682613997565b60005b83811015613cd4578181015183820152602001613cbc565b83811115610b1e5750506000910152565b60008151808452613cfd816020860160208601613cb9565b601f01601f19169290920160200192915050565b602081526000611fe66020830184613ce5565b81516001600160a01b031681526020808301519082015260408101611792565b600080600060408486031215613d5957600080fd5b83359250602084013567ffffffffffffffff811115613d7757600080fd5b613d8386828701613ad8565b9497909650939450505050565b600080600083850360e0811215613da657600080fd5b60c0811215613db457600080fd5b5083925060c084013567ffffffffffffffff811115613d7757600080fd5b60008060208385031215613de557600080fd5b823567ffffffffffffffff80821115613dfd57600080fd5b818501915085601f830112613e1157600080fd5b813581811115613e2057600080fd5b8660208260051b8501011115613e3557600080fd5b60209290920196919550909350505050565b604081526000613e5a6040830185613ce5565b905060018060a01b03831660208301529392505050565b60008060408385031215613e8457600080fd5b823591506020830135613e9681613b7c565b809150509250929050565b600080600060408486031215613eb657600080fd5b833567ffffffffffffffff811115613ecd57600080fd5b613ed986828701613ad8565b9094509250506020840135613eed81613b7c565b809150509250925092565b838152826020820152606060408201526000612fb36060830184613ce5565b84516001600160a01b03168152602080860151908201526001600160a01b0384811660408301528316606082015260a060808201819052600090613f5d90830184613ce5565b9695505050505050565b600080600060608486031215613f7c57600080fd5b8335613f8781613b7c565b92506020840135613f9781613b7c565b91506040840135613eed81613b7c565b60008060408385031215613fba57600080fd5b613fc383613997565b9150613fd160208401613997565b90509250929050565b60008251613fec818460208701613cb9565b9190910192915050565b8183823760009101908152919050565b6020808252600d908201526c1858d8d95cdcc819195b9a5959609a1b604082015260600190565b634e487b7160e01b600052601160045260246000fd5b6000828210156140555761405561402d565b500390565b6020808252602c908201527f46756e6374696f6e206d7573742062652063616c6c6564207468726f7567682060408201526b19195b1959d85d1958d85b1b60a21b606082015260800190565b6020808252602c908201527f46756e6374696f6e206d7573742062652063616c6c6564207468726f7567682060408201526b6163746976652070726f787960a01b606082015260800190565b60006020828403121561410457600080fd5b8151611fe681613b7c565b60006040828403121561412157600080fd5b6040516040810181811067ffffffffffffffff82111715614144576141446139e3565b604052823561415281613b7c565b81526020928301359281019290925250919050565b6020808252600e908201526d1b9bdd08185d5d1a1bdc9a5e995960921b604082015260600190565b634e487b7160e01b600052603260045260246000fd5b634e487b7160e01b600052603160045260246000fd5b6000816141ca576141ca61402d565b506000190190565b6020808252600e908201526d1a5b9d985b1a59081a1a5d99525960921b604082015260600190565b60006001820161420c5761420c61402d565b5060010190565b813561421e81613b7c565b81546001600160a01b0319166001600160a01b03919091161781556020919091013560019190910155565b600181811c9082168061425d57607f821691505b602082108103613ad257634e487b7160e01b600052602260045260246000fd5b601f8211156142c757600081815260208120601f850160051c810160208610156142a45750805b601f850160051c820191505b818110156142c3578281556001016142b0565b5050505b505050565b67ffffffffffffffff8311156142e4576142e46139e3565b6142f8836142f28354614249565b8361427d565b6000601f84116001811461432c57600085156143145750838201355b600019600387901b1c1916600186901b178355612ce4565b600083815260209020601f19861690835b8281101561435d578685013582556020948501946001909201910161433d565b508682101561437a5760001960f88860031b161c19848701351681555b505060018560011b0183555050505050565b81835281816020850137506000828201602090810191909152601f909101601f19169091010190565b602081526000613ab860208301848661438c565b815167ffffffffffffffff8111156143e3576143e36139e3565b6143f7816143f18454614249565b8461427d565b602080601f83116001811461442c57600084156144145750858301515b600019600386901b1c1916600185901b1785556142c3565b600085815260208120601f198616915b8281101561445b5788860151825594840194600190910190840161443c565b50858210156144795787850151600019600388901b60f8161c191681555b5050505050600190811b01905550565b60408152600061449d60408301858761438c565b905060018060a01b0383166020830152949350505050565b600082198211156144c8576144c861402d565b500190565b600061ffff8083168181036144e4576144e461402d565b6001019392505050565b60006020828403121561450057600080fd5b5051919050565b805163ffffffff811681146139a957600080fd5b60008060006060848603121561453057600080fd5b835161453b81613b7c565b925061454960208501614507565b9150613c3160408501614507565b6020808252602b908201527f496e697469616c697a61626c653a20636f6e7472616374206973206e6f74206960408201526a6e697469616c697a696e6760a81b606082015260800190565b634e487b7160e01b600052602160045260246000fdfe416464726573733a206c6f772d6c6576656c2064656c65676174652063616c6c206661696c6564a264697066735822122054a04e31f33128bc5b4400845ef8fd26b6f3327020a0e02b63c695705fbcbf5664736f6c634300080f0033",
  "linkReferences": {},
  "deployedLinkReferences": {}
}