{
    "_format": "hh-sol-artifact-1",
    "contractName": "IntelliLinkerV3",
    "sourceName": "contracts/protocol/IntelliLinkerV3.sol",
    "abi": [
        {
            "anonymous": false,
            "inputs": [
                {
                    "indexed": false,
                    "internalType": "address",
                    "name": "previousAdmin",
                    "type": "address"
                },
                {
                    "indexed": false,
                    "internalType": "address",
                    "name": "newAdmin",
                    "type": "address"
                }
            ],
            "name": "AdminChanged",
            "type": "event"
        },
        {
            "anonymous": false,
            "inputs": [
                {
                    "indexed": true,
                    "internalType": "address",
                    "name": "beacon",
                    "type": "address"
                }
            ],
            "name": "BeaconUpgraded",
            "type": "event"
        },
        {
            "anonymous": false,
            "inputs": [
                {
                    "indexed": true,
                    "internalType": "address",
                    "name": "_by",
                    "type": "address"
                },
                {
                    "indexed": false,
                    "internalType": "uint96",
                    "name": "_linkPrice",
                    "type": "uint96"
                },
                {
                    "indexed": false,
                    "internalType": "uint96",
                    "name": "_linkFee",
                    "type": "uint96"
                },
                {
                    "indexed": true,
                    "internalType": "address",
                    "name": "_feeDestination",
                    "type": "address"
                }
            ],
            "name": "LinkPriceChanged",
            "type": "event"
        },
        {
            "anonymous": false,
            "inputs": [
                {
                    "indexed": true,
                    "internalType": "address",
                    "name": "_by",
                    "type": "address"
                },
                {
                    "indexed": true,
                    "internalType": "uint256",
                    "name": "_iNftId",
                    "type": "uint256"
                },
                {
                    "indexed": false,
                    "internalType": "int128",
                    "name": "_aliDelta",
                    "type": "int128"
                },
                {
                    "indexed": false,
                    "internalType": "uint96",
                    "name": "_feeValue",
                    "type": "uint96"
                }
            ],
            "name": "LinkUpdated",
            "type": "event"
        },
        {
            "anonymous": false,
            "inputs": [
                {
                    "indexed": true,
                    "internalType": "address",
                    "name": "_by",
                    "type": "address"
                },
                {
                    "indexed": false,
                    "internalType": "uint256",
                    "name": "_iNftId",
                    "type": "uint256"
                },
                {
                    "indexed": false,
                    "internalType": "uint96",
                    "name": "_linkPrice",
                    "type": "uint96"
                },
                {
                    "indexed": false,
                    "internalType": "uint96",
                    "name": "_linkFee",
                    "type": "uint96"
                },
                {
                    "indexed": true,
                    "internalType": "address",
                    "name": "_personalityContract",
                    "type": "address"
                },
                {
                    "indexed": true,
                    "internalType": "uint96",
                    "name": "_personalityId",
                    "type": "uint96"
                },
                {
                    "indexed": false,
                    "internalType": "address",
                    "name": "_targetContract",
                    "type": "address"
                },
                {
                    "indexed": false,
                    "internalType": "uint256",
                    "name": "_targetId",
                    "type": "uint256"
                }
            ],
            "name": "Linked",
            "type": "event"
        },
        {
            "anonymous": false,
            "inputs": [
                {
                    "indexed": true,
                    "internalType": "address",
                    "name": "_by",
                    "type": "address"
                },
                {
                    "indexed": false,
                    "internalType": "uint256",
                    "name": "_oldVal",
                    "type": "uint256"
                },
                {
                    "indexed": false,
                    "internalType": "uint256",
                    "name": "_newVal",
                    "type": "uint256"
                }
            ],
            "name": "NextIdChanged",
            "type": "event"
        },
        {
            "anonymous": false,
            "inputs": [
                {
                    "indexed": true,
                    "internalType": "address",
                    "name": "_by",
                    "type": "address"
                },
                {
                    "indexed": true,
                    "internalType": "address",
                    "name": "_to",
                    "type": "address"
                },
                {
                    "indexed": false,
                    "internalType": "uint256",
                    "name": "_requested",
                    "type": "uint256"
                },
                {
                    "indexed": false,
                    "internalType": "uint256",
                    "name": "_actual",
                    "type": "uint256"
                }
            ],
            "name": "RoleUpdated",
            "type": "event"
        },
        {
            "anonymous": false,
            "inputs": [
                {
                    "indexed": true,
                    "internalType": "address",
                    "name": "_by",
                    "type": "address"
                },
                {
                    "indexed": true,
                    "internalType": "address",
                    "name": "_targetContract",
                    "type": "address"
                },
                {
                    "indexed": false,
                    "internalType": "uint8",
                    "name": "_oldVal",
                    "type": "uint8"
                },
                {
                    "indexed": false,
                    "internalType": "uint8",
                    "name": "_newVal",
                    "type": "uint8"
                }
            ],
            "name": "TargetContractWhitelisted",
            "type": "event"
        },
        {
            "anonymous": false,
            "inputs": [
                {
                    "indexed": true,
                    "internalType": "address",
                    "name": "_by",
                    "type": "address"
                },
                {
                    "indexed": true,
                    "internalType": "uint256",
                    "name": "_iNftId",
                    "type": "uint256"
                }
            ],
            "name": "Unlinked",
            "type": "event"
        },
        {
            "anonymous": false,
            "inputs": [
                {
                    "indexed": true,
                    "internalType": "address",
                    "name": "implementation",
                    "type": "address"
                }
            ],
            "name": "Upgraded",
            "type": "event"
        },
        {
            "inputs": [],
            "name": "FEATURE_ALLOW_ANY_NFT_CONTRACT_FOR_LINKING",
            "outputs": [
                {
                    "internalType": "uint32",
                    "name": "",
                    "type": "uint32"
                }
            ],
            "stateMutability": "view",
            "type": "function"
        },
        {
            "inputs": [],
            "name": "FEATURE_ALLOW_ANY_NFT_CONTRACT_FOR_UNLINKING",
            "outputs": [
                {
                    "internalType": "uint32",
                    "name": "",
                    "type": "uint32"
                }
            ],
            "stateMutability": "view",
            "type": "function"
        },
        {
            "inputs": [],
            "name": "FEATURE_DEPOSITS",
            "outputs": [
                {
                    "internalType": "uint32",
                    "name": "",
                    "type": "uint32"
                }
            ],
            "stateMutability": "view",
            "type": "function"
        },
        {
            "inputs": [],
            "name": "FEATURE_LINKING",
            "outputs": [
                {
                    "internalType": "uint32",
                    "name": "",
                    "type": "uint32"
                }
            ],
            "stateMutability": "view",
            "type": "function"
        },
        {
            "inputs": [],
            "name": "FEATURE_UNLINKING",
            "outputs": [
                {
                    "internalType": "uint32",
                    "name": "",
                    "type": "uint32"
                }
            ],
            "stateMutability": "view",
            "type": "function"
        },
        {
            "inputs": [],
            "name": "FEATURE_WITHDRAWALS",
            "outputs": [
                {
                    "internalType": "uint32",
                    "name": "",
                    "type": "uint32"
                }
            ],
            "stateMutability": "view",
            "type": "function"
        },
        {
            "inputs": [],
            "name": "ROLE_ACCESS_MANAGER",
            "outputs": [
                {
                    "internalType": "uint256",
                    "name": "",
                    "type": "uint256"
                }
            ],
            "stateMutability": "view",
            "type": "function"
        },
        {
            "inputs": [],
            "name": "ROLE_LINK_PRICE_MANAGER",
            "outputs": [
                {
                    "internalType": "uint32",
                    "name": "",
                    "type": "uint32"
                }
            ],
            "stateMutability": "view",
            "type": "function"
        },
        {
            "inputs": [],
            "name": "ROLE_NEXT_ID_MANAGER",
            "outputs": [
                {
                    "internalType": "uint32",
                    "name": "",
                    "type": "uint32"
                }
            ],
            "stateMutability": "view",
            "type": "function"
        },
        {
            "inputs": [],
            "name": "ROLE_UPGRADE_MANAGER",
            "outputs": [
                {
                    "internalType": "uint256",
                    "name": "",
                    "type": "uint256"
                }
            ],
            "stateMutability": "view",
            "type": "function"
        },
        {
            "inputs": [],
            "name": "ROLE_WHITELIST_MANAGER",
            "outputs": [
                {
                    "internalType": "uint32",
                    "name": "",
                    "type": "uint32"
                }
            ],
            "stateMutability": "view",
            "type": "function"
        },
        {
            "inputs": [],
            "name": "aliContract",
            "outputs": [
                {
                    "internalType": "address",
                    "name": "",
                    "type": "address"
                }
            ],
            "stateMutability": "view",
            "type": "function"
        },
        {
            "inputs": [
                {
                    "internalType": "uint256",
                    "name": "iNftId",
                    "type": "uint256"
                },
                {
                    "internalType": "uint96",
                    "name": "aliValue",
                    "type": "uint96"
                }
            ],
            "name": "deposit",
            "outputs": [],
            "stateMutability": "nonpayable",
            "type": "function"
        },
        {
            "inputs": [
                {
                    "internalType": "address",
                    "name": "operator",
                    "type": "address"
                },
                {
                    "internalType": "uint256",
                    "name": "target",
                    "type": "uint256"
                },
                {
                    "internalType": "uint256",
                    "name": "desired",
                    "type": "uint256"
                }
            ],
            "name": "evaluateBy",
            "outputs": [
                {
                    "internalType": "uint256",
                    "name": "",
                    "type": "uint256"
                }
            ],
            "stateMutability": "view",
            "type": "function"
        },
        {
            "inputs": [],
            "name": "features",
            "outputs": [
                {
                    "internalType": "uint256",
                    "name": "",
                    "type": "uint256"
                }
            ],
            "stateMutability": "view",
            "type": "function"
        },
        {
            "inputs": [],
            "name": "feeDestination",
            "outputs": [
                {
                    "internalType": "address",
                    "name": "",
                    "type": "address"
                }
            ],
            "stateMutability": "view",
            "type": "function"
        },
        {
            "inputs": [],
            "name": "getImplementation",
            "outputs": [
                {
                    "internalType": "address",
                    "name": "",
                    "type": "address"
                }
            ],
            "stateMutability": "view",
            "type": "function"
        },
        {
            "inputs": [],
            "name": "iNftContract",
            "outputs": [
                {
                    "internalType": "address",
                    "name": "",
                    "type": "address"
                }
            ],
            "stateMutability": "view",
            "type": "function"
        },
        {
            "inputs": [
                {
                    "internalType": "address",
                    "name": "targetContract",
                    "type": "address"
                }
            ],
            "name": "isAllowedForLinking",
            "outputs": [
                {
                    "internalType": "bool",
                    "name": "",
                    "type": "bool"
                }
            ],
            "stateMutability": "view",
            "type": "function"
        },
        {
            "inputs": [
                {
                    "internalType": "address",
                    "name": "targetContract",
                    "type": "address"
                }
            ],
            "name": "isAllowedForUnlinking",
            "outputs": [
                {
                    "internalType": "bool",
                    "name": "",
                    "type": "bool"
                }
            ],
            "stateMutability": "view",
            "type": "function"
        },
        {
            "inputs": [
                {
                    "internalType": "uint256",
                    "name": "required",
                    "type": "uint256"
                }
            ],
            "name": "isFeatureEnabled",
            "outputs": [
                {
                    "internalType": "bool",
                    "name": "",
                    "type": "bool"
                }
            ],
            "stateMutability": "view",
            "type": "function"
        },
        {
            "inputs": [
                {
                    "internalType": "address",
                    "name": "operator",
                    "type": "address"
                },
                {
                    "internalType": "uint256",
                    "name": "required",
                    "type": "uint256"
                }
            ],
            "name": "isOperatorInRole",
            "outputs": [
                {
                    "internalType": "bool",
                    "name": "",
                    "type": "bool"
                }
            ],
            "stateMutability": "view",
            "type": "function"
        },
        {
            "inputs": [
                {
                    "internalType": "uint256",
                    "name": "required",
                    "type": "uint256"
                }
            ],
            "name": "isSenderInRole",
            "outputs": [
                {
                    "internalType": "bool",
                    "name": "",
                    "type": "bool"
                }
            ],
            "stateMutability": "view",
            "type": "function"
        },
        {
            "inputs": [
                {
                    "internalType": "address",
                    "name": "targetContract",
                    "type": "address"
                }
            ],
            "name": "isWhitelisted",
            "outputs": [
                {
                    "internalType": "bool",
                    "name": "allowedForLinking",
                    "type": "bool"
                },
                {
                    "internalType": "bool",
                    "name": "allowedForUnlinking",
                    "type": "bool"
                },
                {
                    "internalType": "bool",
                    "name": "forbiddenForLinking",
                    "type": "bool"
                },
                {
                    "internalType": "bool",
                    "name": "forbiddenForUnlinking",
                    "type": "bool"
                }
            ],
            "stateMutability": "view",
            "type": "function"
        },
        {
            "inputs": [
                {
                    "internalType": "uint96",
                    "name": "personalityId",
                    "type": "uint96"
                },
                {
                    "internalType": "address",
                    "name": "targetContract",
                    "type": "address"
                },
                {
                    "internalType": "uint256",
                    "name": "targetId",
                    "type": "uint256"
                }
            ],
            "name": "link",
            "outputs": [],
            "stateMutability": "nonpayable",
            "type": "function"
        },
        {
            "inputs": [],
            "name": "linkFee",
            "outputs": [
                {
                    "internalType": "uint96",
                    "name": "",
                    "type": "uint96"
                }
            ],
            "stateMutability": "view",
            "type": "function"
        },
        {
            "inputs": [],
            "name": "linkPrice",
            "outputs": [
                {
                    "internalType": "uint96",
                    "name": "",
                    "type": "uint96"
                }
            ],
            "stateMutability": "view",
            "type": "function"
        },
        {
            "inputs": [],
            "name": "nextId",
            "outputs": [
                {
                    "internalType": "uint256",
                    "name": "",
                    "type": "uint256"
                }
            ],
            "stateMutability": "view",
            "type": "function"
        },
        {
            "inputs": [],
            "name": "personalityContract",
            "outputs": [
                {
                    "internalType": "address",
                    "name": "",
                    "type": "address"
                }
            ],
            "stateMutability": "view",
            "type": "function"
        },
        {
            "inputs": [
                {
                    "internalType": "uint256",
                    "name": "iNftId",
                    "type": "uint256"
                }
            ],
            "name": "unlink",
            "outputs": [],
            "stateMutability": "nonpayable",
            "type": "function"
        },
        {
            "inputs": [
                {
                    "internalType": "address",
                    "name": "nftContract",
                    "type": "address"
                },
                {
                    "internalType": "uint256",
                    "name": "nftId",
                    "type": "uint256"
                }
            ],
            "name": "unlinkNFT",
            "outputs": [],
            "stateMutability": "nonpayable",
            "type": "function"
        },
        {
            "inputs": [
                {
                    "internalType": "uint256",
                    "name": "_mask",
                    "type": "uint256"
                }
            ],
            "name": "updateFeatures",
            "outputs": [],
            "stateMutability": "nonpayable",
            "type": "function"
        },
        {
            "inputs": [
                {
                    "internalType": "uint96",
                    "name": "_linkPrice",
                    "type": "uint96"
                },
                {
                    "internalType": "uint96",
                    "name": "_linkFee",
                    "type": "uint96"
                },
                {
                    "internalType": "address",
                    "name": "_feeDestination",
                    "type": "address"
                }
            ],
            "name": "updateLinkPrice",
            "outputs": [],
            "stateMutability": "nonpayable",
            "type": "function"
        },
        {
            "inputs": [
                {
                    "internalType": "uint256",
                    "name": "_nextId",
                    "type": "uint256"
                }
            ],
            "name": "updateNextId",
            "outputs": [],
            "stateMutability": "nonpayable",
            "type": "function"
        },
        {
            "inputs": [
                {
                    "internalType": "address",
                    "name": "operator",
                    "type": "address"
                },
                {
                    "internalType": "uint256",
                    "name": "role",
                    "type": "uint256"
                }
            ],
            "name": "updateRole",
            "outputs": [],
            "stateMutability": "nonpayable",
            "type": "function"
        },
        {
            "inputs": [
                {
                    "internalType": "address",
                    "name": "newImplementation",
                    "type": "address"
                }
            ],
            "name": "upgradeTo",
            "outputs": [],
            "stateMutability": "nonpayable",
            "type": "function"
        },
        {
            "inputs": [
                {
                    "internalType": "address",
                    "name": "newImplementation",
                    "type": "address"
                },
                {
                    "internalType": "bytes",
                    "name": "data",
                    "type": "bytes"
                }
            ],
            "name": "upgradeToAndCall",
            "outputs": [],
            "stateMutability": "payable",
            "type": "function"
        },
        {
            "inputs": [
                {
                    "internalType": "address",
                    "name": "",
                    "type": "address"
                }
            ],
            "name": "userRoles",
            "outputs": [
                {
                    "internalType": "uint256",
                    "name": "",
                    "type": "uint256"
                }
            ],
            "stateMutability": "view",
            "type": "function"
        },
        {
            "inputs": [
                {
                    "internalType": "address",
                    "name": "targetContract",
                    "type": "address"
                },
                {
                    "internalType": "bool",
                    "name": "allowedForLinking",
                    "type": "bool"
                },
                {
                    "internalType": "bool",
                    "name": "allowedForUnlinking",
                    "type": "bool"
                },
                {
                    "internalType": "bool",
                    "name": "forbiddenForLinking",
                    "type": "bool"
                },
                {
                    "internalType": "bool",
                    "name": "forbiddenForUnlinking",
                    "type": "bool"
                }
            ],
            "name": "whitelistTargetContract",
            "outputs": [],
            "stateMutability": "nonpayable",
            "type": "function"
        },
        {
            "inputs": [
                {
                    "internalType": "address",
                    "name": "",
                    "type": "address"
                }
            ],
            "name": "whitelistedTargetContracts",
            "outputs": [
                {
                    "internalType": "uint8",
                    "name": "",
                    "type": "uint8"
                }
            ],
            "stateMutability": "view",
            "type": "function"
        },
        {
            "inputs": [
                {
                    "internalType": "uint256",
                    "name": "iNftId",
                    "type": "uint256"
                },
                {
                    "internalType": "uint96",
                    "name": "aliValue",
                    "type": "uint96"
                }
            ],
            "name": "withdraw",
            "outputs": [],
            "stateMutability": "nonpayable",
            "type": "function"
        }
    ],
    "args": [],
    "numDeployments": 1,
    "bytecode": "0x60a06040523060805234801561001457600080fd5b5060805161287f610045600039600081816109ed01528181610a2d01528181610aed0152610b2d015261287f6000f3fe6080604052600436106102465760003560e01c8063a1c6ef9311610139578063c960651b116100b6578063de53fcd51161007a578063de53fcd5146106f8578063eb31b05b1461071f578063f1082c2014610736578063f1e023fd1461074b578063f822d5aa1461076b578063fcc2c0781461078b57600080fd5b8063c960651b1461066c578063cf1c283214610681578063cfd9dadf146106a1578063d542d5dc146106b8578063d5bb7f67146106d857600080fd5b8063ae682e2e116100fd578063ae682e2e146105df578063b66c72ac146105f7578063c425742114610617578063c6179e581461062c578063c688d6931461064c57600080fd5b8063a1c6ef9314610552578063a841ee2814610572578063aaf10f4214610592578063ae5b102e146105a7578063ae60bda4146105c757600080fd5b80634f1ef286116101c757806378a9e4041161018b57806378a9e404146104c85780637fe43331146104dd57806383df7ad5146104fd5780638d936c1e1461051d5780639cf1bc921461053d57600080fd5b80634f1ef286146104225780635fa2ad4a1461043557806361b8ce8c14610455578063725f36261461046b57806374d5e1001461049b57600080fd5b80632b5214161161020e5780632b521416146103355780633659cfe6146103615780633af32abf146103815780633e0f0fa4146103cb5780634d4c42891461040d57600080fd5b8063018896111461024b5780630cf78535146102885780630dc3d284146102af5780631ca4f8ee146102e757806327d5b0aa14610313575b600080fd5b34801561025757600080fd5b50609a5461026b906001600160601b031681565b6040516001600160601b0390911681526020015b60405180910390f35b34801561029457600080fd5b5060995461026b90600160a01b90046001600160601b031681565b3480156102bb57600080fd5b506099546102cf906001600160a01b031681565b6040516001600160a01b03909116815260200161027f565b3480156102f357600080fd5b506102fe6204000081565b60405163ffffffff909116815260200161027f565b34801561031f57600080fd5b5061033361032e3660046121b1565b6107ab565b005b34801561034157600080fd5b50306000908152606560205260409020545b60405190815260200161027f565b34801561036d57600080fd5b5061033361037c3660046121dd565b6109e3565b34801561038d57600080fd5b506103a161039c3660046121dd565b610aab565b6040805194151585529215156020850152901515918301919091521515606082015260800161027f565b3480156103d757600080fd5b506103fb6103e63660046121dd565b609c6020526000908152604090205460ff1681565b60405160ff909116815260200161027f565b34801561041957600080fd5b506102fe600481565b610333610430366004612210565b610ae3565b34801561044157600080fd5b506103336104503660046122e9565b610b9c565b34801561046157600080fd5b50610353609b5481565b34801561047757600080fd5b5061048b610486366004612334565b610da1565b604051901515815260200161027f565b3480156104a757600080fd5b506103536104b63660046121dd565b60656020526000908152604090205481565b3480156104d457600080fd5b506102fe600881565b3480156104e957600080fd5b506103336104f836600461235b565b610dbc565b34801561050957600080fd5b506097546102cf906001600160a01b031681565b34801561052957600080fd5b506103336105383660046123cc565b610fc7565b34801561054957600080fd5b506102fe600181565b34801561055e57600080fd5b5061033361056d366004612334565b611406565b34801561057e57600080fd5b5061033361058d36600461240d565b6114b4565b34801561059e57600080fd5b506102cf611746565b3480156105b357600080fd5b506103336105c23660046121b1565b611755565b3480156105d357600080fd5b50610353600160fe1b81565b3480156105eb57600080fd5b50610353600160ff1b81565b34801561060357600080fd5b5061033361061236600461240d565b611808565b34801561062357600080fd5b506102fe601081565b34801561063857600080fd5b506098546102cf906001600160a01b031681565b34801561065857600080fd5b5061048b6106673660046121b1565b611b1f565b34801561067857600080fd5b506102fe600281565b34801561068d57600080fd5b5061048b61069c3660046121dd565b611b44565b3480156106ad57600080fd5b506102fe6201000081565b3480156106c457600080fd5b5061048b6106d33660046121dd565b611b7a565b3480156106e457600080fd5b506103336106f3366004612334565b611ba8565b34801561070457600080fd5b50609a546102cf90600160601b90046001600160a01b031681565b34801561072b57600080fd5b506102fe6202000081565b34801561074257600080fd5b506102fe604081565b34801561075757600080fd5b50610333610766366004612334565b611bb2565b34801561077757600080fd5b5061035361078636600461243d565b611dba565b34801561079757600080fd5b5061048b6107a6366004612334565b611de5565b6107b56002610da1565b6107fe5760405162461bcd60e51b81526020600482015260156024820152741d5b9b1a5b9ada5b99c81a5cc8191a5cd8589b1959605a1b60448201526064015b60405180910390fd5b6099546040516331a9108f60e11b8152600481018390526001600160a01b0391821691339190851690636352211e90602401602060405180830381865afa15801561084d573d6000803e3d6000fd5b505050506040513d601f19601f820116820180604052508101906108719190612472565b6001600160a01b0316146108ba5760405162461bcd60e51b815260206004820152601060248201526f3737ba1030b71027232a1037bbb732b960811b60448201526064016107f5565b6040516303366f7f60e21b81526001600160a01b0384811660048301526024820184905260009190831690630cd9bdfc90604401602060405180830381865afa15801561090b573d6000803e3d6000fd5b505050506040513d601f19601f8201168201806040525081019061092f919061248f565b905061093a84611b44565b6109565760405162461bcd60e51b81526004016107f5906124a8565b604051630852cd8d60e31b8152600481018290526001600160a01b038316906342966c6890602401600060405180830381600087803b15801561099857600080fd5b505af11580156109ac573d6000803e3d6000fd5b50506040518392503391507fdfa02adc9cf1364277c3c57daa66f9e9d90d54e6816235d64c77f3fce73f17be90600090a350505050565b6001600160a01b037f0000000000000000000000000000000000000000000000000000000000000000163003610a2b5760405162461bcd60e51b81526004016107f5906124df565b7f00000000000000000000000000000000000000000000000000000000000000006001600160a01b0316610a5d611df1565b6001600160a01b031614610a835760405162461bcd60e51b81526004016107f59061252b565b610a8c81611e1f565b60408051600080825260208201909252610aa891839190611e48565b50565b6001600160a01b03166000908152609c6020526040902054600180821614916002808316149160048082161491600891821690911490565b6001600160a01b037f0000000000000000000000000000000000000000000000000000000000000000163003610b2b5760405162461bcd60e51b81526004016107f5906124df565b7f00000000000000000000000000000000000000000000000000000000000000006001600160a01b0316610b5d611df1565b6001600160a01b031614610b835760405162461bcd60e51b81526004016107f59061252b565b610b8c82611e1f565b610b9882826001611e48565b5050565b610ba862010000611de5565b610bc45760405162461bcd60e51b81526004016107f590612577565b6001600160601b0383161580610be8575064e8d4a51000836001600160601b031610155b610c245760405162461bcd60e51b815260206004820152600d60248201526c696e76616c696420707269636560981b60448201526064016107f5565b6001600160601b038216158015610c4257506001600160a01b038116155b80610c6e575064e8d4a51000826001600160601b031610158015610c6e57506001600160a01b03811615155b610cba5760405162461bcd60e51b815260206004820152601c60248201527f696e76616c6964206c696e6b696e67206665652f74726561737572790000000060448201526064016107f5565b826001600160601b0316826001600160601b03161115610d265760405162461bcd60e51b815260206004820152602160248201527f6c696e6b696e67206665652065786365656473206c696e6b696e6720707269636044820152606560f81b60648201526084016107f5565b609980546001600160601b03858116600160a01b81026001600160a01b0393841617909355908316600160601b8102918516918217609a556040805193845260208401929092529133917f5f0d10b02f0b30044bc718c9f66f21a6bdfd73fd50346fa8bdeeab9c20fb844391015b60405180910390a3505050565b30600090815260656020526040812054821682145b92915050565b610dc862040000611de5565b610de45760405162461bcd60e51b81526004016107f590612577565b6001600160a01b038516610e295760405162461bcd60e51b815260206004820152600c60248201526b7a65726f206164647265737360a01b60448201526064016107f5565b8315610eea576040516301ffc9a760e01b81526380ac58cd60e01b60048201526001600160a01b038616906301ffc9a790602401602060405180830381865afa158015610e7a573d6000803e3d6000fd5b505050506040513d601f19601f82011682018060405250810190610e9e919061259e565b610eea5760405162461bcd60e51b815260206004820152601860248201527f746172676574204e4654206973206e6f7420455243373231000000000000000060448201526064016107f5565b600081610ef8576000610efb565b60085b83610f07576000610f0a565b60045b85610f16576000610f19565b60025b87610f25576000610f28565b60015b6001600160a01b038a166000818152609c602090815260409182902054825160ff9182168152959094179590951795909517918216938301939093529350909133917f3a3ca66be8fde14aec70663d5c198392dc74a3ad641905f583393d5415178d2f910160405180910390a36001600160a01b03959095166000908152609c60205260409020805460ff191660ff9096169590951790945550505050565b610fd16001610da1565b6110135760405162461bcd60e51b81526020600482015260136024820152721b1a5b9ada5b99c81a5cc8191a5cd8589b1959606a1b60448201526064016107f5565b6098546040516331a9108f60e11b81526001600160601b038516600482015233916001600160a01b031690636352211e90602401602060405180830381865afa158015611064573d6000803e3d6000fd5b505050506040513d601f19601f820116820180604052508101906110889190612472565b6001600160a01b0316146110ae5760405162461bcd60e51b81526004016107f590612577565b6110b782611b7a565b6110d35760405162461bcd60e51b81526004016107f5906124a8565b609a546001600160601b03161561116f57609754609a546040516323b872dd60e01b81526001600160a01b03928316926323b872dd9261112a923392600160601b830416916001600160601b0316906004016125bb565b6020604051808303816000875af1158015611149573d6000803e3d6000fd5b505050506040513d601f19601f8201168201806040525081019061116d919061259e565b505b609954600160a01b90046001600160601b03161561122957609754609954609a546001600160a01b03928316926323b872dd923392918116916111c6916001600160601b0391821691600160a01b909104166125fd565b6040518463ffffffff1660e01b81526004016111e4939291906125bb565b6020604051808303816000875af1158015611203573d6000803e3d6000fd5b505050506040513d601f19601f82011682018060405250810190611227919061259e565b505b6098546099546040516323b872dd60e01b81526001600160a01b03928316926323b872dd926112629233929091169088906004016125bb565b600060405180830381600087803b15801561127c57600080fd5b505af1158015611290573d6000803e3d6000fd5b5050609954609b80546001600160a01b039092169350632c8d3fa3925060006112b883612625565b90915550609a546099546112df916001600160601b0390811691600160a01b9004166125fd565b60985460405160e085901b6001600160e01b031916815260048101939093526001600160601b0391821660248401526001600160a01b03908116604484015290871660648301528516608482015260a4810184905260c401600060405180830381600087803b15801561135157600080fd5b505af1158015611365573d6000803e3d6000fd5b5050609854609b546001600160601b03871693506001600160a01b03909116915033907f4c5f6243e66f868e375120e87ec9c0e34ad78379d66dca7921055094b6a7eacd906113b69060019061263e565b609954609a5460408051938452600160a01b9092046001600160601b03908116602085015216908201526001600160a01b03871660608201526080810186905260a00160405180910390a4505050565b61141262020000611de5565b61142e5760405162461bcd60e51b81526004016107f590612577565b63ffffffff81116114715760405162461bcd60e51b815260206004820152600d60248201526c76616c756520746f6f206c6f7760981b60448201526064016107f5565b609b54604080519182526020820183905233917f9e66ea12c52a59bf2f0b1a9e2552dc42a46982c7a2c17c098b82166866dd8450910160405180910390a2609b55565b6114be6010610da1565b61150a5760405162461bcd60e51b815260206004820152601860248201527f7769746864726177616c73206172652064697361626c6564000000000000000060448201526064016107f5565b6099546040516331a9108f60e11b8152600481018490526001600160a01b039091169033908290636352211e90602401602060405180830381865afa158015611557573d6000803e3d6000fd5b505050506040513d601f19601f8201168201806040525081019061157b9190612472565b6001600160a01b0316146115a15760405162461bcd60e51b81526004016107f590612655565b6099546115be90600160a01b90046001600160601b031683612680565b6001600160601b0316816001600160a01b031663d12b5320856040518263ffffffff1660e01b81526004016115f591815260200190565b602060405180830381865afa158015611612573d6000803e3d6000fd5b505050506040513d601f19601f8201168201806040525081019061163691906126ab565b6001600160601b0316101561167f5760405162461bcd60e51b815260206004820152600f60248201526e6465706f73697420746f6f206c6f7760881b60448201526064016107f5565b604051634cc7f53f60e01b8152600481018490526001600160601b03831660248201523360448201526001600160a01b03821690634cc7f53f90606401600060405180830381600087803b1580156116d657600080fd5b505af11580156116ea573d6000803e3d6000fd5b5050505082336001600160a01b03167f493ef55f20ebab6167ee6aa104d68707ac6d1af20254df7b68d53e081c62973a846001600160601b031661172d906126c8565b60408051600f9290920b82526000602083015201610d94565b6000611750611df1565b905090565b611762600160ff1b611de5565b61177e5760405162461bcd60e51b81526004016107f590612577565b6001600160a01b0382166000908152606560205260409020546117a390339083611dba565b6001600160a01b0383166000818152606560205260409081902083905551909133917f5a10526456f5116c0b7b80582c217d666243fd51b6a2d92c8011e601c2462e5f916117fc91869190918252602082015260400190565b60405180910390a35050565b6118126008610da1565b6118565760405162461bcd60e51b815260206004820152601560248201527419195c1bdcda5d1cc8185c9948191a5cd8589b1959605a1b60448201526064016107f5565b6099546040516331a9108f60e11b8152600481018490526001600160a01b039091169033908290636352211e90602401602060405180830381865afa1580156118a3573d6000803e3d6000fd5b505050506040513d601f19601f820116820180604052508101906118c79190612472565b6001600160a01b0316146118ed5760405162461bcd60e51b81526004016107f590612655565b6099546000908390600160a01b90046001600160601b03161580159061191d5750609a546001600160601b031615155b156119e857609954609a546001600160601b03600160a01b9092048216916119499181169084166126f7565b6119539190612716565b915061195f82856125fd565b609754609a546040516323b872dd60e01b81529293506001600160a01b03918216926323b872dd926119a3923392600160601b9091049091169087906004016125bb565b6020604051808303816000875af11580156119c2573d6000803e3d6000fd5b505050506040513d601f19601f820116820180604052508101906119e6919061259e565b505b6097546099546040516323b872dd60e01b81526001600160a01b03928316926323b872dd92611a219233929091169086906004016125bb565b6020604051808303816000875af1158015611a40573d6000803e3d6000fd5b505050506040513d601f19601f82011682018060405250810190611a64919061259e565b50604051634a35dcff60e01b8152600481018690526001600160601b03821660248201526001600160a01b03841690634a35dcff90604401600060405180830381600087803b158015611ab657600080fd5b505af1158015611aca573d6000803e3d6000fd5b5050604080516001600160601b03808616600f0b8252861660208201528893503392507f493ef55f20ebab6167ee6aa104d68707ac6d1af20254df7b68d53e081c62973a910160405180910390a35050505050565b6001600160a01b038216600090815260656020526040812054821682145b9392505050565b6000806000611b5284610aab565b93505092505080158015611b7257508180611b725750611b726040610da1565b949350505050565b6000806000611b8884610aab565b50925050915080158015611b7257508180611b725750611b726004610da1565b610aa83082611755565b611bbc6002610da1565b611c005760405162461bcd60e51b81526020600482015260156024820152741d5b9b1a5b9ada5b99c81a5cc8191a5cd8589b1959605a1b60448201526064016107f5565b6099546040516399a2241f60e01b8152600481018390526001600160a01b039091169060009082906399a2241f9060240160a060405180830381865afa158015611c4e573d6000803e3d6000fd5b505050506040513d601f19601f82011682018060405250810190611c729190612738565b509350505050611c8181611b44565b611c9d5760405162461bcd60e51b81526004016107f5906124a8565b6040516331a9108f60e11b81526004810184905233906001600160a01b03841690636352211e90602401602060405180830381865afa158015611ce4573d6000803e3d6000fd5b505050506040513d601f19601f82011682018060405250810190611d089190612472565b6001600160a01b031614611d2e5760405162461bcd60e51b81526004016107f590612655565b604051630852cd8d60e31b8152600481018490526001600160a01b038316906342966c6890602401600060405180830381600087803b158015611d7057600080fd5b505af1158015611d84573d6000803e3d6000fd5b50506040518592503391507fdfa02adc9cf1364277c3c57daa66f9e9d90d54e6816235d64c77f3fce73f17be90600090a3505050565b6001600160a01b03929092166000908152606560205260409020546000198084188216189216171690565b6000610db63383611b1f565b7f360894a13ba1a3210667c828492db98dca3e2076cc3735a920a3ca505d382bbc546001600160a01b031690565b611e2c600160fe1b611de5565b610aa85760405162461bcd60e51b81526004016107f590612577565b6000611e52611df1565b9050611e5d84611f93565b600083511180611e6a5750815b15611e7b57611e798484612038565b505b7f4910fdfa16fed3260ed0e7147f7cc6da11a60208b5b9406d12a635614ffd9143805460ff16611f8c57805460ff191660011781556040516001600160a01b0383166024820152611efa90869060440160408051601f198184030181529190526020810180516001600160e01b0316631b2ce7f360e11b179052612038565b50805460ff19168155611f0b611df1565b6001600160a01b0316826001600160a01b031614611f835760405162461bcd60e51b815260206004820152602f60248201527f45524331393637557067726164653a207570677261646520627265616b73206660448201526e75727468657220757067726164657360881b60648201526084016107f5565b611f8c85612123565b5050505050565b803b611ff75760405162461bcd60e51b815260206004820152602d60248201527f455243313936373a206e657720696d706c656d656e746174696f6e206973206e60448201526c1bdd08184818dbdb9d1c9858dd609a1b60648201526084016107f5565b7f360894a13ba1a3210667c828492db98dca3e2076cc3735a920a3ca505d382bbc80546001600160a01b0319166001600160a01b0392909216919091179055565b6060823b6120975760405162461bcd60e51b815260206004820152602660248201527f416464726573733a2064656c65676174652063616c6c20746f206e6f6e2d636f6044820152651b9d1c9858dd60d21b60648201526084016107f5565b600080846001600160a01b0316846040516120b291906127d3565b600060405180830381855af49150503d80600081146120ed576040519150601f19603f3d011682016040523d82523d6000602084013e6120f2565b606091505b509150915061211a828260405180606001604052806027815260200161282360279139612163565b95945050505050565b61212c81611f93565b6040516001600160a01b038216907fbc7cd75a20ee27fd9adebab32041f755214dbc6bffa90cc0225b39da2e5c2d3b90600090a250565b60608315612172575081611b3d565b8251156121825782518084602001fd5b8160405162461bcd60e51b81526004016107f591906127ef565b6001600160a01b0381168114610aa857600080fd5b600080604083850312156121c457600080fd5b82356121cf8161219c565b946020939093013593505050565b6000602082840312156121ef57600080fd5b8135611b3d8161219c565b634e487b7160e01b600052604160045260246000fd5b6000806040838503121561222357600080fd5b823561222e8161219c565b9150602083013567ffffffffffffffff8082111561224b57600080fd5b818501915085601f83011261225f57600080fd5b813581811115612271576122716121fa565b604051601f8201601f19908116603f01168101908382118183101715612299576122996121fa565b816040528281528860208487010111156122b257600080fd5b8260208601602083013760006020848301015280955050505050509250929050565b6001600160601b0381168114610aa857600080fd5b6000806000606084860312156122fe57600080fd5b8335612309816122d4565b92506020840135612319816122d4565b915060408401356123298161219c565b809150509250925092565b60006020828403121561234657600080fd5b5035919050565b8015158114610aa857600080fd5b600080600080600060a0868803121561237357600080fd5b853561237e8161219c565b9450602086013561238e8161234d565b9350604086013561239e8161234d565b925060608601356123ae8161234d565b915060808601356123be8161234d565b809150509295509295909350565b6000806000606084860312156123e157600080fd5b83356123ec816122d4565b925060208401356123fc8161219c565b929592945050506040919091013590565b6000806040838503121561242057600080fd5b823591506020830135612432816122d4565b809150509250929050565b60008060006060848603121561245257600080fd5b833561245d8161219c565b95602085013595506040909401359392505050565b60006020828403121561248457600080fd5b8151611b3d8161219c565b6000602082840312156124a157600080fd5b5051919050565b6020808252601e908201527f6e6f7420612077686974656c6973746564204e465420636f6e74726163740000604082015260600190565b6020808252602c908201527f46756e6374696f6e206d7573742062652063616c6c6564207468726f7567682060408201526b19195b1959d85d1958d85b1b60a21b606082015260800190565b6020808252602c908201527f46756e6374696f6e206d7573742062652063616c6c6564207468726f7567682060408201526b6163746976652070726f787960a01b606082015260800190565b6020808252600d908201526c1858d8d95cdcc819195b9a5959609a1b604082015260600190565b6000602082840312156125b057600080fd5b8151611b3d8161234d565b6001600160a01b0393841681529190921660208201526001600160601b03909116604082015260600190565b634e487b7160e01b600052601160045260246000fd5b60006001600160601b038381169083168181101561261d5761261d6125e7565b039392505050565b600060018201612637576126376125e7565b5060010190565b600082821015612650576126506125e7565b500390565b6020808252601190820152703737ba1030b71034a7232a1037bbb732b960791b604082015260600190565b60006001600160601b038083168185168083038211156126a2576126a26125e7565b01949350505050565b6000602082840312156126bd57600080fd5b8151611b3d816122d4565b600081600f0b6f7fffffffffffffffffffffffffffffff1981036126ee576126ee6125e7565b60000392915050565b6000816000190483118215151615612711576127116125e7565b500290565b60008261273357634e487b7160e01b600052601260045260246000fd5b500490565b600080600080600060a0868803121561275057600080fd5b855161275b8161219c565b602087015190955061276c816122d4565b604087015190945061277d816122d4565b606087015190935061278e8161219c565b80925050608086015190509295509295909350565b60005b838110156127be5781810151838201526020016127a6565b838111156127cd576000848401525b50505050565b600082516127e58184602087016127a3565b9190910192915050565b602081526000825180602084015261280e8160408501602087016127a3565b601f01601f1916919091016040019291505056fe416464726573733a206c6f772d6c6576656c2064656c65676174652063616c6c206661696c6564a26469706673582212205be9d305c27d4cac6d2d78db46cb72f9c4b60056de1cc83e38b30746d39360a164736f6c634300080f0033"
}