{
  "_format": "hh-sol-artifact-1",
  "contractName": "NFTStakingV2",
  "sourceName": "contracts/protocol/NFTStakingV2.sol",
  "abi": [
    {
      "inputs": [
        {
          "internalType": "address",
          "name": "_nft",
          "type": "address"
        },
        {
          "internalType": "uint32",
          "name": "_lockingPeriod",
          "type": "uint32"
        }
      ],
      "stateMutability": "nonpayable",
      "type": "constructor"
    },
    {
      "anonymous": false,
      "inputs": [
        {
          "indexed": true,
          "internalType": "address",
          "name": "_by",
          "type": "address"
        },
        {
          "indexed": false,
          "internalType": "uint32",
          "name": "_lockingPeriod",
          "type": "uint32"
        }
      ],
      "name": "LockingPeriodUpdated",
      "type": "event"
    },
    {
      "anonymous": false,
      "inputs": [
        {
          "indexed": true,
          "internalType": "address",
          "name": "operator",
          "type": "address"
        },
        {
          "indexed": false,
          "internalType": "uint256",
          "name": "requested",
          "type": "uint256"
        },
        {
          "indexed": false,
          "internalType": "uint256",
          "name": "assigned",
          "type": "uint256"
        }
      ],
      "name": "RoleUpdated",
      "type": "event"
    },
    {
      "anonymous": false,
      "inputs": [
        {
          "indexed": true,
          "internalType": "address",
          "name": "_by",
          "type": "address"
        },
        {
          "indexed": true,
          "internalType": "uint128",
          "name": "_tokenId",
          "type": "uint128"
        },
        {
          "indexed": false,
          "internalType": "uint32",
          "name": "_when",
          "type": "uint32"
        }
      ],
      "name": "Staked",
      "type": "event"
    },
    {
      "anonymous": false,
      "inputs": [
        {
          "indexed": true,
          "internalType": "address",
          "name": "_by",
          "type": "address"
        },
        {
          "indexed": true,
          "internalType": "uint128",
          "name": "_tokenId",
          "type": "uint128"
        },
        {
          "indexed": false,
          "internalType": "uint32",
          "name": "_when",
          "type": "uint32"
        }
      ],
      "name": "Unstaked",
      "type": "event"
    },
    {
      "inputs": [],
      "name": "FEATURE_LOCKING",
      "outputs": [
        {
          "internalType": "uint32",
          "name": "",
          "type": "uint32"
        }
      ],
      "stateMutability": "view",
      "type": "function"
    },
    {
      "inputs": [],
      "name": "FEATURE_STAKING",
      "outputs": [
        {
          "internalType": "uint32",
          "name": "",
          "type": "uint32"
        }
      ],
      "stateMutability": "view",
      "type": "function"
    },
    {
      "inputs": [],
      "name": "FEATURE_UNSTAKING",
      "outputs": [
        {
          "internalType": "uint32",
          "name": "",
          "type": "uint32"
        }
      ],
      "stateMutability": "view",
      "type": "function"
    },
    {
      "inputs": [],
      "name": "ROLE_ACCESS_MANAGER",
      "outputs": [
        {
          "internalType": "uint256",
          "name": "",
          "type": "uint256"
        }
      ],
      "stateMutability": "view",
      "type": "function"
    },
    {
      "inputs": [],
      "name": "ROLE_LP_CONFIG_MANAGER",
      "outputs": [
        {
          "internalType": "uint32",
          "name": "",
          "type": "uint32"
        }
      ],
      "stateMutability": "view",
      "type": "function"
    },
    {
      "inputs": [],
      "name": "ROLE_RESCUE_MANAGER",
      "outputs": [
        {
          "internalType": "uint32",
          "name": "",
          "type": "uint32"
        }
      ],
      "stateMutability": "view",
      "type": "function"
    },
    {
      "inputs": [],
      "name": "features",
      "outputs": [
        {
          "internalType": "uint256",
          "name": "",
          "type": "uint256"
        }
      ],
      "stateMutability": "view",
      "type": "function"
    },
    {
      "inputs": [
        {
          "internalType": "address",
          "name": "operator",
          "type": "address"
        }
      ],
      "name": "getRole",
      "outputs": [
        {
          "internalType": "uint256",
          "name": "",
          "type": "uint256"
        }
      ],
      "stateMutability": "view",
      "type": "function"
    },
    {
      "inputs": [
        {
          "internalType": "uint256",
          "name": "required",
          "type": "uint256"
        }
      ],
      "name": "isFeatureEnabled",
      "outputs": [
        {
          "internalType": "bool",
          "name": "",
          "type": "bool"
        }
      ],
      "stateMutability": "view",
      "type": "function"
    },
    {
      "inputs": [
        {
          "internalType": "uint128",
          "name": "tokenId",
          "type": "uint128"
        }
      ],
      "name": "isLocked",
      "outputs": [
        {
          "internalType": "bool",
          "name": "",
          "type": "bool"
        }
      ],
      "stateMutability": "view",
      "type": "function"
    },
    {
      "inputs": [
        {
          "internalType": "address",
          "name": "operator",
          "type": "address"
        },
        {
          "internalType": "uint256",
          "name": "required",
          "type": "uint256"
        }
      ],
      "name": "isOperatorInRole",
      "outputs": [
        {
          "internalType": "bool",
          "name": "",
          "type": "bool"
        }
      ],
      "stateMutability": "view",
      "type": "function"
    },
    {
      "inputs": [
        {
          "internalType": "uint256",
          "name": "required",
          "type": "uint256"
        }
      ],
      "name": "isSenderInRole",
      "outputs": [
        {
          "internalType": "bool",
          "name": "",
          "type": "bool"
        }
      ],
      "stateMutability": "view",
      "type": "function"
    },
    {
      "inputs": [
        {
          "internalType": "uint128",
          "name": "tokenId",
          "type": "uint128"
        }
      ],
      "name": "isStaked",
      "outputs": [
        {
          "internalType": "bool",
          "name": "",
          "type": "bool"
        }
      ],
      "stateMutability": "view",
      "type": "function"
    },
    {
      "inputs": [],
      "name": "lockingPeriod",
      "outputs": [
        {
          "internalType": "uint32",
          "name": "",
          "type": "uint32"
        }
      ],
      "stateMutability": "view",
      "type": "function"
    },
    {
      "inputs": [],
      "name": "now32",
      "outputs": [
        {
          "internalType": "uint32",
          "name": "",
          "type": "uint32"
        }
      ],
      "stateMutability": "view",
      "type": "function"
    },
    {
      "inputs": [
        {
          "internalType": "address",
          "name": "owner",
          "type": "address"
        }
      ],
      "name": "numStakes",
      "outputs": [
        {
          "internalType": "uint256",
          "name": "",
          "type": "uint256"
        }
      ],
      "stateMutability": "view",
      "type": "function"
    },
    {
      "inputs": [
        {
          "internalType": "uint128",
          "name": "tokenId",
          "type": "uint128"
        }
      ],
      "name": "numStakes",
      "outputs": [
        {
          "internalType": "uint256",
          "name": "",
          "type": "uint256"
        }
      ],
      "stateMutability": "view",
      "type": "function"
    },
    {
      "inputs": [
        {
          "internalType": "address",
          "name": "_contract",
          "type": "address"
        },
        {
          "internalType": "address",
          "name": "_to",
          "type": "address"
        },
        {
          "internalType": "uint256",
          "name": "_value",
          "type": "uint256"
        }
      ],
      "name": "rescueErc20",
      "outputs": [],
      "stateMutability": "nonpayable",
      "type": "function"
    },
    {
      "inputs": [
        {
          "internalType": "address",
          "name": "_contract",
          "type": "address"
        },
        {
          "internalType": "address",
          "name": "_to",
          "type": "address"
        },
        {
          "internalType": "uint256",
          "name": "_tokenId",
          "type": "uint256"
        }
      ],
      "name": "rescueErc721",
      "outputs": [],
      "stateMutability": "nonpayable",
      "type": "function"
    },
    {
      "inputs": [
        {
          "internalType": "uint128",
          "name": "tokenId",
          "type": "uint128"
        }
      ],
      "name": "stake",
      "outputs": [],
      "stateMutability": "nonpayable",
      "type": "function"
    },
    {
      "inputs": [
        {
          "internalType": "uint128[]",
          "name": "tokenIds",
          "type": "uint128[]"
        }
      ],
      "name": "stakeBatch",
      "outputs": [],
      "stateMutability": "nonpayable",
      "type": "function"
    },
    {
      "inputs": [],
      "name": "targetContract",
      "outputs": [
        {
          "internalType": "address",
          "name": "",
          "type": "address"
        }
      ],
      "stateMutability": "view",
      "type": "function"
    },
    {
      "inputs": [
        {
          "internalType": "uint128",
          "name": "",
          "type": "uint128"
        },
        {
          "internalType": "uint256",
          "name": "",
          "type": "uint256"
        }
      ],
      "name": "tokenStakes",
      "outputs": [
        {
          "internalType": "address",
          "name": "owner",
          "type": "address"
        },
        {
          "internalType": "uint32",
          "name": "unlockTime",
          "type": "uint32"
        },
        {
          "internalType": "uint32",
          "name": "stakedOn",
          "type": "uint32"
        },
        {
          "internalType": "uint32",
          "name": "unstakedOn",
          "type": "uint32"
        }
      ],
      "stateMutability": "view",
      "type": "function"
    },
    {
      "inputs": [
        {
          "internalType": "uint128",
          "name": "tokenId",
          "type": "uint128"
        }
      ],
      "name": "unstake",
      "outputs": [],
      "stateMutability": "nonpayable",
      "type": "function"
    },
    {
      "inputs": [
        {
          "internalType": "uint128[]",
          "name": "tokenIds",
          "type": "uint128[]"
        }
      ],
      "name": "unstakeBatch",
      "outputs": [],
      "stateMutability": "nonpayable",
      "type": "function"
    },
    {
      "inputs": [
        {
          "internalType": "uint256",
          "name": "_mask",
          "type": "uint256"
        }
      ],
      "name": "updateFeatures",
      "outputs": [],
      "stateMutability": "nonpayable",
      "type": "function"
    },
    {
      "inputs": [
        {
          "internalType": "uint32",
          "name": "_lockingPeriod",
          "type": "uint32"
        }
      ],
      "name": "updateLockingPeriod",
      "outputs": [],
      "stateMutability": "nonpayable",
      "type": "function"
    },
    {
      "inputs": [
        {
          "internalType": "address",
          "name": "operator",
          "type": "address"
        },
        {
          "internalType": "uint256",
          "name": "role",
          "type": "uint256"
        }
      ],
      "name": "updateRole",
      "outputs": [],
      "stateMutability": "nonpayable",
      "type": "function"
    },
    {
      "inputs": [
        {
          "internalType": "address",
          "name": "",
          "type": "address"
        },
        {
          "internalType": "uint256",
          "name": "",
          "type": "uint256"
        }
      ],
      "name": "userStakes",
      "outputs": [
        {
          "internalType": "uint128",
          "name": "tokenId",
          "type": "uint128"
        },
        {
          "internalType": "uint128",
          "name": "index",
          "type": "uint128"
        }
      ],
      "stateMutability": "view",
      "type": "function"
    }
  ],
  "bytecode": "0x60a06040523480156200001157600080fd5b5060405162001704380380620017048339810160408190526200003491620002e8565b3362000044816000198062000197565b506001600160a01b038216620000a15760405162461bcd60e51b815260206004820152601a60248201527f74617267657420636f6e7472616374206973206e6f742073657400000000000060448201526064015b60405180910390fd5b6040516301ffc9a760e01b81526380ac58cd60e01b60048201526001600160a01b038316906301ffc9a790602401602060405180830381865afa158015620000ed573d6000803e3d6000fd5b505050506040513d601f19601f820116820180604052508101906200011391906200033a565b620001615760405162461bcd60e51b815260206004820152601660248201527f756e657870656374656420746172676574207479706500000000000000000000604482015260640162000098565b6001600160a01b0382166080526003805463ffffffff191663ffffffff83161790556200018f6004620001ef565b50506200035e565b6001600160a01b0383166000818152602081815260409182902084905581518581529081018490527fe9be537308880e0f56b7d7cfd7abf85f14c4934486d138f848b92a0cbaf659b4910160405180910390a2505050565b620001fb3082620001fe565b50565b6200020d600160ff1b620002af565b6200024b5760405162461bcd60e51b815260206004820152600d60248201526c1858d8d95cdcc819195b9a5959609a1b604482015260640162000098565b620002ab8282620002a53362000276846001600160a01b031660009081526020819052604090205490565b6001600160a01b0391909116600090815260208190526040902054600019808818821618908716919091171690565b62000197565b5050565b6000620002bd3383620002c3565b92915050565b6001600160a01b038216600090815260208190526040812054821682145b9392505050565b60008060408385031215620002fc57600080fd5b82516001600160a01b03811681146200031457600080fd5b602084015190925063ffffffff811681146200032f57600080fd5b809150509250929050565b6000602082840312156200034d57600080fd5b81518015158114620002e157600080fd5b6080516113756200038f60003960008181610433015281816104df01528181610a020152610cee01526113756000f3fe608060405234801561001057600080fd5b50600436106101cf5760003560e01c8063490b7b9a11610104578063ae682e2e116100a2578063c688d69311610071578063c688d6931461046d578063d5bb7f6714610480578063e60999ab14610493578063fcc2c0781461049957600080fd5b8063ae682e2e146103a7578063b3f15336146103b2578063b5d5b5fa146103fb578063bd90df701461042e57600080fd5b80635cf9854b116100de5780635cf9854b14610366578063725f36261461036e57806388fe2be814610381578063ae5b102e1461039457600080fd5b8063490b7b9a1461033b5780634ec7c9fb14610343578063550066d51461035657600080fd5b8063366d4f8811610171578063458a1d6e1161014b578063458a1d6e146102d957806346fc595c146102ec578063474d0c14146102ff57806348f0268c1461031257600080fd5b8063366d4f8814610295578063410901591461029d57806344276733146102b057600080fd5b80632b521416116101ad5780632b521416146102205780632d17f8bc1461023f5780632fa78bbf146102495780633467e9e11461026c57600080fd5b80630a7e77f5146101d457806316ce9f0c146101f8578063243feb991461020d575b600080fd5b6101de6202000081565b60405163ffffffff90911681526020015b60405180910390f35b61020b610206366004611091565b6104ac565b005b61020b61021b366004611091565b6105cf565b306000908152602081905260409020545b6040519081526020016101ef565b6101de6201000081565b61025c6102573660046110e4565b610670565b60405190151581526020016101ef565b61023161027a3660046110ff565b6001600160a01b031660009081526002602052604090205490565b6101de600281565b61025c6102ab3660046110e4565b6106eb565b6102316102be3660046110ff565b6001600160a01b031660009081526020819052604090205490565b61020b6102e73660046110e4565b61076c565b61020b6102fa366004611130565b610aaa565b61020b61030d3660046111f5565b610aee565b6102316103203660046110e4565b6001600160801b031660009081526001602052604090205490565b6101de600181565b61020b610351366004611130565b610b66565b6003546101de9063ffffffff1681565b6101de600481565b61025c61037c36600461121b565b610ba6565b61020b61038f3660046110e4565b610bc8565b61020b6103a2366004611234565b610ec1565b610231600160ff1b81565b6103c56103c036600461125e565b610f46565b604080516001600160a01b03909516855263ffffffff9384166020860152918316918401919091521660608201526080016101ef565b61040e610409366004611234565b610f9f565b604080516001600160801b039384168152929091166020830152016101ef565b6104557f000000000000000000000000000000000000000000000000000000000000000081565b6040516001600160a01b0390911681526020016101ef565b61025c61047b366004611234565b610fe2565b61020b61048e36600461121b565b611004565b426101de565b61025c6104a736600461121b565b611011565b6104b862010000611011565b6104dd5760405162461bcd60e51b81526004016104d49061127a565b60405180910390fd5b7f00000000000000000000000000000000000000000000000000000000000000006001600160a01b0316836001600160a01b0316141580610524575061052281610670565b155b6105625760405162461bcd60e51b815260206004820152600f60248201526e1d1bdad95b881a5cc81cdd185ad959608a1b60448201526064016104d4565b6040516323b872dd60e01b81523060048201526001600160a01b038381166024830152604482018390528416906323b872dd90606401600060405180830381600087803b1580156105b257600080fd5b505af11580156105c6573d6000803e3d6000fd5b50505050505050565b6105db62010000611011565b6105f75760405162461bcd60e51b81526004016104d49061127a565b60405163a9059cbb60e01b81526001600160a01b0383811660048301526024820183905284169063a9059cbb906044016020604051808303816000875af1158015610646573d6000803e3d6000fd5b505050506040513d601f19601f8201168201806040525081019061066a91906112a1565b50505050565b6001600160801b03811660009081526001602052604081205480158015906106e457506001600160801b0383166000908152600160208190526040909120906106b990836112d9565b815481106106c9576106c96112ec565b600091825260209091200154600160e01b900463ffffffff16155b9392505050565b6001600160801b03811660009081526001602052604081205480158015906106e457506001600160801b038316600090815260016020819052604090912063ffffffff42169161073b90846112d9565b8154811061074b5761074b6112ec565b600091825260209091200154600160a01b900463ffffffff16119392505050565b6107766002610ba6565b6107ba5760405162461bcd60e51b81526020600482015260156024820152741d5b9cdd185ada5b99c81a5cc8191a5cd8589b1959605a1b60448201526064016104d4565b6001600160801b038116600090815260016020526040812054908190036108105760405162461bcd60e51b815260206004820152600a6024820152691b9bdd081cdd185ad95960b21b60448201526064016104d4565b6001600160801b038216600090815260016020819052604082209061083590846112d9565b81548110610845576108456112ec565b60009182526020918290206040805160808101825291909201546001600160a01b038116825263ffffffff600160a01b8204811694830194909452600160c01b8104841692820192909252600160e01b90910490911660608201819052909150156108e55760405162461bcd60e51b815260206004820152601060248201526f185b1c9958591e481d5b9cdd185ad95960821b60448201526064016104d4565b6108ef6004610ba6565b158061090b57504263ffffffff16816020015163ffffffff1611155b6109405760405162461bcd60e51b81526020600482015260066024820152651b1bd8dad95960d21b60448201526064016104d4565b80516001600160a01b031633146109695760405162461bcd60e51b81526004016104d49061127a565b6001600160801b0383166000908152600160208190526040909120429182919061099390866112d9565b815481106109a3576109a36112ec565b6000918252602090912001805463ffffffff92909216600160e01b026001600160e01b039092169190911790556040516323b872dd60e01b81523060048201523360248201526001600160801b03851660448201526001600160a01b037f000000000000000000000000000000000000000000000000000000000000000016906323b872dd90606401600060405180830381600087803b158015610a4657600080fd5b505af1158015610a5a573d6000803e3d6000fd5b505060405163ffffffff841681526001600160801b03871692503391507f36d8306a3ba641113e235e43a209806d1ed89faf26cf1a0b0406f5bef7da1f8c9060200160405180910390a350505050565b60005b8151811015610aea57610ad8828281518110610acb57610acb6112ec565b602002602001015161076c565b80610ae281611302565b915050610aad565b5050565b610afa62020000611011565b610b165760405162461bcd60e51b81526004016104d49061127a565b6003805463ffffffff191663ffffffff831690811790915560405190815233907f02e53ef35d65de4dc0d086d4873020530dc3f12044d933214af5a884d06bf6059060200160405180910390a250565b60005b8151811015610aea57610b94828281518110610b8757610b876112ec565b6020026020010151610bc8565b80610b9e81611302565b915050610b69565b30600090815260208190526040812054610bc2905b8316831490565b92915050565b610bd26001610ba6565b610c145760405162461bcd60e51b81526020600482015260136024820152721cdd185ada5b99c81a5cc8191a5cd8589b1959606a1b60448201526064016104d4565b6001600160801b038116600090815260016020526040902054801580610c8757506001600160801b038216600090815260016020819052604090912090610c5b90836112d9565b81548110610c6b57610c6b6112ec565b600091825260209091200154600160e01b900463ffffffff1615155b610cc45760405162461bcd60e51b815260206004820152600e60248201526d185b1c9958591e481cdd185ad95960921b60448201526064016104d4565b6040516323b872dd60e01b81523360048201523060248201526001600160801b03831660448201527f00000000000000000000000000000000000000000000000000000000000000006001600160a01b0316906323b872dd90606401600060405180830381600087803b158015610d3a57600080fd5b505af1158015610d4e573d6000803e3d6000fd5b505050506000610d5b4290565b6001600160801b0384166000908152600160209081526040918290208251608081019093523383526003549394509290820190610d9e9063ffffffff168561131b565b63ffffffff908116825284811660208084018290526000604094850181905286546001808201895597825282822087519101805488850151898901516060909a01518816600160e01b026001600160e01b039a8916600160c01b029a909a166001600160c01b0391909816600160a01b026001600160c01b03199092166001600160a01b0390941693909317179190911694909417959095179092553380855260028352838520845180860186526001600160801b038b81168083528b821683880190815284549a8b01855593895297869020915192518116600160801b0292169190911796019590955591519182529192917f7a61b2f6736839b867822dec33e9b62da0725d9d071eac74323a6e04c79223e0910160405180910390a3505050565b610ece600160ff1b611011565b610eea5760405162461bcd60e51b81526004016104d49061127a565b610aea8282610f4133610f12876001600160a01b031660009081526020819052604090205490565b6001600160a01b0391909116600090815260208190526040902054600019808818821618908716919091171690565b61101d565b60016020528160005260406000208181548110610f6257600080fd5b6000918252602090912001546001600160a01b038116925063ffffffff600160a01b820481169250600160c01b8204811691600160e01b90041684565b60026020528160005260406000208181548110610fbb57600080fd5b6000918252602090912001546001600160801b038082169350600160801b90910416905082565b6001600160a01b0382166000908152602081905260408120546106e490610bbb565b61100e3082610ec1565b50565b6000610bc23383610fe2565b6001600160a01b0383166000818152602081815260409182902084905581518581529081018490527fe9be537308880e0f56b7d7cfd7abf85f14c4934486d138f848b92a0cbaf659b4910160405180910390a2505050565b80356001600160a01b038116811461108c57600080fd5b919050565b6000806000606084860312156110a657600080fd5b6110af84611075565b92506110bd60208501611075565b9150604084013590509250925092565b80356001600160801b038116811461108c57600080fd5b6000602082840312156110f657600080fd5b6106e4826110cd565b60006020828403121561111157600080fd5b6106e482611075565b634e487b7160e01b600052604160045260246000fd5b6000602080838503121561114357600080fd5b823567ffffffffffffffff8082111561115b57600080fd5b818501915085601f83011261116f57600080fd5b8135818111156111815761118161111a565b8060051b604051601f19603f830116810181811085821117156111a6576111a661111a565b6040529182528482019250838101850191888311156111c457600080fd5b938501935b828510156111e9576111da856110cd565b845293850193928501926111c9565b98975050505050505050565b60006020828403121561120757600080fd5b813563ffffffff811681146106e457600080fd5b60006020828403121561122d57600080fd5b5035919050565b6000806040838503121561124757600080fd5b61125083611075565b946020939093013593505050565b6000806040838503121561127157600080fd5b611250836110cd565b6020808252600d908201526c1858d8d95cdcc819195b9a5959609a1b604082015260600190565b6000602082840312156112b357600080fd5b815180151581146106e457600080fd5b634e487b7160e01b600052601160045260246000fd5b81810381811115610bc257610bc26112c3565b634e487b7160e01b600052603260045260246000fd5b600060018201611314576113146112c3565b5060010190565b63ffffffff818116838216019080821115611338576113386112c3565b509291505056fea26469706673582212209db0613595f982d6244bc938b6ac71b600922422084463011dc973a90e0e55e264736f6c63430008140033",
  "linkReferences": {},
  "deployedLinkReferences": {}
}