{
  "_format": "hh-sol-artifact-1",
  "contractName": "RewardSystem",
  "sourceName": "contracts/friend_tech/RewardSystem.sol",
  "abi": [
    {
      "anonymous": false,
      "inputs": [
        {
          "indexed": false,
          "internalType": "address",
          "name": "previousAdmin",
          "type": "address"
        },
        {
          "indexed": false,
          "internalType": "address",
          "name": "newAdmin",
          "type": "address"
        }
      ],
      "name": "AdminChanged",
      "type": "event"
    },
    {
      "anonymous": false,
      "inputs": [
        {
          "indexed": true,
          "internalType": "address",
          "name": "beacon",
          "type": "address"
        }
      ],
      "name": "BeaconUpgraded",
      "type": "event"
    },
    {
      "anonymous": false,
      "inputs": [
        {
          "indexed": true,
          "internalType": "address",
          "name": "rewardToken",
          "type": "address"
        },
        {
          "indexed": true,
          "internalType": "address",
          "name": "user",
          "type": "address"
        },
        {
          "indexed": false,
          "internalType": "uint256",
          "name": "amount",
          "type": "uint256"
        }
      ],
      "name": "ERC20RewardClaimed",
      "type": "event"
    },
    {
      "anonymous": false,
      "inputs": [
        {
          "indexed": true,
          "internalType": "address",
          "name": "user",
          "type": "address"
        },
        {
          "indexed": false,
          "internalType": "uint256",
          "name": "amount",
          "type": "uint256"
        }
      ],
      "name": "EthRewardClaimed",
      "type": "event"
    },
    {
      "anonymous": false,
      "inputs": [
        {
          "indexed": true,
          "internalType": "address",
          "name": "operator",
          "type": "address"
        },
        {
          "indexed": false,
          "internalType": "uint256",
          "name": "requested",
          "type": "uint256"
        },
        {
          "indexed": false,
          "internalType": "uint256",
          "name": "assigned",
          "type": "uint256"
        }
      ],
      "name": "RoleUpdated",
      "type": "event"
    },
    {
      "anonymous": false,
      "inputs": [
        {
          "indexed": true,
          "internalType": "address",
          "name": "by",
          "type": "address"
        },
        {
          "indexed": false,
          "internalType": "bytes32",
          "name": "root",
          "type": "bytes32"
        }
      ],
      "name": "RootChanged",
      "type": "event"
    },
    {
      "anonymous": false,
      "inputs": [
        {
          "indexed": true,
          "internalType": "address",
          "name": "implementation",
          "type": "address"
        }
      ],
      "name": "Upgraded",
      "type": "event"
    },
    {
      "stateMutability": "payable",
      "type": "fallback"
    },
    {
      "inputs": [],
      "name": "FEATURE_CLAIM_ACTIVE",
      "outputs": [
        {
          "internalType": "uint32",
          "name": "",
          "type": "uint32"
        }
      ],
      "stateMutability": "view",
      "type": "function"
    },
    {
      "inputs": [],
      "name": "ROLE_ACCESS_MANAGER",
      "outputs": [
        {
          "internalType": "uint256",
          "name": "",
          "type": "uint256"
        }
      ],
      "stateMutability": "view",
      "type": "function"
    },
    {
      "inputs": [],
      "name": "ROLE_DATA_ROOT_MANAGER",
      "outputs": [
        {
          "internalType": "uint32",
          "name": "",
          "type": "uint32"
        }
      ],
      "stateMutability": "view",
      "type": "function"
    },
    {
      "inputs": [],
      "name": "ROLE_UPGRADE_MANAGER",
      "outputs": [
        {
          "internalType": "uint256",
          "name": "",
          "type": "uint256"
        }
      ],
      "stateMutability": "view",
      "type": "function"
    },
    {
      "inputs": [
        {
          "internalType": "address",
          "name": "_to",
          "type": "address"
        },
        {
          "internalType": "uint256",
          "name": "_totalReward",
          "type": "uint256"
        },
        {
          "internalType": "bytes32[]",
          "name": "_proof",
          "type": "bytes32[]"
        }
      ],
      "name": "claimReward",
      "outputs": [],
      "stateMutability": "nonpayable",
      "type": "function"
    },
    {
      "inputs": [
        {
          "internalType": "address",
          "name": "",
          "type": "address"
        }
      ],
      "name": "claimedReward",
      "outputs": [
        {
          "internalType": "uint256",
          "name": "",
          "type": "uint256"
        }
      ],
      "stateMutability": "view",
      "type": "function"
    },
    {
      "inputs": [],
      "name": "erc20RewardToken",
      "outputs": [
        {
          "internalType": "contract ERC20",
          "name": "",
          "type": "address"
        }
      ],
      "stateMutability": "view",
      "type": "function"
    },
    {
      "inputs": [],
      "name": "features",
      "outputs": [
        {
          "internalType": "uint256",
          "name": "",
          "type": "uint256"
        }
      ],
      "stateMutability": "view",
      "type": "function"
    },
    {
      "inputs": [],
      "name": "getImplementation",
      "outputs": [
        {
          "internalType": "address",
          "name": "",
          "type": "address"
        }
      ],
      "stateMutability": "view",
      "type": "function"
    },
    {
      "inputs": [
        {
          "internalType": "address",
          "name": "operator",
          "type": "address"
        }
      ],
      "name": "getRole",
      "outputs": [
        {
          "internalType": "uint256",
          "name": "",
          "type": "uint256"
        }
      ],
      "stateMutability": "view",
      "type": "function"
    },
    {
      "inputs": [
        {
          "internalType": "address",
          "name": "_to",
          "type": "address"
        },
        {
          "internalType": "uint256",
          "name": "_totalReward",
          "type": "uint256"
        },
        {
          "internalType": "bytes32[]",
          "name": "_proof",
          "type": "bytes32[]"
        }
      ],
      "name": "isClaimValid",
      "outputs": [
        {
          "internalType": "bool",
          "name": "",
          "type": "bool"
        }
      ],
      "stateMutability": "view",
      "type": "function"
    },
    {
      "inputs": [
        {
          "internalType": "uint256",
          "name": "required",
          "type": "uint256"
        }
      ],
      "name": "isFeatureEnabled",
      "outputs": [
        {
          "internalType": "bool",
          "name": "",
          "type": "bool"
        }
      ],
      "stateMutability": "view",
      "type": "function"
    },
    {
      "inputs": [
        {
          "internalType": "address",
          "name": "operator",
          "type": "address"
        },
        {
          "internalType": "uint256",
          "name": "required",
          "type": "uint256"
        }
      ],
      "name": "isOperatorInRole",
      "outputs": [
        {
          "internalType": "bool",
          "name": "",
          "type": "bool"
        }
      ],
      "stateMutability": "view",
      "type": "function"
    },
    {
      "inputs": [
        {
          "internalType": "uint256",
          "name": "required",
          "type": "uint256"
        }
      ],
      "name": "isSenderInRole",
      "outputs": [
        {
          "internalType": "bool",
          "name": "",
          "type": "bool"
        }
      ],
      "stateMutability": "view",
      "type": "function"
    },
    {
      "inputs": [
        {
          "internalType": "bool",
          "name": "_rewardSystemType",
          "type": "bool"
        },
        {
          "internalType": "address",
          "name": "_erc20RewardToken",
          "type": "address"
        }
      ],
      "name": "postConstruct",
      "outputs": [],
      "stateMutability": "nonpayable",
      "type": "function"
    },
    {
      "inputs": [],
      "name": "rewardSystemType",
      "outputs": [
        {
          "internalType": "bool",
          "name": "",
          "type": "bool"
        }
      ],
      "stateMutability": "view",
      "type": "function"
    },
    {
      "inputs": [],
      "name": "root",
      "outputs": [
        {
          "internalType": "bytes32",
          "name": "",
          "type": "bytes32"
        }
      ],
      "stateMutability": "view",
      "type": "function"
    },
    {
      "inputs": [
        {
          "internalType": "bytes32",
          "name": "_root",
          "type": "bytes32"
        }
      ],
      "name": "setInputDataRoot",
      "outputs": [],
      "stateMutability": "nonpayable",
      "type": "function"
    },
    {
      "inputs": [
        {
          "internalType": "uint256",
          "name": "_mask",
          "type": "uint256"
        }
      ],
      "name": "updateFeatures",
      "outputs": [],
      "stateMutability": "nonpayable",
      "type": "function"
    },
    {
      "inputs": [
        {
          "internalType": "address",
          "name": "operator",
          "type": "address"
        },
        {
          "internalType": "uint256",
          "name": "role",
          "type": "uint256"
        }
      ],
      "name": "updateRole",
      "outputs": [],
      "stateMutability": "nonpayable",
      "type": "function"
    },
    {
      "inputs": [
        {
          "internalType": "address",
          "name": "newImplementation",
          "type": "address"
        }
      ],
      "name": "upgradeTo",
      "outputs": [],
      "stateMutability": "nonpayable",
      "type": "function"
    },
    {
      "inputs": [
        {
          "internalType": "address",
          "name": "newImplementation",
          "type": "address"
        },
        {
          "internalType": "bytes",
          "name": "data",
          "type": "bytes"
        }
      ],
      "name": "upgradeToAndCall",
      "outputs": [],
      "stateMutability": "payable",
      "type": "function"
    },
    {
      "stateMutability": "payable",
      "type": "receive"
    }
  ],
  "bytecode": "0x60a0604052306080523480156200001557600080fd5b50600054610100900460ff16620000335760005460ff16156200003d565b6200003d620000e2565b620000a55760405162461bcd60e51b815260206004820152602e60248201527f496e697469616c697a61626c653a20636f6e747261637420697320616c72656160448201526d191e481a5b9a5d1a585b1a5e995960921b606482015260840160405180910390fd5b600054610100900460ff16158015620000c8576000805461ffff19166101011790555b8015620000db576000805461ff00191690555b5062000106565b6000620000fa306200010060201b62000bd71760201c565b15905090565b3b151590565b6080516115a36200013760003960008181610752015281816107920152818161097001526109b001526115a36000f3fe60806040526004361061012d5760003560e01c8063ae5b102e116100a5578063d10c26711161006c578063d10c267114610372578063d5bb7f6714610392578063e84adccd146103b2578063ebf0c717146103c9578063f51b07ed146103df578063fcc2c0781461040457005b8063ae5b102e146102d8578063ae60bda4146102f8578063ae682e2e14610310578063bd3e01d114610328578063c688d6931461035257005b806349faac7b116100f457806349faac7b1461020e5780634f1ef2861461022e5780636f8a751314610241578063725f3626146102615780637b130a9414610291578063aaf10f42146102ab57005b806309823cde146101365780631e6f3d8a146101565780632b521416146101965780633659cfe6146101b857806344276733146101d857005b3661013457005b005b34801561014257600080fd5b50610134610151366004611172565b610424565b34801561016257600080fd5b50610183610171366004611234565b60986020526000908152604090205481565b6040519081526020015b60405180910390f35b3480156101a257600080fd5b5030600090815260016020526040902054610183565b3480156101c457600080fd5b506101346101d3366004611234565b610748565b3480156101e457600080fd5b506101836101f3366004611234565b6001600160a01b031660009081526001602052604090205490565b34801561021a57600080fd5b5061013461022936600461125d565b610810565b61013461023c366004611292565b610966565b34801561024d57600080fd5b5061013461025c366004611338565b610a1f565b34801561026d57600080fd5b5061028161027c366004611338565b610a84565b604051901515815260200161018d565b34801561029d57600080fd5b506099546102819060ff1681565b3480156102b757600080fd5b506102c0610aa6565b6040516001600160a01b03909116815260200161018d565b3480156102e457600080fd5b506101346102f3366004611351565b610ab0565b34801561030457600080fd5b50610183600160fe1b81565b34801561031c57600080fd5b50610183600160ff1b81565b34801561033457600080fd5b5061033d600181565b60405163ffffffff909116815260200161018d565b34801561035e57600080fd5b5061028161036d366004611351565b610b35565b34801561037e57600080fd5b5061028161038d366004611172565b610b5e565b34801561039e57600080fd5b506101346103ad366004611338565b610bc1565b3480156103be57600080fd5b5061033d6201000081565b3480156103d557600080fd5b5061018360975481565b3480156103eb57600080fd5b506099546102c09061010090046001600160a01b031681565b34801561041057600080fd5b5061028161041f366004611338565b610bcb565b61042e6001610a84565b6104765760405162461bcd60e51b81526020600482015260146024820152731c995919595b5cc8185c9948191a5cd8589b195960621b60448201526064015b60405180910390fd5b610481838383610b5e565b6104bf5760405162461bcd60e51b815260206004820152600f60248201526e1a5b9d985b1a59081c995c5d595cdd608a1b604482015260640161046d565b6001600160a01b03831660009081526098602052604090205482116105195760405162461bcd60e51b815260206004820152601060248201526f6e6f7468696e6720746f20636c61696d60801b604482015260640161046d565b6001600160a01b03831660009081526098602052604081205461053c9084611391565b6001600160a01b0385166000908152609860205260408120805492935083929091906105699084906113a8565b9250508190555080609a600082825461058291906113a8565b909155505060995460ff1615610675576000846001600160a01b03168260405160006040518083038185875af1925050503d80600081146105df576040519150601f19603f3d011682016040523d82523d6000602084013e6105e4565b606091505b505090508061062c5760405162461bcd60e51b81526020600482015260146024820152732330b4b632b2103a379039b2b7321022ba3432b960611b604482015260640161046d565b846001600160a01b03167f4aa8284851f048567f1f61cfbb9af3b050a0fd5455f01c5de8416ca0564f20a38360405161066791815260200190565b60405180910390a25061073d565b60995460405163a9059cbb60e01b81526001600160a01b038681166004830152602482018490526101009092049091169063a9059cbb906044016020604051808303816000875af11580156106ce573d6000803e3d6000fd5b505050506040513d601f19601f820116820180604052508101906106f291906113c0565b506099546040518281526001600160a01b0386811692610100900416907f617dc33bfe6c05895429aa10442ff5716e0040e90d0c04faa92ced6a4d0ae7879060200160405180910390a35b50505050565b905090565b6001600160a01b037f00000000000000000000000000000000000000000000000000000000000000001630036107905760405162461bcd60e51b815260040161046d906113dd565b7f00000000000000000000000000000000000000000000000000000000000000006001600160a01b03166107c2610bdd565b6001600160a01b0316146107e85760405162461bcd60e51b815260040161046d90611429565b6107f181610c0b565b6040805160008082526020820190925261080d91839190610c34565b50565b600054610100900460ff1661082b5760005460ff161561082f565b303b155b6108925760405162461bcd60e51b815260206004820152602e60248201527f496e697469616c697a61626c653a20636f6e747261637420697320616c72656160448201526d191e481a5b9a5d1a585b1a5e995960921b606482015260840161046d565b600054610100900460ff161580156108b4576000805461ffff19166101011790555b82806108c857506001600160a01b03821615155b61091f5760405162461bcd60e51b815260206004820152602260248201527f72657761726420746f6b656e2063616e2774206265207a65726f206164647265604482015261737360f01b606482015260840161046d565b61092833610d7f565b609980546001600160a81b0319166101006001600160a01b0385160260ff1916178415151790558015610961576000805461ff00191690555b505050565b6001600160a01b037f00000000000000000000000000000000000000000000000000000000000000001630036109ae5760405162461bcd60e51b815260040161046d906113dd565b7f00000000000000000000000000000000000000000000000000000000000000006001600160a01b03166109e0610bdd565b6001600160a01b031614610a065760405162461bcd60e51b815260040161046d90611429565b610a0f82610c0b565b610a1b82826001610c34565b5050565b610a2b62010000610bcb565b610a475760405162461bcd60e51b815260040161046d90611475565b609781905560405181815233907f714dceb37ab5c7fb26ab805d3dc0423f5d90c3dac9f6702a2ea1402ea847851c9060200160405180910390a250565b30600090815260016020526040812054610aa0905b8316831490565b92915050565b6000610743610bdd565b610abd600160ff1b610bcb565b610ad95760405162461bcd60e51b815260040161046d90611475565b610a1b8282610b3033610b01876001600160a01b031660009081526001602052604090205490565b6001600160a01b0391909116600090815260016020526040902054600019808818821618908716919091171690565b610df3565b6001600160a01b038216600090815260016020526040812054610b5790610a99565b9392505050565b6040516bffffffffffffffffffffffff19606085901b166020820152603481018390526000908190605401604051602081830303815290604052805190602001209050610bb86097548285610e4d9092919063ffffffff16565b95945050505050565b61080d3082610ab0565b6000610aa03383610b35565b3b151590565b7f360894a13ba1a3210667c828492db98dca3e2076cc3735a920a3ca505d382bbc546001600160a01b031690565b610c18600160fe1b610bcb565b61080d5760405162461bcd60e51b815260040161046d90611475565b6000610c3e610bdd565b9050610c4984610e63565b600083511180610c565750815b15610c6757610c658484610f08565b505b7f4910fdfa16fed3260ed0e7147f7cc6da11a60208b5b9406d12a635614ffd9143805460ff16610d7857805460ff191660011781556040516001600160a01b0383166024820152610ce690869060440160408051601f198184030181529190526020810180516001600160e01b0316631b2ce7f360e11b179052610f08565b50805460ff19168155610cf7610bdd565b6001600160a01b0316826001600160a01b031614610d6f5760405162461bcd60e51b815260206004820152602f60248201527f45524331393637557067726164653a207570677261646520627265616b73206660448201526e75727468657220757067726164657360881b606482015260840161046d565b610d7885610fea565b5050505050565b600054610100900460ff16610dea5760405162461bcd60e51b815260206004820152602b60248201527f496e697469616c697a61626c653a20636f6e7472616374206973206e6f74206960448201526a6e697469616c697a696e6760a81b606482015260840161046d565b61080d81600019805b6001600160a01b03831660008181526001602090815260409182902084905581518581529081018490527fe9be537308880e0f56b7d7cfd7abf85f14c4934486d138f848b92a0cbaf659b4910160405180910390a2505050565b600082610e5a858461102a565b14949350505050565b803b610ec75760405162461bcd60e51b815260206004820152602d60248201527f455243313936373a206e657720696d706c656d656e746174696f6e206973206e60448201526c1bdd08184818dbdb9d1c9858dd609a1b606482015260840161046d565b7f360894a13ba1a3210667c828492db98dca3e2076cc3735a920a3ca505d382bbc80546001600160a01b0319166001600160a01b0392909216919091179055565b6060823b610f675760405162461bcd60e51b815260206004820152602660248201527f416464726573733a2064656c65676174652063616c6c20746f206e6f6e2d636f6044820152651b9d1c9858dd60d21b606482015260840161046d565b600080846001600160a01b031684604051610f8291906114c8565b600060405180830381855af49150503d8060008114610fbd576040519150601f19603f3d011682016040523d82523d6000602084013e610fc2565b606091505b5091509150610bb88282604051806060016040528060278152602001611547602791396110d6565b610ff381610e63565b6040516001600160a01b038216907fbc7cd75a20ee27fd9adebab32041f755214dbc6bffa90cc0225b39da2e5c2d3b90600090a250565b600081815b84518110156110ce57600085828151811061104c5761104c6114e4565b6020026020010151905080831161108e5760408051602081018590529081018290526060016040516020818303038152906040528051906020012092506110bb565b60408051602081018390529081018490526060016040516020818303038152906040528051906020012092505b50806110c6816114fa565b91505061102f565b509392505050565b606083156110e5575081610b57565b8251156110f55782518084602001fd5b8160405162461bcd60e51b815260040161046d9190611513565b80356001600160a01b038116811461112657600080fd5b919050565b634e487b7160e01b600052604160045260246000fd5b604051601f8201601f1916810167ffffffffffffffff8111828210171561116a5761116a61112b565b604052919050565b60008060006060848603121561118757600080fd5b6111908461110f565b92506020808501359250604085013567ffffffffffffffff808211156111b557600080fd5b818701915087601f8301126111c957600080fd5b8135818111156111db576111db61112b565b8060051b91506111ec848301611141565b818152918301840191848101908a84111561120657600080fd5b938501935b838510156112245784358252938501939085019061120b565b8096505050505050509250925092565b60006020828403121561124657600080fd5b610b578261110f565b801515811461080d57600080fd5b6000806040838503121561127057600080fd5b823561127b8161124f565b91506112896020840161110f565b90509250929050565b600080604083850312156112a557600080fd5b6112ae8361110f565b915060208084013567ffffffffffffffff808211156112cc57600080fd5b818601915086601f8301126112e057600080fd5b8135818111156112f2576112f261112b565b611304601f8201601f19168501611141565b9150808252878482850101111561131a57600080fd5b80848401858401376000848284010152508093505050509250929050565b60006020828403121561134a57600080fd5b5035919050565b6000806040838503121561136457600080fd5b61136d8361110f565b946020939093013593505050565b634e487b7160e01b600052601160045260246000fd5b6000828210156113a3576113a361137b565b500390565b600082198211156113bb576113bb61137b565b500190565b6000602082840312156113d257600080fd5b8151610b578161124f565b6020808252602c908201527f46756e6374696f6e206d7573742062652063616c6c6564207468726f7567682060408201526b19195b1959d85d1958d85b1b60a21b606082015260800190565b6020808252602c908201527f46756e6374696f6e206d7573742062652063616c6c6564207468726f7567682060408201526b6163746976652070726f787960a01b606082015260800190565b6020808252600d908201526c1858d8d95cdcc819195b9a5959609a1b604082015260600190565b60005b838110156114b757818101518382015260200161149f565b8381111561073d5750506000910152565b600082516114da81846020870161149c565b9190910192915050565b634e487b7160e01b600052603260045260246000fd5b60006001820161150c5761150c61137b565b5060010190565b602081526000825180602084015261153281604085016020870161149c565b601f01601f1916919091016040019291505056fe416464726573733a206c6f772d6c6576656c2064656c65676174652063616c6c206661696c6564a264697066735822122050317eb8424a7d1a0af94e0bfc44a78f286e7664b2c2de969cc71b12ef74b84f64736f6c634300080f0033",
  "linkReferences": {},
  "deployedLinkReferences": {}
}